:100000000C9435000C945D000C945D000C945D0024
:100010000C945D000C945D000C945D000C945D00EC
:100020000C945D000C945D000C945D000C945D00DC
:100030000C945D000C945D000C945D000C945D00CC
:100040000C9443070C945D000C9411010C946F0107
:100050000C945D000C945D000C945D000C945D00AC
:100060000C945D000C945D00340511241FBECFEF8D
:10007000D8E0DEBFCDBF11E0A0E0B1E0E0EDF2E1FD
:1000800002C005900D92A033B107D9F721E0A0E39B
:10009000B1E001C01D92A33EB207E1F710E0CAE64D
:1000A000D0E004C02297FE010E945909C836D1074A
:1000B000C9F70E9479000C9466090C94000040E88E
:1000C00055E260E070E088EB91E00E9458020895EC
:1000D0008EE00E94E5084AE050E0BC0188EB91E028
:1000E0000E949F0661E070E080E090E00E941408AA
:1000F00008950E9457080E945F000E9468008CE5E6
:1001000091E0892B29F00E945C010E946800FBCFDE
:100110000E946800FDCFCF93DF9300D0CDB7DEB74C
:100120009A83898389819A812BE231E0FC013183B2
:10013000208389819A81FC01138212820F900F9093
:10014000DF91CF910895CF93DF9300D0CDB7DEB785
:100150009A83898389819A810E948B0089819A81FF
:100160002BE131E0FC013183208329813A8188EE43
:1001700093E0A0E0B0E0F90184839583A683B78380
:100180000F900F90DF91CF910895CF93DF9300D020
:1001900000D01F92CDB7DEB78B837D836C838C81BB
:1001A0009D81805C9F4FFC018081918101968F73BE
:1001B00099279A83898329813A818C819D818E5BDD
:1001C0009F4FFC018081918141E02817390709F494
:1001D00040E04423B9F08C819D81805C9F4FFC01FD
:1001E000808191812C813D81820F931F2B81FC01A5
:1001F000208329813A818C819D81805C9F4FFC0105
:10020000318320830F900F900F900F900F90DF910C
:10021000CF910895CF93DF93CDB7DEB7DF91CF9124
:1002200008951F920F9200905F000F9211242F9358
:100230003F934F935F936F937F938F939F93AF936E
:10024000BF93EF93FF93CF93DF9300D0CDB7DEB78B
:1002500080EC90E0FC018081882F90E084709927E9
:1002600021E0009709F020E0222359F086EC90E08D
:10027000FC018081898360E371E089810E94C5006F
:1002800005C086EC90E0FC0180818A830F900F907E
:10029000DF91CF91FF91EF91BF91AF919F918F919E
:1002A0007F916F915F914F913F912F910F900092AD
:1002B0005F000F901F901895CF93DF93CDB7DEB7F7
:1002C00088EB91E00E94630321E0009709F420E0AD
:1002D000222311F00E940A01DF91CF9108951F920D
:1002E0000F9200905F000F9211242F933F934F9332
:1002F0008F939F93EF93FF93CF93DF931F92CDB78D
:10030000DEB72091B4013091B5018091B601909192
:10031000B70141E02817390709F040E0442351F0C4
:1003200081EC90E021EC30E0F90120812F7DFC018F
:10033000208319C08091B6019091B7018C589E4FCF
:10034000FC01808189838091B6019091B70101966B
:100350008F7399279093B7018093B60186EC90E054
:100360002981FC0120830F90DF91CF91FF91EF91C4
:100370009F918F914F913F912F910F9000925F002D
:100380000F901F9018958F929F92AF92BF92CF922D
:10039000DF92EF92FF920F931F93CF93DF93CDB72E
:1003A000DEB762970FB6F894DEBF0FBECDBF9A835B
:1003B00089837C836B835E834D8338872F831A8781
:1003C0000987FC86EB86DE86CD86B88AAF869A8A58
:1003D000898A89819A810E94A30089819A812BE070
:1003E00031E0FC013183208389819A812B813C811A
:1003F000FC013587248789819A812D813E81FC010A
:100400003787268789819A812F813885FC01318B36
:10041000208B89819A8129853A85FC01338B228B37
:1004200089819A812B853C85FC01358B248B8981C0
:100430009A812D853E85FC01378B268B89819A8197
:100440002F853889FC01318F208F89819A812989F4
:100450003A89FC01338F228F89819A8129A1FC017D
:10046000248F89819A812AA1FC01258F89819A8113
:100470002BA1FC01268F89819A812CA1FC01278F59
:1004800089819A812DA1FC0120A362960FB6F89470
:10049000DEBF0FBECDBFDF91CF911F910F91FF90B7
:1004A000EF90DF90CF90BF90AF909F908F90089586
:1004B000CF93DF93CDB7DEB761970FB6F894DEBF69
:1004C0000FBECDBF9D838C834E835F836887798702
:1004D00081E08B838E819F81A885B985811521EE6E
:1004E0009207A105B10509F41B828B81882361F174
:1004F0008C819D81FC01848995892C813D81F90144
:1005000020A1422F50E021E030E002C0220F331F33
:100510004A95E2F7FC01208380E099E0ADE3B0E08A
:100520002E813F8148855985BC01CD010E94350946
:10053000DA01C9010197A109B109B695A795979567
:1005400087959A8389831EC08C819D81FC01848953
:100550009589FC01108280E894E8AEE1B0E02E813C
:100560003F8148855985BC01CD010E943509DA01DA
:10057000C9010197A109B109B695A79597958795E6
:100580009A83898389819A818115F0E19F0728F0F8
:100590008B81882311F01B82A8CF8C819D81FC0167
:1005A0008089918929813A81232F3327FC01208377
:1005B0008C819D81FC01828993892981FC012083A2
:1005C0008C819D81FC0111A28C819D81FC01868919
:1005D00097892C813D81F90126893789F90120818C
:1005E000622F2C813D81F901248D422F50E021E0C2
:1005F00030E002C0220F331F4A95E2F7262BFC01A0
:1006000020838C819D81FC01868997892C813D8185
:10061000F90126893789F9012081622F2C813D81DA
:10062000F901258D422F50E021E030E002C0220F79
:10063000331F4A95E2F7262BFC0120838C819D8194
:10064000FC01868997892C813D81F90126893789AA
:10065000F9012081622F2C813D81F901268D422FE5
:1006600050E021E030E002C0220F331F4A95E2F74C
:10067000262BFC0120838C819D81FC018689978932
:100680002C813D81F90126893789F9012081622F6A
:100690002C813D81F901278D422F50E021E030E08F
:1006A000042E02C0220F331F0A94E2F7209526235E
:1006B000FC01208361960FB6F894DEBF0FBECDBF5C
:1006C000DF91CF910895CF93DF9300D0CDB7DEB700
:1006D0009A83898389819A81FC0184859585805CD0
:1006E0009F4FFC012081318189819A81FC018485A1
:1006F00095858E5B9F4FFC0180819181A901481BEC
:10070000590BCA018F7399270F900F90DF91CF91EA
:100710000895CF93DF9300D0CDB7DEB79A83898356
:1007200089819A81FC0184859585805C9F4FFC01BD
:100730002081318189819A81FC01848595858E5B38
:100740009F4FFC018081918141E02817390709F012
:1007500040E0442319F08FEF9FEF15C089819A8103
:10076000FC012485358589819A81FC0184859585E4
:100770008E5B9F4FFC0180819181820F931FFC0152
:100780008081882F90E00F900F90DF91CF91089596
:10079000CF93DF9300D01F92CDB7DEB79B838A83C0
:1007A0008A819B81FC0184859585805C9F4FFC013B
:1007B000208131818A819B81FC01848595858E5BB6
:1007C0009F4FFC018081918141E02817390709F092
:1007D00040E0442319F08FEF9FEF2FC08A819B8167
:1007E000FC01248535858A819B81FC018485958562
:1007F0008E5B9F4FFC0180819181820F931FFC01D2
:10080000808189838A819B81FC01848595852A81E9
:100810003B81F901248535852E5B3F4FF90120810D
:1008200031812F5F3F4F2F7333278E5B9F4FFC012A
:10083000318320838981882F90E00F900F900F9053
:10084000DF91CF910895CF93DF9300D0CDB7DEB77E
:100850009A838983000089819A81FC0181A1882380
:1008600079F089819A81FC0184899589FC018081D4
:10087000882F90E080749927009711F481E001C0DF
:1008800080E0882341F789819A81FC0111A20F90B1
:100890000F90DF91CF910895CF93DF9300D000D0D8
:1008A0001F92CDB7DEB79C838B836D838B819C8138
:1008B000FC0186859785805C9F4FFC01808191813A
:1008C00001968F7399279A838983000029813A8141
:1008D0008B819C81FC01868597858E5B9F4FFC01F7
:1008E0008081918141E02817390709F040E04423D5
:1008F00069F78B819C81FC01268537858B819C81E2
:10090000FC0186859785805C9F4FFC0180819181E9
:10091000820F931F2D81FC0120838B819C81FC0120
:100920008685978529813A81805C9F4FFC013183C0
:1009300020838B819C81FC01868997892B813C8156
:10094000F90126893789F9012081622F2B813C81A9
:10095000F901278D422F50E021E030E0042E02C043
:10096000220F331F0A94E2F7262BFC0120838B8190
:100970009C8121E0FC0121A38B819C81FC01848965
:1009800095892B813C81F90124893589F9012081E0
:100990002064FC01208381E090E00F900F900F9085
:1009A0000F900F90DF91CF9108958F929F92AF9209
:1009B000BF92CF92DF92EF92FF920F931F93CF934C
:1009C000DF9300D000D0CDB7DEB79A8389837C83D4
:1009D0006B8389819A8181309105A9F58B819C81F6
:1009E0008F3F2FEF920779F581E08F9385E08F930A
:1009F00087E08F9383E08F9384E08F930F2EF6EC44
:100A00008F2E912CF02D0F2EF2ECAF2EB12CF02D5D
:100A10000F2EF1ECCF2ED12CF02D0F2EF0ECEF2E6F
:100A2000F12CF02D04EC10E025EC30E044E751E02F
:100A300060E371E088EB91E00E94C3010F900F909A
:100A40000F900F900F900F900F900F900F90DF91DD
:100A5000CF911F910F91FF90EF90DF90CF90BF90BB
:100A6000AF909F908F900895CF93DF93CDB7DEB76F
:100A70006FEF7FEF81E090E00E94D504DF91CF918E
:100A80000895CF93DF93CDB7DEB7DF91CF9108956F
:100A90000F931F93CF93DF9300D000D0CDB7DEB775
:100AA0009A8389837C836B838B819C81009719F463
:100AB00080E090E015C089819A81FC01808191815C
:100AC0000296FC01008111818B819C810E945D094D
:100AD000AC012B813C8189819A81B901F80109958A
:100AE0000F900F900F900F90DF91CF911F910F916A
:100AF0000895CF93DF93CDB7DEB728970FB6F8945C
:100B0000DEBF0FBECDBF9C838B837E836D835887F2
:100B10004F831A8219821CC08B819C81FC018081C9
:100B20009181FC01208131818D819E81AC014F5FDB
:100B30005F4F5E834D83FC0140818B819C81642FDC
:100B4000F901099529813A81820F931F9A8389833C
:100B50008F8198859C012150310938872F8321E0AE
:100B6000009709F420E02223B9F689819A8128961A
:100B70000FB6F894DEBF0FBECDBFDF91CF910895C1
:100B8000CF93DF9300D01F92CDB7DEB79A838983CE
:100B90006B8389819A81FC0180819181FC01208194
:100BA00031814B8189819A81642FF90109950F90D8
:100BB0000F900F90DF91CF910895CF93DF9300D0E6
:100BC00000D000D0CDB7DEB79A8389837C836B8356
:100BD0005E834D838B819C81AA2797FDA095BA2FB8
:100BE0002D813E81E981FA81AC01BD01CF010E94D6
:100BF000020626960FB6F894DEBF0FBECDBFDF917A
:100C0000CF910895CF93DF93CDB7DEB72A970FB674
:100C1000F894DEBF0FBECDBF9C838B834D835E8374
:100C20006F8378873A87298789859A85009779F431
:100C30008B819C81FC0180819181FC01208131812B
:100C40004D818B819C81642FF90109954CC0898568
:100C50009A858A309105D9F58D819E81AF81B885BD
:100C6000BB2344F58B819C816DE20E94C0059A8371
:100C700089838D819E81AF81B885B095A09590952F
:100C800081959F4FAF4FBF4F8D839E83AF83B887B2
:100C90008D819E81AF81B885EB81FC812AE0AC011A
:100CA000BD01CF010E94CF069C0189819A81820FEC
:100CB000931F19C08D819E81AF81B885EB81FC8126
:100CC0002AE0AC01BD01CF010E94CF060CC02985EE
:100CD0008D819E81AF81B885EB81FC81AC01BD0126
:100CE000CF010E94CF062A960FB6F894DEBF0FBE42
:100CF000CDBFDF91CF910895CF93DF9300D000D087
:100D0000CDB7DEB79C838B838B819C816DE00E9485
:100D1000C0059A8389838B819C816AE00E94C0050B
:100D200029813A81820F931F9A83898389819A81CD
:100D30000F900F900F900F90DF91CF910895CF9368
:100D4000DF93CDB7DEB728970FB6F894DEBF0FBE9E
:100D5000CDBF9C838B837E836D8358874F834F8168
:100D600058852D813E818B819C81B9010E94DD05D2
:100D70009A8389838B819C810E947C0629813A8198
:100D8000820F931F9A83898389819A8128960FB64F
:100D9000F894DEBF0FBECDBFDF91CF910895CF9302
:100DA000DF93CDB7DEB7E3970FB6F894DEBF0FBE83
:100DB000CDBF9AA789A74BA75CA76DA77EA72FA732
:100DC00080E290E09E01285F3F4F820F931F9A833D
:100DD000898389819A81FC0110828FA5823010F469
:100DE0008AE08FA78BA59CA5ADA5BEA58B839C8310
:100DF000AD83BE838FA5282F30E040E050E08BA567
:100E00009CA5ADA5BEA5BC01CD010E943509DA01A6
:100E1000C9018BA79CA7ADA7BEA79B812BA58FA5BA
:100E2000289F802D1124F92FF81B8F2F8F83898104
:100E30009A8101979A8389838F818A3024F48F81E4
:100E4000805D282F03C08F81895C282F89819A813A
:100E5000FC0120838BA59CA5ADA5BEA50097A1058F
:100E6000B10509F0BFCF29813A8189A59AA5B901B9
:100E70000E944805E3960FB6F894DEBF0FBECDBFC3
:100E8000DF91CF9108951F920F9200905F000F9213
:100E900011248F939F93AF93BF93CF93DF93CDB7DD
:100EA000DEB72597DEBFCDBF8091DE019091DF01D7
:100EB000A091E001B091E10189839A83AB83BC8367
:100EC0008091E2018D8389819A81AB81BC810196F9
:100ED000A11DB11D89839A83AB83BC838D818D5FF6
:100EE0008D838D818D3770F08D818D578D838981B4
:100EF0009A81AB81BC810196A11DB11D89839A8322
:100F0000AB83BC838D818093E20189819A81AB811F
:100F1000BC818093DE019093DF01A093E001B09348
:100F2000E1018091DA019091DB01A091DC01B091A7
:100F3000DD010196A11DB11D8093DA019093DB01C3
:100F4000A093DC01B093DD010F900F900F900F90F4
:100F50000F90DF91CF91BF91AF919F918F910F90A3
:100F600000925F000F901F901895CF93DF9300D0F1
:100F700000D000D0CDB7DEB78FE590E0FC018081D6
:100F80008D83F8948091DA019091DB01A091DC01CE
:100F9000B091DD0189839A83AB83BC8386E490E0C2
:100FA000FC0180818E8385E390E0FC018081882FA5
:100FB00090E081709927009771F08E818F3F59F0F2
:100FC00089819A81AB81BC810196A11DB11D898364
:100FD0009A83AB83BC838FE590E02D81FC01208355
:100FE00089819A81AB81BC812227382F492F5A2FC2
:100FF0008E81882F90E0A0E0B0E0820F931FA41FA5
:10100000B51F880F991FAA1FBB1F880F991FAA1F02
:10101000BB1FBC01CD0126960FB6F894DEBF0FBEF4
:10102000CDBFDF91CF910895CF93DF9300D000D053
:1010300000D0CDB7DEB76B837C838D839E830E9407
:10104000B507DC01CB019A83898320C00E94B507D4
:10105000DC01CB019C0189819A81A901481B590BB4
:10106000CA01883E53E0950788F08B819C81AD8151
:10107000BE810197A109B1098B839C83AD83BE8397
:1010800089819A8188519C4F9A8389838B819C8125
:10109000AD81BE810097A105B105C1F626960FB6B8
:1010A000F894DEBF0FBECDBFDF91CF910895CF93EF
:1010B000DF93CDB7DEB7789484E490E024E430E0A9
:1010C000F90120812260FC01208384E490E024E483
:1010D00030E0F90120812160FC01208385E490E06B
:1010E00025E430E0F90120812260FC01208385E4C1
:1010F00090E025E430E0F90120812160FC012083AB
:101100008EE690E02EE630E0F90120812160FC01BE
:10111000208381E890E0FC01108281E890E021E8E2
:1011200030E0F90120812260FC01208381E890E019
:1011300021E830E0F90120812160FC01208380E872
:1011400090E020E830E0F90120812160FC0120835B
:1011500081EB90E021EB30E0F90120812460FC017B
:10116000208380EB90E020EB30E0F90120812160CA
:10117000FC0120838AE790E02AE730E0F901208132
:101180002460FC0120838AE790E02AE730E0F9013F
:1011900020812260FC0120838AE790E02AE730E08A
:1011A000F90120812160FC0120838AE790E02AE791
:1011B00030E0F90120812068FC01208381EC90E07F
:1011C000FC011082DF91CF910895CF93DF9300D07F
:1011D0001F92CDB7DEB78B838B818E3018F08B8159
:1011E0008E508B838CE790E020910601222F30E017
:1011F0000024369527950794369527950794322F26
:10120000202D322F2B812770232BFC0120838AE78E
:1012100090E02AE730E0F90120812064FC0120837E
:1012200000008AE790E0FC018081882F90E08074C4
:1012300099270097B1F788E790E0FC0180818983C6
:1012400089E790E0FC0180818A838A81882F90E081
:10125000382F22278981882F90E0822B932B0F90A3
:101260000F900F90DF91CF910895A1E21A2EAA1B43
:10127000BB1BFD010DC0AA1FBB1FEE1FFF1FA21746
:10128000B307E407F50720F0A21BB30BE40BF50B43
:10129000661F771F881F991F1A9469F760957095CC
:1012A000809590959B01AC01BD01CF010895EE0F93
:1012B000FF1F0590F491E02D0994FC01019000209E
:1012C000E9F7809590958E0F9F1F0895F894FFCFB2
:1012D0000000E301200001000000004C04790563D8
:1012E00003C8038903230400000000410579054178
:1012F0000541054105410500000000410579050053
:00000001FF
