:100000000C9436010C945E010C945E010C945E011C
:100010000C945E010C945E010C945E010C945E01E4
:100020000C945E010C945E010C945E010C945E01D4
:100030000C945E010C945E010C945E010C945E01C4
:100040000C94A4150C945E010C94C10E0C941F0F1B
:100050000C945E010C945E010C945E010C945E01A4
:100060000C94F6060C945E010208060806080608C1
:100070000608060806080608140706080608060803
:1000800006080608060806081407060806080608F3
:1000900006080608060806081C07060806080608DB
:1000A00006080608060806084207060806080608A5
:1000B00006080608060806081C07060806080608BB
:1000C000060806080608060848070608060806087F
:1000D00006080608060806084E0706080608060869
:1000E0000608060806080608600706080608060847
:1000F00006080608060806088A070608060806080D
:100100000608060806080608540706080608060832
:1001100006080608060806086E0706080608060808
:1001200006080608060806088D07060806080608D9
:1001300006080608060806088D07060806080608C9
:1001400006080608060806088D07060806080608B9
:1001500006080608060806088D07060806080608A9
:100160000608060806080608960706080608060890
:100170000608060806080608C9070608060806084D
:100180000608060806080608960706080608060870
:100190000608060806080608C9070608060806082D
:1001A0000608060806080608AE0706080608060838
:1001B0000608060806080608CD0706080608060809
:1001C0000608060806080608CD07060806080608F9
:1001D0000608060806080608E207060806080608D4
:1001E0000608060806080608FC07060806080608AA
:1001F0000608060806080608FC0753656E642061B9
:100200006E792063686172616374657220746F2017
:10021000737461727420736B657463682E0A0000D6
:10022000000000250028002B00040404040404043A
:100230000402020202020203030303030301020495
:100240000810204080010204081020010204081058
:100250002000000007000201000003040600000067
:10026000000000000000F805930DE41211241FBEE9
:10027000CFEFD8E0DEBFCDBF14E0A0E0B1E0E6EA0A
:10028000F1E302C005900D92A439B107D9F726E039
:10029000A4E9B4E001C01D92AE33B207E1F712E069
:1002A000CCE6D2E004C02297FE010E94B018C63608
:1002B000D107C9F70E94290E0C94D1180C940000A4
:1002C000FC01608308950F93062F22E044E06BE168
:1002D000FC0180810E94D1040F9108950F93062F95
:1002E00022E044E06CE1FC0180810E94D1040F9186
:1002F00008954F925F926F927F928F929F92AF92EA
:10030000BF92CF92DF92EF92FF920F931F93CF9302
:10031000DF93EC013B014A0159012801009194044B
:10032000109195049C012F5F3F4F4EE06BE3888155
:100330000E949403898190E0982F88272A81822B3C
:10034000F301918380838B8190E0982F88272C8103
:10035000822BF401918380838D8190E0982F8827F0
:100360002E81822BF50191838083898590E0982FDF
:1003700088272A85822BF201918380838B8590E0E8
:10038000982F88272C85822BF701918380838D8578
:1003900090E0982F88272E85822BF6019183808309
:1003A000DF91CF911F910F91FF90EF90DF90CF9051
:1003B000BF90AF909F908F907F906F905F904F9085
:1003C0000895262F46E06BE6FC0180810E9496048A
:1003D00008950F93062F23E042E06BE6FC01808135
:1003E0000E94D1040F910895CF93DF93EC0161E057
:1003F0000E94E90160E0CE010E94630160E0CE014D
:100400000E946E0160E0CE010E94E101DF91CF9178
:100410000895EF92FF920F931F93CF93DF93EC0118
:10042000E0909404F09095048C010F5F1F4F26E03C
:1004300046E065E788810E9456048981DF91CF916B
:100440001F910F91FF90EF9008950E94090291E093
:10045000843309F090E0892F08950F931F93CF9371
:10046000DF93EC0100919404109195049C012F5F9F
:100470003F4F42E066E088810E949403898190E0CA
:10048000982F88272A81822BDF91CF911F910F917E
:100490000895AB0166E0FC0180810E94820308950B
:1004A0000F931F93CF93DF93EC010091940410916D
:1004B00095049C012F5F3F4F42E068E088810E94D5
:1004C0009403898190E0982F88272A81822BDF91DD
:1004D000CF911F910F910895AB0168E0FC018081DD
:1004E0000E94820308950F931F93CF93DF93EC0133
:1004F00000919404109195049C012F5F3F4F42E0BE
:100500006AE088810E949403898190E0982F88276F
:100510002A81822BDF91CF911F910F910895AB011A
:100520006AE0FC0180810E94820308950F931F936B
:10053000CF93DF93EC0100919404109195049C01FA
:100540002F5F3F4F42E063E188810E9494038981DD
:1005500090E0982F88272A81822BDF91CF911F91DD
:100560000F910895AB0163E1FC0180810E94820339
:1005700008950F931F93CF93DF93EC0100919404A0
:10058000109195049C012F5F3F4F42E065E1888107
:100590000E949403898190E0982F88272A81822BDA
:1005A000DF91CF911F910F910895AB0165E1FC019F
:1005B00080810E94820308950F931F93CF93DF934E
:1005C000EC0100919404109195049C012F5F3F4F22
:1005D00042E067E188810E949403898190E0982F2E
:1005E00088272A81822BDF91CF911F910F91089547
:1005F000AB0167E1FC0180810E9482030895FF92B4
:100600000F931F93CF93DF93C62F042FF22E132F38
:10061000682F86E994E00E94D7056C2F86E994E064
:100620000E947A05002359F0CF2DD12F10E0699157
:1006300086E994E00E947A051F5F1013F8CF86E9DF
:1006400094E00E94F40591E0811190E0892FDF9100
:10065000CF911F910F91FF900895CF93DF931F9239
:10066000CDB7DEB749839E012F5F3F4F41E00E9427
:10067000FF020F90DF91CF910895FF920F931F9388
:10068000CF93DF93162F042FE901682F86E994E0BA
:100690000E94D705612F86E994E00E947A0510E058
:1006A000000F111F10161106FCF4F12CEF2DF0E0D5
:1006B000EE0FFF1FEC0FFD1F618186E994E00E94A1
:1006C0007A05E1E0EF0DF0E0EE0FFF1FEC0FFD1FEC
:1006D000608186E994E00E947A05F394F3948F2D6B
:1006E00090E08017910714F386E994E00E94F405E6
:1006F00091E0811190E0892FDF91CF911F910F91AF
:10070000FF900895CF93DF9300D0CDB7DEB75A8323
:1007100049839E012F5F3F4F41E00E943D030F90B0
:100720000F90DF91CF9108952F923F924F925F9259
:100730006F927F928F929F92AF92BF92CF92DF92F1
:10074000EF92FF920F931F93CF93DF9300D000D0CF
:1007500000D0CDB7DEB7982E6983842E59010E9450
:1007600016166B017C01882009F45FC0212C312C06
:10077000882D90E09B838A832801612C712C8C82C8
:10078000692D86E994E00E94D705698186E994E0A5
:100790000E947A0586E994E00E94F405692D86E9B5
:1007A00094E00E94D7054A815B8142195109413288
:1007B000510514F040E250E0692D86E994E00E9472
:1007C000D3050FC0F501E30DF11D37FCFA95FE834B
:1007D000ED8386E994E00E942705ED81FE81808308
:1007E000339486E994E00E941F05892B81F001155E
:1007F000110541F30E941616DC01CB018C199D09ED
:10080000AE09BF0984159505A605B705D8F286E996
:1008100094E00E94F4058C81F0E2F81508F480E27F
:10082000280E281408F4ACCF01C0312C0115110595
:10083000C9F00E941616DC01CB018C199D09AE0986
:10084000BF0920E030E080179107A207B30750F0FE
:10085000912C832D992787FD90958815990514F47F
:1008600033243A94832D26960FB6F894DEBF0FBE3C
:10087000CDBFDF91CF911F910F91FF90EF90DF904F
:10088000CF90BF90AF909F908F907F906F905F9030
:100890004F903F902F9008950F931F9389019A01D5
:1008A00041E00E9494031F910F910895CF92DF922F
:1008B000EF92FF920F931F93CF93DF931F92CDB7C9
:1008C000DEB7C42ED22E9701AE014F5F5F4F0E945C
:1008D0004C04882309F14C2D50E04D1951094F5F0C
:1008E0005F4F61E070E09B0102C0220F331FDA947A
:1008F000E2F721503109042E02C0220F331F0A945F
:10090000E2F79981292330E0B90102C07595679516
:100910004A95E2F7F80160830F90DF91CF911F9124
:100920000F91FF90EF90DF90CF900895EF92FF929C
:100930000F931F93CF93DF931F92CDB7DEB7182F7E
:10094000062FF42EE22E2091940430919504AE01EE
:100950004F5F5F4F0E944C04EE2059F021E030E0E1
:10096000A90102C0440F551FFA94E2F78981482B70
:100970000BC021E030E0A90102C0440F551FFA94DA
:10098000E2F74095898148234983602F812F0E9497
:100990002D030F90DF91CF911F910F91FF90EF905A
:1009A0000895DF92EF92FF920F931F93CF93DF93FF
:1009B0001F92CDB7DEB7F82EE62ED42E122F20913F
:1009C000940430919504AE014F5F5F4F0E944C0438
:1009D000882359F14D2D50E0411B51094F5F5F4F66
:1009E00081E090E09C0102C0220F331F1A95E2F7CC
:1009F00021503109042E02C0220F331F0A94E2F75E
:100A000010E0C80102C0880F991F4A95E2F7AC01B7
:100A1000922F9095898189232423482F422B498343
:100A20006E2D8F2D0E942D0301C080E00F90DF916D
:100A3000CF911F910F91FF90EF90DF9008958091DB
:100A4000C60490E02091C704821B9109089520916B
:100A5000C7048091C604281750F4E22FF0E0E85351
:100A6000FB4F808190E02F5F2093C70408958FEFA4
:100A70009FEF0895E091C7048091C604E81730F411
:100A8000F0E0E853FB4F808190E008958FEF9FEFF7
:100A900008950895CF92DF92EF92FF920F931F93E4
:100AA000CF93DF938C017B016A018091A20488239C
:100AB00099F041155105A1F0EB01E40EF51E699185
:100AC000D801ED91FC910190F081E02DC8010995CC
:100AD000CE15DF05A1F704C0642FC7010E94C6062A
:100AE000C601DF91CF911F910F91FF90EF90DF90A2
:100AF000CF900895CF93DF931F92CDB7DEB7698370
:100B00002091A2042223E1F02091A304203240F09E
:100B100021E030E0FC013383228380E090E017C0C5
:100B20008091A404E82FF0E0EB55FB4F998190836E
:100B30008F5F8093A4048093A30481E090E007C0BA
:100B400061E0CE0101960E94C60681E090E00F9020
:100B5000DF91CF910895FC011382128248EE53E099
:100B600060E070E0448355836683778380E291E0A0
:100B70009183808308951092C7041092C604109246
:100B8000A4041092A3040E94FD050895862F41320B
:100B900008F040E268EC74E00E941B061092C70463
:100BA0008093C604089521E00E94C605089581E05F
:100BB0008093A2046093C5041092A4041092A3042D
:100BC00008950F93062F21E04091A30465EA74E095
:100BD0008091C5040E9469061092A4041092A30497
:100BE0001092A2040F91089561E00E94E10508951A
:100BF00086E994E00E94AB0508951092550581E0C6
:100C0000809353051092520561E082E10E94D21751
:100C100061E083E10E94D217E9EBF0E080818E7FF2
:100C2000808380818D7F808388E48093B80085E411
:100C30008093BC000895413208F045C0909155055D
:100C40009111FCCF91E090935505209353052FEF20
:100C50002093E80410922D05240F20932C059093E7
:100C6000540590915405880F892B809354058091E9
:100C70005205813051F410925205809154058093B1
:100C8000BB0085EC8093BC0003C085EE8093BC0064
:100C9000809155058130E1F380912D05841710F482
:100CA00040912D05442389F0EEE2F5E0A62FB72F01
:100CB0002FEF240F30E0215D3A4F91919D93E21781
:100CC000F307D9F704C080E00895842F0895842F96
:100CD00008950F93413208F050C09091550591113D
:100CE000FCCF92E090935505009353059FEF9093AE
:100CF000E80410922D0540932C05442369F0FB0174
:100D0000AEE2B5E06F5F7F4F4150640F711D91916E
:100D10009D93E617F707D9F7109254059091540563
:100D2000880F892B8093540580915205813051F4AE
:100D300010925205809154058093BB0085EC8093FE
:100D4000BC0003C085EE8093BC00222341F080915B
:100D50005505823021F4809155058230E1F3809170
:100D6000E8048F3F61F08091E804803251F0809177
:100D7000E804803341F483E007C081E005C080E0EF
:100D800003C082E001C084E00F9108956132A8F4AD
:100D900020915505243099F460930A05662389F063
:100DA000FC01ACE0B5E001966150860F911D2191E8
:100DB0002D93E817F907D9F706C081E0089582E07E
:100DC000089580E0089580E0089585ED8093BC004B
:100DD000ECEBF0E0808184FDFDCF10925505089585
:100DE00085EC8093BC001092550508951F920F92D8
:100DF0000FB60F9211242F933F934F935F936F93EE
:100E00007F938F939F93AF93BF93EF93FF938091C3
:100E1000B900887F90E0893C910508F0F7C0FC019B
:100E2000EC5CFF4F0C94AE18809154058093BB008E
:100E300085EC8093BC00EAC090912D0580912C0533
:100E4000981780F4E0912D0581E08E0F80932D0599
:100E5000F0E0E25DFA4F80818093BB0085EC8093E7
:100E6000BC00D4C080915305882319F00E94E50688
:100E7000CDC081E08093520584EA8093BC0010923B
:100E80005505C4C080E28093E8040E94E506BEC018
:100E900080E38093E8040E94E506B8C088E380936D
:100EA000E8040E94F006B2C0E0912D0581E08E0FAB
:100EB00080932D058091BB00F0E0E25DFA4F8083C6
:100EC00090912D0580912C05981720F485EC809346
:100ED000BC009CC085E88093BC0098C0E0912D05C3
:100EE00081E08E0F80932D058091BB00F0E0E25DE4
:100EF000FA4F808380915305882319F00E94E506FC
:100F000085C081E08093520584EA8093BC001092F2
:100F100055057CC00E94E50679C083E080935505A5
:100F20001092E90485EC8093BC0070C08091E904C4
:100F3000803280F4E091E90481E08E0F8093E9042F
:100F40008091BB00F0E0E651FB4F808385EC8093FD
:100F5000BC005CC085E88093BC0058C08091E90467
:100F6000803230F4E091E904F0E0E651FB4F10826A
:100F70000E94E5066091E90470E0E0914E05F09171
:100F80004F058AEE94E009951092E9040E94F0065C
:100F90003DC085E88093BC0039C084E0809355054E
:100FA00010920B0510920A05E0915005F091510541
:100FB000099580910A05811105C081E080930A0599
:100FC00010920C05E0910B0581E08E0F80930B05CC
:100FD000F0E0E45FFA4F80818093BB0090910B05B5
:100FE00080910A05981720F485EC8093BC000EC010
:100FF00085E88093BC000AC085EC8093BC00109209
:10100000550504C01092E8040E94E506FF91EF9197
:10101000BF91AF919F918F917F916F915F914F9110
:101020003F912F910F900FBE0F901F9018954F92E8
:101030005F926F927F928F929F92AF92BF92CF9268
:10104000DF92EF92FF920F931F93CF93DF93CDB771
:10105000DEB764970FB6F894DEBF0FBECDBF8091A8
:101060000A0190910B018B599F4F181619060CF429
:1010700018C14AC10F2EF0E7CF2EF5E0DF2EF02D7C
:101080000F2EF2E7EF2EF5E0FF2EF02D04E715E02E
:1010900026E735E048E755E06AE775E08CE795E03C
:1010A0000E94790125E682169104A104B1040CF492
:1010B00080C080910A0190910B018C599F4FAA2703
:1010C00097FDA095BA2F88159905AA05BB050CF4C4
:1010D00070C080917A0590917B05AA2797FDA09515
:1010E000BA2F29813A814B815C81280F391F4A1F11
:1010F0005B1F29833A834B835C83809178059091B1
:101100007905AA2797FDA095BA2F2D813E814F81A1
:101110005885280F391F4A1F5B1F2D833E834F833D
:1011200058878091760590917705AA2797FDA0951D
:10113000BA2F29853A854B855C85280F391F4A1FB0
:101140005B1F29873A874B875C8780917405909154
:101150007505AA2797FDA095BA2F2D853E854F8549
:101160005889280F391F4A1F5B1F2D873E874F87DD
:10117000588B8091720590917305AA2797FDA095D1
:10118000BA2F29893A894B895C89280F391F4A1F50
:101190005B1F298B3A8B4B8B5C8B809170059091F8
:1011A0007105AA2797FDA095BA2F480E591E6A1EF1
:1011B0007B1EC0900A01D0900B0196012C593F4F25
:1011C000C901AA2797FDA095BA2F88159905AA05E8
:1011D000BB0509F04AC0EE24D7FCE094FE2C6981DF
:1011E0007A818B819C81A70196010E948F18309390
:1011F0006F0520936E056D817E818F819885A70193
:1012000096010E948F1830936D0520936C056985B7
:101210007A858B859C85A70196010E948F18309353
:101220006B0520936A056D857E858F859889A7015A
:1012300096010E948F18309369052093680569898B
:101240007A898B899C89A70196010E948F18309317
:10125000670520936605C301B201A70196010E94AC
:101260008F1830936505209364053FEF831A930A26
:10127000A30AB30A62E070E080E090E00E94A11649
:1012800080910A0190910B018B599F4FAA2797FDDE
:10129000A095BA2F88169906AA06BB060CF4EACECA
:1012A00033C00F2EF0E7CF2EF5E0DF2EF02D0F2EFE
:1012B000F2E7EF2EF5E0FF2EF02D04E715E026E72C
:1012C00035E048E755E06AE775E08CE795E00E9475
:1012D0007901812C912C5401412C512C3201198A15
:1012E0001A8A1B8A1C8A1D861E861F86188A1986E2
:1012F0001A861B861C861D821E821F8218861982F2
:101300001A821B821C8255CF64960FB6F894DEBFFA
:101310000FBECDBFDF91CF911F910F91FF90EF9046
:10132000DF90CF90BF90AF909F908F907F906F9005
:101330005F904F9008956CE271E083E196E00E9427
:10134000B7136AE471E083E196E00E94B7136091FD
:101350006E0570916F054AE050E083E196E00E94CF
:10136000EC136DE172E083E196E00E94B7136091A7
:101370006C0570916D054AE050E083E196E00E94B3
:10138000EC136DE172E083E196E00E94B713609187
:101390006A0570916B054AE050E083E196E00E9497
:1013A000EC136DE172E083E196E00E94B713609167
:1013B0006805709169054AE050E083E196E00E947B
:1013C000EC136DE172E083E196E00E94B713609147
:1013D0006605709167054AE050E083E196E00E945F
:1013E000EC136DE172E083E196E00E94B713609127
:1013F0006405709165054AE050E083E196E00E9443
:10140000001508958F929F92AF92BF92CF92DF9274
:10141000EF92FF920F931F93CF93DF9362E871E0F7
:1014200083E196E00E94B71362EA71E083E196E0FF
:101430000E94B71360916005709161054AE050E029
:1014400083E196E00E94EC136DE172E083E196E0A7
:101450000E94B71360915E0570915F054AE050E00D
:1014600083E196E00E94EC136DE172E083E196E087
:101470000E94B71360915C0570915D054AE050E0F1
:1014800083E196E00E94EC136DE172E083E196E067
:101490000E94B71360915A0570915B054AE050E0D5
:1014A00083E196E00E94EC136DE172E083E196E047
:1014B0000E94B71360915805709159054AE050E0B9
:1014C00083E196E00E94EC136DE172E083E196E027
:1014D0000E94B71360915605709157054AE050E09D
:1014E00083E196E00E94001566EE71E083E196E0EC
:1014F0000E94B7138CE795E00E942D025C018CE7F7
:1015000095E00E9450026C018CE795E00E94730206
:101510007C018CE795E00E9496028C018CE795E0B7
:101520000E94B902EC018CE795E00E94DC024C01BC
:101530004AE050E0B50183E196E00E94EC136DE1D2
:1015400072E083E196E00E94B7134AE050E0B601F2
:1015500083E196E00E94EC136DE172E083E196E096
:101560000E94B7134AE050E0B70183E196E00E9481
:10157000EC136DE172E083E196E00E94B7134AE05C
:1015800050E0B80183E196E00E94EC136DE172E057
:1015900083E196E00E94B7134AE050E0BE0183E188
:1015A00096E00E94EC136DE172E083E196E00E9408
:1015B000B7134AE050E0B40183E196E00E940015C1
:1015C000DF91CF911F910F91FF90EF90DF90CF901F
:1015D000BF90AF909F908F900895EF92FF920F93DE
:1015E0001F93CF93DF9380916E0590916F05919536
:1015F000819591090AF40796959587959595879514
:1016000095958795909361058093600580916C0511
:1016100090916D059195819591090AF4079695959C
:101620008795959587959595879590935F05809378
:101630005E0580916A0590916B0520E030E4281BDF
:10164000390BC90199230CF40796959587959595C3
:1016500087959595879590935D0580935C0580911E
:101660006805909169059195819591090AF4039611
:10167000959587959595879590935B0580935A05E9
:1016800080916605909167059195819591090AF47D
:101690000396959587959595879590935905809391
:1016A0005805809164059091650591958195910902
:1016B0000AF4039695958795959587959093570588
:1016C00080935605EE24E394F12C00E010E0C0E096
:1016D000D0E460916005709161058CE795E00E940F
:1016E000490260915E0570915F058CE795E00E946C
:1016F0006C0260915C0570915D058CE795E00E943D
:101700008F0260915A0570915B058CE795E00E940D
:10171000B20260915805709159058CE795E00E94DE
:10172000D50260915605709157058CE795E00E94AF
:10173000F8020E9417086EE372E083E196E00E94CF
:10174000D7140E949B090E94020A80916E05909115
:101750006F05E0910801F09109019C01992324F49F
:1017600022273327281B390BE217F30784F4BF0124
:101770000E9459188091600590916105861B970B16
:101780009093610580936005202F312F02C02E2D8C
:101790003F2D80916C0590916D05AC01992324F447
:1017A00044275527481B590BE417F5071CF02F5FFA
:1017B0003F4F0DC0BF010E94591880915E05909166
:1017C0005F05861B970B90935F0580935E054091A4
:1017D0006A0550916B05CE01841B950B18161906EE
:1017E00014F0505401C0AC01E417F5071CF02F5F52
:1017F0003F4F0DC0BF010E94591880915C05909128
:101800005D05680F791F70935D0560935C0580919D
:10181000680590916905E0910601F0910701AC011E
:10182000992324F444275527481B590BE417F5073F
:101830001CF02F5F3F4F0FC0BF016F5F7F4F0E94B3
:10184000591880915A0590915B05861B970B9093D0
:101850005B0580935A058091660590916705AC0100
:10186000992324F444275527481B590BE417F507FF
:101870001CF02F5F3F4F0FC0BF016F5F7F4F0E9473
:1018800059188091580590915905861B970B909394
:101890005905809358058091640590916505AC01C8
:1018A000992324F444275527481B590BE417F507BF
:1018B0001CF02F5F3F4F0FC0BF016F5F7F4F0E9433
:1018C00059188091560590915705861B970B909358
:1018D0005705809356052630310509F0FACEDF9181
:1018E000CF911F910F91FF90EF9008958091620525
:1018F00090916305892BB9F46FE172E083E196E082
:101900000E94D7140E941708809162059091630588
:101910000196909363058093620568EE73E080E022
:1019200090E00E94A1168091620590916305019755
:10193000B9F462E472E083E196E00E94D7140E9459
:10194000ED0A80916205909163050196909363057D
:101950008093620568EE73E080E090E00E94A1163B
:101960008091620590916305029709F0DBC00E94A7
:1019700017086AE572E083E196E00E94D71465E6F5
:1019800072E083E196E00E94B71360916E0570915A
:101990006F054AE050E083E196E00E94EC136DE1B0
:1019A00072E083E196E00E94B71360916C0570913C
:1019B0006D054AE050E083E196E00E94EC136DE192
:1019C00072E083E196E00E94B71360916A0570911E
:1019D0006B054AE050E083E196E00E94EC136DE174
:1019E00072E083E196E00E94B71360916805709100
:1019F00069054AE050E083E196E00E94EC136DE156
:101A000072E083E196E00E94B713609166057091E1
:101A100067054AE050E083E196E00E94EC136DE137
:101A200072E083E196E00E94B713609164057091C3
:101A300065054AE050E083E196E00E94001565E804
:101A400072E083E196E00E94B713609160057091A7
:101A500061054AE050E083E196E00E94EC136DE1FD
:101A600072E083E196E00E94B71360915E05709189
:101A70005F054AE050E083E196E00E94EC136DE1DF
:101A800072E083E196E00E94B71360915C0570916B
:101A90005D054AE050E083E196E00E94EC136DE1C1
:101AA00072E083E196E00E94B71360915A0570914D
:101AB0005B054AE050E083E196E00E94EC136DE1A3
:101AC00072E083E196E00E94B7136091580570912F
:101AD00059054AE050E083E196E00E94EC136DE185
:101AE00072E083E196E00E94B71360915605709111
:101AF00057054AE050E083E196E00E94001564E952
:101B000072E083E196E00E94D7146DEC72E083E10D
:101B100096E00E94D7146AE073E083E196E00E94A9
:101B2000D714FFCF089568E68CE795E00E94600126
:101B3000089586E994E00E94BB0588E18093B8008F
:101B400040E052EC61E070E083E196E00E94081012
:101B50008CE795E00E94F40183E196E00E94131166
:101B6000892B99F083E196E00E947811892BA1F7E7
:101B70000CC06AEF71E083E196E00E948B146CED7B
:101B800075E080E090E00E94A11683E196E00E945B
:101B90001311892B71F383E196E00E941311892BB5
:101BA00031F083E196E00E947811892BA1F767ED6F
:101BB00073E083E196E00E94D71460ED77E080E067
:101BC00090E00E94A11663EF73E083E196E00E942B
:101BD000D71468EB7BE080E090E00E94A1168CE7D0
:101BE00095E00E942502882319F06FE973E002C096
:101BF0006DEB73E083E196E00E94D71468EE73E02A
:101C000080E090E00E94A11660E070E08CE795E033
:101C10000E94490260E070E08CE795E00E946C024F
:101C200060E070E08CE795E00E948F0260E070E079
:101C30008CE795E00E94B20260E070E08CE795E0EE
:101C40000E94D50260E070E08CE795E00E94F80207
:101C500008950E94E4160E94990D0E94760C8CE073
:101C60009FE0892B29F00E940C0F0E94760CFBCF7D
:101C70000E94760CFDCFCF93DF9300D0CDB7DEB7B7
:101C80009A83898389819A812FE834E0FC0131832A
:101C9000208389819A81FC01138212820F900F9018
:101CA000DF91CF910895CF93DF9300D0CDB7DEB70A
:101CB0009A83898389819A810E943B0E89819A81C6
:101CC00020E131E0FC013183208329813A8188EED3
:101CD00093E0A0E0B0E0F90184839583A683B78305
:101CE0000F900F90DF91CF910895CF93DF9300D0A5
:101CF00000D01F92CDB7DEB78B837D836C838C8140
:101D00009D81805C9F4FFC018081918101968F7342
:101D100099279A83898329813A818C819D818E5B61
:101D20009F4FFC018081918141E02817390709F418
:101D300040E04423B9F08C819D81805C9F4FFC0181
:101D4000808191812C813D81820F931F2B81FC0129
:101D5000208329813A818C819D81805C9F4FFC0189
:101D6000318320830F900F900F900F900F90DF9191
:101D7000CF910895CF93DF93CDB7DEB7DF91CF91A9
:101D800008951F920F9200905F000F9211242F93DD
:101D90003F934F935F936F937F938F939F93AF93F3
:101DA000BF93EF93FF93CF93DF9300D0CDB7DEB710
:101DB00080EC90E0FC018081882F90E0847099276E
:101DC00021E0009709F020E0222359F086EC90E012
:101DD000FC01808189836BE875E089810E94750E22
:101DE00005C086EC90E0FC0180818A830F900F9003
:101DF000DF91CF91FF91EF91BF91AF919F918F9123
:101E00007F916F915F914F913F912F910F90009231
:101E10005F000F901F901895CF93DF93CDB7DEB77B
:101E200083E196E00E94131121E0009709F420E07D
:101E3000222311F00E94BA0EDF91CF9108951F92D4
:101E40000F9200905F000F9211242F933F934F93B6
:101E50008F939F93EF93FF93CF93DF931F92CDB711
:101E6000DEB720910F0630911006809111069091F7
:101E7000120641E02817390709F040E0442351F0E9
:101E800081EC90E021EC30E0F90120812F7DFC0114
:101E9000208319C0809111069091120681539A4FA8
:101EA000FC01808189838091110690911206019630
:101EB0008F739927909312068093110686EC90E019
:101EC0002981FC0120830F90DF91CF91FF91EF9149
:101ED0009F918F914F913F912F910F9000925F00B2
:101EE0000F901F9018958F929F92AF92BF92CF92B2
:101EF000DF92EF92FF920F931F93CF93DF93CDB7B3
:101F0000DEB762970FB6F894DEBF0FBECDBF9A83DF
:101F100089837C836B835E834D8338872F831A8705
:101F20000987FC86EB86DE86CD86B88AAF869A8ADC
:101F3000898A89819A810E94530E89819A812FE72B
:101F400034E0FC013183208389819A812B813C819B
:101F5000FC013587248789819A812D813E81FC018E
:101F60003787268789819A812F813885FC01318BBB
:101F7000208B89819A8129853A85FC01338B228BBC
:101F800089819A812B853C85FC01358B248B898145
:101F90009A812D853E85FC01378B268B89819A811C
:101FA0002F853889FC01318F208F89819A81298979
:101FB0003A89FC01338F228F89819A8129A1FC0102
:101FC000248F89819A812AA1FC01258F89819A8198
:101FD0002BA1FC01268F89819A812CA1FC01278FDE
:101FE00089819A812DA1FC0120A362960FB6F894F5
:101FF000DEBF0FBECDBFDF91CF911F910F91FF903C
:10200000EF90DF90CF90BF90AF909F908F9008950A
:10201000CF93DF93CDB7DEB761970FB6F894DEBFED
:102020000FBECDBF9D838C834E835F836887798786
:1020300081E08B838E819F81A885B985811521EEF2
:102040009207A105B10509F41B828B81882361F1F8
:102050008C819D81FC01848995892C813D81F901C8
:1020600020A1422F50E021E030E002C0220F331FB8
:102070004A95E2F7FC01208380E099E0ADE3B0E00F
:102080002E813F8148855985BC01CD010E946D1884
:10209000DA01C9010197A109B109B695A7959795EC
:1020A00087959A8389831EC08C819D81FC018489D8
:1020B0009589FC01108280E894E8AEE1B0E02E81C1
:1020C0003F8148855985BC01CD010E946D18DA0118
:1020D000C9010197A109B109B695A795979587956B
:1020E0009A83898389819A818115F0E19F0728F07D
:1020F0008B81882311F01B82A8CF8C819D81FC01EC
:102100008089918929813A81232F3327FC012083FB
:102110008C819D81FC01828993892981FC01208326
:102120008C819D81FC0111A28C819D81FC0186899D
:1021300097892C813D81F90126893789F901208110
:10214000622F2C813D81F901248D422F50E021E046
:1021500030E002C0220F331F4A95E2F7262BFC0124
:1021600020838C819D81FC01868997892C813D810A
:10217000F90126893789F9012081622F2C813D815F
:10218000F901258D422F50E021E030E002C0220FFE
:10219000331F4A95E2F7262BFC0120838C819D8119
:1021A000FC01868997892C813D81F901268937892F
:1021B000F9012081622F2C813D81F901268D422F6A
:1021C00050E021E030E002C0220F331F4A95E2F7D1
:1021D000262BFC0120838C819D81FC0186899789B7
:1021E0002C813D81F90126893789F9012081622FEF
:1021F0002C813D81F901278D422F50E021E030E014
:10220000042E02C0220F331F0A94E2F720952623E2
:10221000FC01208361960FB6F894DEBF0FBECDBFE0
:10222000DF91CF910895CF93DF9300D0CDB7DEB784
:102230009A83898389819A81FC0184859585805C54
:102240009F4FFC012081318189819A81FC01848525
:1022500095858E5B9F4FFC0180819181A901481B70
:10226000590BCA018F7399270F900F90DF91CF916F
:102270000895CF93DF9300D0CDB7DEB79A838983DB
:1022800089819A81FC0184859585805C9F4FFC0142
:102290002081318189819A81FC01848595858E5BBD
:1022A0009F4FFC018081918141E02817390709F097
:1022B00040E0442319F08FEF9FEF15C089819A8188
:1022C000FC012485358589819A81FC018485958569
:1022D0008E5B9F4FFC0180819181820F931FFC01D7
:1022E0008081882F90E00F900F90DF91CF9108951B
:1022F000CF93DF9300D01F92CDB7DEB79B838A8345
:102300008A819B81FC0184859585805C9F4FFC01BF
:10231000208131818A819B81FC01848595858E5B3A
:102320009F4FFC018081918141E02817390709F016
:1023300040E0442319F08FEF9FEF2FC08A819B81EB
:10234000FC01248535858A819B81FC0184859585E6
:102350008E5B9F4FFC0180819181820F931FFC0156
:10236000808189838A819B81FC01848595852A816E
:102370003B81F901248535852E5B3F4FF901208192
:1023800031812F5F3F4F2F7333278E5B9F4FFC01AF
:10239000318320838981882F90E00F900F900F90D8
:1023A000DF91CF910895CF93DF9300D0CDB7DEB703
:1023B0009A838983000089819A81FC0181A1882305
:1023C00079F089819A81FC0184899589FC01808159
:1023D000882F90E080749927009711F481E001C064
:1023E00080E0882341F789819A81FC0111A20F9036
:1023F0000F90DF91CF910895CF93DF9300D000D05D
:102400001F92CDB7DEB79C838B836D838B819C81BC
:10241000FC0186859785805C9F4FFC0180819181BE
:1024200001968F7399279A838983000029813A81C5
:102430008B819C81FC01868597858E5B9F4FFC017B
:102440008081918141E02817390709F040E0442359
:1024500069F78B819C81FC01268537858B819C8166
:10246000FC0186859785805C9F4FFC01808191816E
:10247000820F931F2D81FC0120838B819C81FC01A5
:102480008685978529813A81805C9F4FFC01318345
:1024900020838B819C81FC01868997892B813C81DB
:1024A000F90126893789F9012081622F2B813C812E
:1024B000F901278D422F50E021E030E0042E02C0C8
:1024C000220F331F0A94E2F7262BFC0120838B8115
:1024D0009C8121E0FC0121A38B819C81FC018489EA
:1024E00095892B813C81F90124893589F901208165
:1024F0002064FC01208381E090E00F900F900F900A
:102500000F900F90DF91CF9108958F929F92AF928D
:10251000BF92CF92DF92EF92FF920F931F93CF93D0
:10252000DF9300D000D0CDB7DEB79A8389837C8358
:102530006B8389819A8181309105A9F58B819C817A
:102540008F3F2FEF920779F581E08F9385E08F938E
:1025500087E08F9383E08F9384E08F930F2EF6ECC8
:102560008F2E912CF02D0F2EF2ECAF2EB12CF02DE2
:102570000F2EF1ECCF2ED12CF02D0F2EF0ECEF2EF4
:10258000F12CF02D04EC10E025EC30E04FEC55E0A0
:102590006BE875E083E196E00E94730F0F900F9057
:1025A0000F900F900F900F900F900F900F90DF9162
:1025B000CF911F910F91FF90EF90DF90CF90BF9040
:1025C000AF909F908F900895CF93DF93CDB7DEB7F4
:1025D0006FEF7FEF81E090E00E948512DF91CF9155
:1025E0000895CF93DF93CDB7DEB7DF91CF910895F4
:1025F0000F931F93CF93DF9300D000D0CDB7DEB7FA
:102600009A8389837C836B838B819C81009719F4E7
:1026100080E090E015C089819A81FC0180819181E0
:102620000296FC01008111818B819C810E94C81857
:10263000AC012B813C8189819A81B901F80109950E
:102640000F900F900F900F90DF91CF911F910F91EE
:102650000895CF93DF93CDB7DEB728970FB6F894E0
:10266000DEBF0FBECDBF9C838B837E836D83588777
:102670004F831A8219821CC08B819C81FC0180814E
:102680009181FC01208131818D819E81AC014F5F60
:102690005F4F5E834D83FC0140818B819C81642F61
:1026A000F901099529813A81820F931F9A838983C1
:1026B0008F8198859C012150310938872F8321E033
:1026C000009709F420E02223B9F689819A8128969F
:1026D0000FB6F894DEBF0FBECDBFDF91CF91089546
:1026E000CF93DF93CDB7DEB72C970FB6F894DEBF4C
:1026F0000FBECDBF9A8789877C876B878B859C852A
:102700009A8389831C821B8289819A819C012F5F15
:102710003F4F3A8329839E838D838D819E81FC0167
:1027200084918F838F8188878885882309F414C0DA
:1027300089859A85FC0180819181FC01208131810C
:1027400089859A856885F90109952B813C81820FDD
:10275000931F9C838B83D8CF8B819C812C960FB643
:10276000F894DEBF0FBECDBFDF91CF910895CF9318
:10277000DF9300D000D0CDB7DEB79A8389837C8306
:102780006B832B813C8189819A81B9010E94F81267
:102790000F900F900F900F90DF91CF910895CF93EE
:1027A000DF9300D01F92CDB7DEB79A8389836B8306
:1027B00089819A81FC0180819181FC012081318194
:1027C0004B8189819A81642FF90109950F900F90AF
:1027D0000F90DF91CF910895CF93DF9300D000D079
:1027E00000D0CDB7DEB79A8389837C836B835E8309
:1027F0004D838B819C81AA2797FDA095BA2F2D81AF
:102800003E81E981FA81AC01BD01CF010E94111422
:1028100026960FB6F894DEBF0FBECDBFDF91CF91E5
:102820000895CF93DF93CDB7DEB72A970FB6F8940C
:10283000DEBF0FBECDBF9C838B834D835E836F83D2
:1028400078873A87298789859A85009779F48B81DB
:102850009C81FC0180819181FC01208131814D812D
:102860008B819C81642FF90109954CC089859A85DB
:102870008A309105D9F58D819E81AF81B885BB23C2
:1028800044F58B819C816DE20E94CF139A838983EA
:102890008D819E81AF81B885B095A09590958195E9
:1028A0009F4FAF4FBF4F8D839E83AF83B8878D817E
:1028B0009E81AF81B885EB81FC812AE0AC01BD012E
:1028C000CF010E9430159C0189819A81820F931F4C
:1028D00019C08D819E81AF81B885EB81FC812AE092
:1028E000AC01BD01CF010E9430150CC029858D813E
:1028F0009E81AF81B885EB81FC81AC01BD01CF0128
:102900000E9430152A960FB6F894DEBF0FBECDBFD9
:10291000DF91CF910895CF93DF9300D000D000D006
:10292000CDB7DEB79C838B837E836D832D813E8103
:102930008B819C81B9010E9470139A8389838B815A
:102940009C810E94B41429813A81820F931F9A833B
:10295000898389819A8126960FB6F894DEBF0FBECF
:10296000CDBFDF91CF910895CF93DF9300D000D0FA
:10297000CDB7DEB79C838B838B819C816DE00E94F9
:10298000CF139A8389838B819C816AE00E94CF1345
:1029900029813A81820F931F9A83898389819A8141
:1029A0000F900F900F900F90DF91CF910895CF93DC
:1029B000DF9300D000D000D0CDB7DEB79C838B83EF
:1029C0007E836D832D813E818B819C81B9010E9424
:1029D000B7139A8389838B819C810E94B4142981C7
:1029E0003A81820F931F9A83898389819A812696DF
:1029F0000FB6F894DEBF0FBECDBFDF91CF91089523
:102A0000CF93DF93CDB7DEB728970FB6F894DEBF2C
:102A10000FBECDBF9C838B837E836D8358874F838E
:102A20004F8158852D813E818B819C81B9010E9407
:102A3000EC139A8389838B819C810E94B414298131
:102A40003A81820F931F9A83898389819A8128967C
:102A50000FB6F894DEBF0FBECDBFDF91CF910895C2
:102A6000CF93DF93CDB7DEB7E3970FB6F894DEBF11
:102A70000FBECDBF9AA789A74BA75CA76DA77EA75E
:102A80002FA780E290E09E01285F3F4F820F931FA7
:102A90009A83898389819A81FC0110828FA5823073
:102AA00010F48AE08FA78BA59CA5ADA5BEA58B834E
:102AB0009C83AD83BE838FA5282F30E040E050E09B
:102AC0008BA59CA5ADA5BEA5BC01CD010E946D182E
:102AD000DA01C9018BA79CA7ADA7BEA79B812BA537
:102AE0008FA5289F802D1124F92FF81B8F2F8F83FE
:102AF00089819A8101979A8389838F818A3024F40E
:102B00008F81805D282F03C08F81895C282F898168
:102B10009A81FC0120838BA59CA5ADA5BEA500973D
:102B2000A105B10509F0BFCF29813A8189A59AA5F0
:102B3000B9010E94F812E3960FB6F894DEBF0FBEFB
:102B4000CDBFDF91CF9108951F920F9200905F004B
:102B50000F9211248F939F93AF93BF93CF93DF93E3
:102B6000CDB7DEB72597DEBFCDBF809139069091F6
:102B70003A06A0913B06B0913C0689839A83AB83C9
:102B8000BC8380913D068D8389819A81AB81BC8114
:102B90000196A11DB11D89839A83AB83BC838D816E
:102BA0008D5F8D838D818D3770F08D818D578D83F5
:102BB00089819A81AB81BC810196A11DB11D898358
:102BC0009A83AB83BC838D8180933D0689819A81F2
:102BD000AB81BC818093390690933A06A0933B0663
:102BE000B0933C068091350690913606A091370649
:102BF000B09138060196A11DB11D809335069093C2
:102C00003606A0933706B09338060F900F900F90BA
:102C10000F900F90DF91CF91BF91AF919F918F91C6
:102C20000F9000925F000F901F901895CF93DF9345
:102C300000D000D01F92CDB7DEB78FE590E0FC0149
:102C400080818983F8948091390690913A06A09109
:102C50003B06B0913C068A839B83AC83BD838FE5A2
:102C600090E02981FC0120838A819B81AC81BD8118
:102C7000BC01CD010F900F900F900F900F90DF913E
:102C8000CF910895CF93DF9300D000D000D0CDB77F
:102C9000DEB78FE590E0FC0180818D83F894809110
:102CA000350690913606A0913706B0913806898393
:102CB0009A83AB83BC8386E490E0FC0180818E83A1
:102CC00085E390E0FC018081882F90E08170992756
:102CD000009771F08E818F3F59F089819A81AB8185
:102CE000BC810196A11DB11D89839A83AB83BC83EE
:102CF0008FE590E02D81FC01208389819A81AB8151
:102D0000BC812227382F492F5A2F8E81882F90E09F
:102D1000A0E0B0E0820F931FA41FB51F880F991F7A
:102D2000AA1FBB1F880F991FAA1FBB1FBC01CD0183
:102D300026960FB6F894DEBF0FBECDBFDF91CF91C0
:102D40000895CF93DF9300D000D000D0CDB7DEB789
:102D50006B837C838D839E830E944216DC01CB01B2
:102D60009A83898320C00E944216DC01CB019C011A
:102D700089819A81A901481B590BCA01883E53E0F9
:102D8000950788F08B819C81AD81BE810197A10957
:102D9000B1098B839C83AD83BE8389819A818851DD
:102DA0009C4F9A8389838B819C81AD81BE810097E2
:102DB000A105B105C1F626960FB6F894DEBF0FBE89
:102DC000CDBFDF91CF910895CF93DF93CDB7DEB71D
:102DD000789484E490E024E430E0F90120812260DA
:102DE000FC01208384E490E024E430E0F9012081B8
:102DF0002160FC01208385E490E025E430E0F901C6
:102E000020812260FC01208385E490E025E430E00D
:102E1000F90120812160FC0120838EE690E02EE6FE
:102E200030E0F90120812160FC01208381E890E0FD
:102E3000FC01108281E890E021E830E0F901208176
:102E40002260FC01208381E890E021E830E0F90174
:102E500020812160FC01208380E890E020E830E0C0
:102E6000F90120812160FC01208381EB90E021EBBE
:102E700030E0F90120812460FC01208380EB90E0A8
:102E800020EB30E0F90120812160FC0120838AE7FA
:102E900090E02AE730E0F90120812460FC012083E2
:102EA0008AE790E02AE730E0F90120812260FC0106
:102EB00020838AE790E02AE730E0F9012081216051
:102EC000FC0120838AE790E02AE730E0F9012081C5
:102ED0002068FC01208381EC90E0FC011082DF91EE
:102EE000CF910895CF93DF931F92CDB7DEB789833B
:102EF0008981882F90E083309105A1F0843091057D
:102F00003CF48130910511F18230910549F146C0C0
:102F10008630910579F187309105B1F184309105C2
:102F200059F03CC080E890E020E830E0F9012081D1
:102F30002F77FC01208332C080E890E020E830E069
:102F4000F90120812F7DFC01208328C084E490E0DA
:102F500024E430E0F90120812F77FC0120831EC09A
:102F600084E490E024E430E0F90120812F7DFC012D
:102F7000208314C080EB90E020EB30E0F901208149
:102F80002F77FC0120830AC080EB90E020EB30E03B
:102F9000F90120812F7DFC01208300000F90DF913B
:102FA000CF910895CF93DF93CDB7DEB765970FB676
:102FB000F894DEBF0FBECDBF8C8B6D8B8C89882FB4
:102FC00090E08F5A9D4F9A83898389819A81FC0171
:102FD00084918B838B818C838C89882F90E0835C98
:102FE0009D4F9E838D838D819E81FC0184918F8373
:102FF0008F8188878C89882F90E0875D9D4F9A8785
:10300000898789859A85FC0184918B878B858C873C
:103010008C85882309F444C08C81882319F08C8125
:103020000E9472178C85882F90E0880F991F815E0F
:103030009D4F9E878D878D859E85FC0125913491BE
:10304000CF01388B2F879E878D878F8598899A8BA4
:10305000898B8FE590E0FC0180818B8BF8948D89C2
:10306000882371F489899A89FC018081982F888549
:1030700080958923282F89899A89FC0120830BC098
:1030800089899A89FC0190818885292F282B898933
:103090009A89FC0120838FE590E02B89FC01208335
:1030A00065960FB6F894DEBF0FBECDBFDF91CF910E
:1030B000089597FB072E16F4009407D077FD09D0EA
:1030C0000E94B41807FC05D03EF4909581959F4F5F
:1030D0000895709561957F4F0895A1E21A2EAA1B5D
:1030E000BB1BFD010DC0AA1FBB1FEE1FFF1FA217B8
:1030F000B307E407F50720F0A21BB30BE40BF50BB5
:10310000661F771F881F991F1A9469F7609570953D
:10311000809590959B01AC01BD01CF010895052ECE
:1031200097FB1EF400940E94A61857FD07D00E943A
:103130006D1807FC03D04EF40C94A61850954095DA
:10314000309521953F4F4F4F5F4F08959095809553
:10315000709561957F4F8F4F9F4F0895EE0FFF1F22
:103160000590F491E02D0994AA1BBB1B51E107C007
:10317000AA1FBB1FA617B70710F0A61BB70B881F07
:10318000991F5A95A9F780959095BC01CD01089596
:10319000FC0101900020E9F7809590958E0F9F1F0C
:0631A0000895F894FFCF32
:1031A60000003E06200001000800E80300000000C1
:1031B600F1122913F112F112F112F11200000000BE
:1031C6007A054A051F0527053A0549050A4375721A
:1031D60072656E742056616C7565206F6620746822
:1031E60065206D65616E733A09000A6D65616E5FF3
:1031F60061782C206D65616E5F61792C206D65614B
:103206006E5F617A2C206D65616E5F67782C206D2C
:1032160065616E5F67792C206D65616E5F677A3ACE
:103226000A000A43757272656E742056616C756584
:10323600206F6620746865206F6666736574733ADE
:1032460009000A61785F6F66667365742C20617980
:103256005F6F66667365742C20617A5F6F6666734E
:1032660065742C2067785F6F66667365742C2067BB
:10327600795F6F66667365742C20677A5F6F666622
:103286007365743A0A000A43757272656E74205645
:10329600616C7565206F6620746865206F6666735D
:1032A60065747320286173207265706F727465642B
:1032B60020627920746865204D5055293A09000A24
:1032C60052656164696E672073656E736F727320F1
:1032D600666F722066697273742074696D652E2E2E
:1032E6002E000A43616C63756C6174696E67206FAA
:1032F6006666736574732E2E2E000A46494E495330
:1033060048454421000A53656E736F7220726561E9
:1033160064696E67732077697468206F6666736583
:1033260074733A0900596F7572206F666673657417
:10333600733A09000A4461746120697320707269E6
:103346006E7465642061733A206163656C58206110
:1033560063656C59206163656C5A206769726F58A2
:10336600206769726F59206769726F5A00436865F2
:10337600636B207468617420796F75722073656E53
:10338600736F722072656164696E6773206172651E
:1033960020636C6F736520746F20302030203136C7
:1033A6003338342030203020300049662063616C89
:1033B6006962726174696F6E2077617320737563D9
:1033C60063657366756C20777269746520646F77C0
:1033D6006E20796F7572206F6666736574732073DD
:1033E6006F20796F752063616E2073657420746831
:1033F600656D20696E20796F75722070726F6A65CF
:10340600637473207573696E6720736F6D65746876
:10341600696E672073696D696C617220746F206DC7
:1034260070752E73657458416363656C4F66667379
:10343600657428796F75726F666673657429004DB9
:1034460050553630353020636F6E6E656374696F24
:103456006E207375636365737366756C004D5055A6
:103466003630353020636F6E6E656374696F6E201B
:103476006661696C6564000A4D50553630353020FA
:1034860043616C6962726174696F6E20536B657417
:103496006368000A596F7572204D505536303530C5
:1034A6002073686F756C6420626520706C6163655B
:1034B6006420696E20686F72697A6F6E74616C2021
:1034C600706F736974696F6E2C20776974682070E9
:1034D60061636B616765206C6574746572732066E1
:1034E6006163696E672075702E200A446F6E2774BB
:1034F60020746F75636820697420756E74696C201A
:10350600796F752073656520612066696E697368D9
:10351600206D6573736167652E0A0000000000FC6C
:10352600112913131178113911D31100000000F17C
:043536001229130043
:00000001FF
