S017000050574D4D6F746F72436F6E74726F6C2E7372656327
S11300000C943E010C9466010C9466010C946601F8
S11300100C9466010C9466010C9466010C946601C0
S11300200C9466010C9407030C9466010C9466010D
S11300300C9466010C9466010C9466010C946601A0
S11300400C94A90B0C9466010C94A1050C94FF0567
S11300500C9466010C9466010C9466010C94660180
S11300600C94FA030C946601D5012B0202021002CF
S1130070D0012B022B022B022B022B0215022B0286
S11300802B022B022B022B021E02BA012B02DA01D5
S11300902B022B02270206050A050A050A050A0592
S11300A00A050A050A0518040A050A050A050A05C7
S11300B00A050A050A0518040A050A050A050A05B7
S11300C00A050A050A0520040A050A050A050A059F
S11300D00A050A050A0546040A050A050A050A0569
S11300E00A050A050A0520040A050A050A050A057F
S11300F00A050A050A054C040A050A050A050A0543
S11301000A050A050A0552040A050A050A050A052C
S11301100A050A050A0564040A050A050A050A050A
S11301200A050A050A058E040A050A050A050A05D0
S11301300A050A050A0558040A050A050A050A05F6
S11301400A050A050A0572040A050A050A050A05CC
S11301500A050A050A0591040A050A050A050A059D
S11301600A050A050A0591040A050A050A050A058D
S11301700A050A050A0591040A050A050A050A057D
S11301800A050A050A0591040A050A050A050A056D
S11301900A050A050A059A040A050A050A050A0554
S11301A00A050A050A05CD040A050A050A050A0511
S11301B00A050A050A059A040A050A050A050A0534
S11301C00A050A050A05CD040A050A050A050A05F1
S11301D00A050A050A05B2040A050A050A050A05FC
S11301E00A050A050A05D1040A050A050A050A05CD
S11301F00A050A050A05D1040A050A050A050A05BD
S11302000A050A050A05E6040A050A050A050A0597
S11302100A050A050A0500050A050A050A050A056C
S11302200A050A050A05000500000000240027004D
S11302302A0000000000250028002B000404040408
S1130240040404040202020202020303030303037C
S11302500102040810204080010204081020010259
S11302600408102000000007000201000003040637
S11302700000000000000000C503C40911241FBED3
S1130280CFEFD8E0DEBFCDBF11E0A0E0B1E0EAE5FA
S1130290F3E202C005900D92AC36B107D9F722E023
S11302A0ACE6B1E001C01D92A93EB207E1F712E04D
S11302B0CCE7D2E004C02297FE010E94CD0EC837DD
S11302C0D107C9F70E94D1090C94AB110C9400001A
S11302D040E855E260E070E08EEB92E00E94E806B0
S11302E00E94830208956F927F928F929F92AF92A1
S11302F0BF92CF92DF92EF92FF920F931F93CF930F
S1130300DF93CDB7DEB7C456D1090FB6F894DEBF7C
S11303100FBECDBF8EE00E94A90CAA24A394B12CD9
S11303200F2EF3E1EF2EF1E0FF2EF02D8E010F5F83
S11303301F4FCA2CDB2C802E912E66246A94712CBC
S1130340C4C08EEB92E00E94580880937201682F1B
S11303508EEB92E00E94790A8091720190E0FC0198
S1130360E256F109E731F10508F075C0EC5CFF4F86
S11303700C94CB0E69E071E08EEB92E00E94610A6E
S1130380609106017091070180E090E00E94BA023A
S11303904AE050E0BC018EEB92E00E94960A5BC0FA
S11303A0C0926E01D0926F0156C010926F011092EC
S11303B06E0151C0809107018F93809106018F9344
S11303C0FF92EF921F930F930E94DA0E682D792DFE
S11303D08EEB92E00E94610A8091060190910701E0
S11303E00A960F900F900F900F900F900F908F3FE1
S11303F0910519F014F0862D972D909307018093A1
S1130400060129C080910601909107010A9799235A
S113041014F480E090E090930701809306011BC0E0
S1130420109207011092060116C0109271011092E9
S1130430700110926D0110926C010DC0C092700198
S1130440D092710110926D0110926C0104C0C0929F
S11304506C01D0926D0160916E0170916F01809179
S11304607001909171010E94D00260910601709117
S1130470070180917001909171010E94BA028091EC
S11304806C0190916D01892B01F160916E01709165
S11304906F018A2D9B2D2091700130917101232BC6
S11304A011F080E090E00E94D0026091060170910A
S11304B007018A2D9B2D2091700130917101232B0E
S11304C011F080E090E00E94BA028EEB92E00E946C
S11304D0F307181619060CF434CFCC59DF4F0FB6B6
S11304E0F894DEBF0FBECDBFDF91CF911F910F9166
S11304F0FF90EF90DF90CF90BF90AF909F908F9040
S11305007F906F90089561E083E00E94F90C61E0B0
S11305108BE00E94F90C61E088E00E94F90C61E034
S113052089E00E94F90C61E08CE00E94F90C61E022
S11305308DE00E94F90C789483EA8093B00084E003
S11305408093B1001092B3001092B40081E08093C4
S1130550700060E088E00E94220E60E089E00E9462
S1130560220E60E08CE00E94220E60E08DE00E948A
S1130570220E089521E030E08230910510F420E04D
S113058030E02115310519F0822F932F08957093CF
S113059074016093730190937601809375010895BB
S11305A021E030E08230910510F420E030E02115A4
S11305B0310519F0822F932F0895892BA1F4672B0D
S11305C049F060E088E00E94220E61E089E00E9428
S11305D0220E1CC061E088E00E94220E60E089E0E7
S11305E00E94220E13C0672B49F061E08CE00E9448
S11305F0220E60E08DE00E94220E08C060E08CE0D4
S11306000E94220E61E08DE00E94220E08951F9246
S11306100F920FB60F9211248F939F9380917501BF
S113062090917601892B21F4809173018093B40019
S11306308091750190917601019721F48091730165
S11306408093B3009F918F910F900FBE0F901F90D6
S113065018958091A60190E02091A701821B910931
S113066008952091A7018091A601281750F4E22F44
S1130670F0E0E855FE4F808190E02F5F2093A701C2
S113068008958FEF9FEF0895E091A7018091A6014F
S1130690E81730F4F0E0E855FE4F808190E00895CB
S11306A08FEF9FEF08950895CF92DF92EF92FF921C
S11306B00F931F93CF93DF938C017B016A01809189
S11306C08301882399F041155105A1F0EB01E40E53
S11306D0F51E6991D801ED91FC910190F081E02D16
S11306E0C8010995CE15DF05A1F704C0642FC70121
S11306F00E94CA03C601DF91CF911F910F91FF9011
S1130700EF90DF90CF900895CF93DF931F92CDB7F2
S1130710DEB76983209183012223E1F020918401D3
S1130720203240F021E030E0FC013383228380E07A
S113073090E017C080918501E82FF0E0EA57FE4F62
S1130740998190838F5F809385018093840181E0F8
S113075090E007C061E0CE0101960E94CA0381E0E7
S113076090E00F90DF91CF910895FC0113821282E3
S113077048EE53E060E070E04483558366837783FA
S113078088E491E091838083089587E791E00E9453
S1130790B50308956132A8F420913502243099F408
S11307A06093EA01662389F0FC01ACEEB1E00196A6
S11307B06150860F911D21912D93E817F907D9F700
S11307C006C081E0089582E0089580E0089580E005
S11307D0089585ED8093BC00ECEBF0E0808184FD0E
S11307E0FDCF10923502089585EC8093BC001092E1
S11307F0350208951F920F920FB60F9211242F9372
S11308003F934F935F936F937F938F939F93AF9394
S1130810BF93EF93FF938091B900887F90E0893C68
S1130820910508F0F7C0FC01E55BFF4F0C94CB0E7B
S1130830809134028093BB0085EC8093BC00EAC0B5
S113084090910D0280910C02981780F4E0910D02B2
S113085081E08E0F80930D02F0E0E25FFD4F808116
S11308608093BB0085EC8093BC00D4C0809133029C
S1130870882319F00E94E903CDC081E080933202FD
S113088084EA8093BC0010923502C4C080E2809355
S1130890C8010E94E903BEC080E38093C8010E949E
S11308A0E903B8C088E38093C8010E94F403B2C08E
S11308B0E0910D0281E08E0F80930D028091BB00C8
S11308C0F0E0E25FFD4F808390910D0280910C0275
S11308D0981720F485EC8093BC009CC085E8809335
S11308E0BC0098C0E0910D0281E08E0F80930D0250
S11308F08091BB00F0E0E25FFD4F80838091330282
S1130900882319F00E94E90385C081E080933202B4
S113091084EA8093BC00109235027CC00E94E903F3
S113092079C083E0809335021092C90185EC8093ED
S1130930BC0070C08091C901803280F4E091C9018B
S113094081E08E0F8093C9018091BB00F0E0E653F3
S1130950FE4F808385EC8093BC005CC085E8809367
S1130960BC0058C08091C901803230F4E091C901C3
S1130970F0E0E653FE4F10820E94E9036091C90142
S113098070E0E0912E02F0912F028AEC91E009953B
S11309901092C9010E94F4033DC085E88093BC0015
S11309A039C084E0809335021092EB011092EA0181
S11309B0E0913002F091310209958091EA018111B0
S11309C005C081E08093EA011092EC01E091EB0113
S11309D081E08E0F8093EB01F0E0E451FE4F8081C3
S11309E08093BB009091EB018091EA01981720F469
S11309F085EC8093BC000EC085E88093BC000AC0DF
S1130A0085EC8093BC001092350204C01092C8019A
S1130A100E94E903FF91EF91BF91AF919F918F9154
S1130A207F916F915F914F913F912F910F900FBEE6
S1130A300F901F901895CF93DF9300D0CDB7DEB7FA
S1130A409A83898389819A8128E631E0FC01318384
S1130A50208389819A81FC01138212820F900F9066
S1130A60DF91CF910895CF93DF9300D0CDB7DEB758
S1130A709A83898389819A810E941B0589819A813D
S1130A8028E331E0FC013183208329813A8188EE17
S1130A9093E0A0E0B0E0F90184839583A683B78353
S1130AA00F900F90DF91CF910895CF93DF9300D0F3
S1130AB000D01F92CDB7DEB78B837D836C838C818E
S1130AC09D81805C9F4FFC018081918101968F7391
S1130AD099279A83898329813A818C819D818E5BB0
S1130AE09F4FFC018081918141E02817390709F467
S1130AF040E04423B9F08C819D81805C9F4FFC01D0
S1130B00808191812C813D81820F931F2B81FC0177
S1130B10208329813A818C819D81805C9F4FFC01D7
S1130B20318320830F900F900F900F900F90DF91DF
S1130B30CF910895CF93DF93CDB7DEB7DF91CF91F7
S1130B4008951F920F9200905F000F9211242F932B
S1130B503F934F935F936F937F938F939F93AF9341
S1130B60BF93EF93FF93CF93DF9300D0CDB7DEB75E
S1130B7080EC90E0FC018081882F90E084709927BC
S1130B8021E0009709F020E0222359F086EC90E060
S1130B90FC018081898366E372E089810E945505A6
S1130BA005C086EC90E0FC0180818A830F900F9051
S1130BB0DF91CF91FF91EF91BF91AF919F918F9171
S1130BC07F916F915F914F913F912F910F90009280
S1130BD05F000F901F901895CF93DF93CDB7DEB7CA
S1130BE08EEB92E00E94F30721E0009709F420E0E5
S1130BF0222311F00E949A05DF91CF9108951F924C
S1130C000F9200905F000F9211242F933F934F9304
S1130C108F939F93EF93FF93CF93DF931F92CDB75F
S1130C20DEB72091BA023091BB028091BC02909150
S1130C30BD0241E02817390709F040E0442351F090
S1130C4081EC90E021EC30E0F90120812F7DFC0162
S1130C50208319C08091BC029091BD0286589D4F9B
S1130C60FC01808189838091BC029091BD02019630
S1130C708F7399279093BD028093BC0286EC90E019
S1130C802981FC0120830F90DF91CF91FF91EF9197
S1130C909F918F914F913F912F910F9000925F0000
S1130CA00F901F9018958F929F92AF92BF92CF9200
S1130CB0DF92EF92FF920F931F93CF93DF93CDB701
S1130CC0DEB762970FB6F894DEBF0FBECDBF9A832E
S1130CD089837C836B835E834D8338872F831A8754
S1130CE00987FC86EB86DE86CD86B88AAF869A8A2B
S1130CF0898A89819A810E94330589819A8128E5AC
S1130D0031E0FC013183208389819A812B813C81EC
S1130D10FC013587248789819A812D813E81FC01DC
S1130D203787268789819A812F813885FC01318B09
S1130D30208B89819A8129853A85FC01338B228B0A
S1130D4089819A812B853C85FC01358B248B898193
S1130D509A812D853E85FC01378B268B89819A816A
S1130D602F853889FC01318F208F89819A812989C7
S1130D703A89FC01338F228F89819A8129A1FC0150
S1130D80248F89819A812AA1FC01258F89819A81E6
S1130D902BA1FC01268F89819A812CA1FC01278F2C
S1130DA089819A812DA1FC0120A362960FB6F89443
S1130DB0DEBF0FBECDBFDF91CF911F910F91FF908A
S1130DC0EF90DF90CF90BF90AF909F908F90089559
S1130DD0CF93DF93CDB7DEB761970FB6F894DEBF3C
S1130DE00FBECDBF9D838C834E835F8368877987D5
S1130DF081E08B838E819F81A885B985811521EE41
S1130E009207A105B10509F41B828B81882361F146
S1130E108C819D81FC01848995892C813D81F90116
S1130E2020A1422F50E021E030E002C0220F331F06
S1130E304A95E2F7FC01208380E099E0ADE3B0E05D
S1130E402E813F8148855985BC01CD010E94A90EA0
S1130E50DA01C9010197A109B109B695A79597953A
S1130E6087959A8389831EC08C819D81FC01848926
S1130E709589FC01108280E894E8AEE1B0E02E810F
S1130E803F8148855985BC01CD010E94A90EDA0134
S1130E90C9010197A109B109B695A79597958795B9
S1130EA09A83898389819A818115F0E19F0728F0CB
S1130EB08B81882311F01B82A8CF8C819D81FC013A
S1130EC08089918929813A81232F3327FC0120834A
S1130ED08C819D81FC01828993892981FC01208375
S1130EE08C819D81FC0111A28C819D81FC018689EC
S1130EF097892C813D81F90126893789F90120815F
S1130F00622F2C813D81F901248D422F50E021E094
S1130F1030E002C0220F331F4A95E2F7262BFC0172
S1130F2020838C819D81FC01868997892C813D8158
S1130F30F90126893789F9012081622F2C813D81AD
S1130F40F901258D422F50E021E030E002C0220F4C
S1130F50331F4A95E2F7262BFC0120838C819D8167
S1130F60FC01868997892C813D81F901268937897D
S1130F70F9012081622F2C813D81F901268D422FB8
S1130F8050E021E030E002C0220F331F4A95E2F71F
S1130F90262BFC0120838C819D81FC018689978905
S1130FA02C813D81F90126893789F9012081622F3D
S1130FB02C813D81F901278D422F50E021E030E062
S1130FC0042E02C0220F331F0A94E2F72095262331
S1130FD0FC01208361960FB6F894DEBF0FBECDBF2F
S1130FE0DF91CF910895CF93DF9300D0CDB7DEB7D3
S1130FF09A83898389819A81FC0184859585805CA3
S11310009F4FFC012081318189819A81FC01848573
S113101095858E5B9F4FFC0180819181A901481BBE
S1131020590BCA018F7399270F900F90DF91CF91BD
S11310300895CF93DF9300D0CDB7DEB79A83898329
S113104089819A81FC0184859585805C9F4FFC0190
S11310502081318189819A81FC01848595858E5B0B
S11310609F4FFC018081918141E02817390709F0E5
S113107040E0442319F08FEF9FEF15C089819A81D6
S1131080FC012485358589819A81FC0184859585B7
S11310908E5B9F4FFC0180819181820F931FFC0125
S11310A08081882F90E00F900F90DF91CF91089569
S11310B0CF93DF9300D01F92CDB7DEB79B838A8393
S11310C08A819B81FC0184859585805C9F4FFC010E
S11310D0208131818A819B81FC01848595858E5B89
S11310E09F4FFC018081918141E02817390709F065
S11310F040E0442319F08FEF9FEF2FC08A819B813A
S1131100FC01248535858A819B81FC018485958534
S11311108E5B9F4FFC0180819181820F931FFC01A4
S1131120808189838A819B81FC01848595852A81BC
S11311303B81F901248535852E5B3F4FF9012081E0
S113114031812F5F3F4F2F7333278E5B9F4FFC01FD
S1131150318320838981882F90E00F900F900F9026
S1131160DF91CF910895CF93DF9300D0CDB7DEB751
S11311709A838983000089819A81FC0181A1882353
S113118079F089819A81FC0184899589FC018081A7
S1131190882F90E080749927009711F481E001C0B2
S11311A080E0882341F789819A81FC0111A20F9084
S11311B00F90DF91CF910895CF93DF9300D000D0AB
S11311C01F92CDB7DEB79C838B836D838B819C810B
S11311D0FC0186859785805C9F4FFC01808191810D
S11311E001968F7399279A838983000029813A8114
S11311F08B819C81FC01868597858E5B9F4FFC01CA
S11312008081918141E02817390709F040E04423A7
S113121069F78B819C81FC01268537858B819C81B4
S1131220FC0186859785805C9F4FFC0180819181BC
S1131230820F931F2D81FC0120838B819C81FC01F3
S11312408685978529813A81805C9F4FFC01318393
S113125020838B819C81FC01868997892B813C8129
S1131260F90126893789F9012081622F2B813C817C
S1131270F901278D422F50E021E030E0042E02C016
S1131280220F331F0A94E2F7262BFC0120838B8163
S11312909C8121E0FC0121A38B819C81FC01848938
S11312A095892B813C81F90124893589F9012081B3
S11312B02064FC01208381E090E00F900F900F9058
S11312C00F900F90DF91CF9108958F929F92AF92DC
S11312D0BF92CF92DF92EF92FF920F931F93CF931F
S11312E0DF9300D000D0CDB7DEB79A8389837C83A7
S11312F06B8389819A8181309105A9F58B819C81C9
S11313008F3F2FEF920779F581E08F9385E08F93DC
S113131087E08F9383E08F9384E08F930F2EF6EC16
S11313208F2E912CF02D0F2EF2ECAF2EB12CF02D30
S11313300F2EF1ECCF2ED12CF02D0F2EF0ECEF2E42
S1131340F12CF02D04EC10E025EC30E04AE752E0FB
S113135066E372E08EEB92E00E9453060F900F90CA
S11313600F900F900F900F900F900F900F90DF91B0
S1131370CF911F910F91FF90EF90DF90CF90BF908E
S1131380AF909F908F900895CF93DF93CDB7DEB742
S11313906FEF7FEF81E090E00E946509DF91CF91CC
S11313A00895CF93DF93CDB7DEB70E941B0C0E9444
S11313B068010E9473018CEE95E0009711F00E9481
S11313C0EC05F7CFCF93DF93CDB7DEB7DF91CF91A5
S11313D008950F931F93CF93DF9300D000D0CDB720
S11313E0DEB79A8389837C836B838B819C8100978E
S11313F019F480E090E015C089819A81FC01808114
S113140091810296FC01008111818B819C810E9453
S1131410D10EAC012B813C8189819A81B901F801FB
S113142009950F900F900F900F90DF91CF911F911E
S11314300F910895CF93DF93CDB7DEB728970FB6FA
S1131440F894DEBF0FBECDBF9C838B837E836D83F8
S113145058874F831A8219821CC08B819C81FC019E
S113146080819181FC01208131818D819E81AC013B
S11314704F5F5F4F5E834D83FC0140818B819C8174
S1131480642FF901099529813A81820F931F9A8368
S113149089838F8198859C012150310938872F8356
S11314A021E0009709F420E02223B9F689819A818A
S11314B028960FB6F894DEBF0FBECDBFDF91CF9153
S11314C00895CF93DF9300D000D0CDB7DEB79A83D1
S11314D089837C836B832B813C8189819A81B901C7
S11314E00E94E9090F900F900F900F90DF91CF9118
S11314F00895CF93DF9300D01F92CDB7DEB79A83C0
S113150089836B8389819A81FC0180819181FC01AB
S1131510208131814B8189819A81642FF901099558
S11315200F900F900F90DF91CF910895CF93DF9399
S113153000D000D000D0CDB7DEB79A8389837C83F6
S11315406B835E834D838B819C81AA2797FDA09535
S1131550BA2F2D813E81E981FA81AC01BD01CF0111
S11315600E94BB0A26960FB6F894DEBF0FBECDBF0D
S1131570DF91CF910895CF93DF93CDB7DEB72A974C
S11315800FB6F894DEBF0FBECDBF9C838B834D8313
S11315905E836F8378873A87298789859A85009740
S11315A079F48B819C81FC0180819181FC012081F3
S11315B031814D818B819C81642FF90109954CC047
S11315C089859A858A309105D9F58D819E81AF816F
S11315D0B885BB2344F58B819C816DE20E94790A16
S11315E09A8389838D819E81AF81B885B095A095BA
S11315F0909581959F4FAF4FBF4F8D839E83AF834F
S1131600B8878D819E81AF81B885EB81FC812AE00A
S1131610AC01BD01CF010E94350B9C0189819A81E7
S1131620820F931F19C08D819E81AF81B885EB8194
S1131630FC812AE0AC01BD01CF010E94350B0CC036
S113164029858D819E81AF81B885EB81FC81AC01B8
S1131650BD01CF010E94350B2A960FB6F894DEBF68
S11316600FBECDBFDF91CF910895CF93DF93CDB758
S1131670DEB7E3970FB6F894DEBF0FBECDBF9AA7CF
S113168089A74BA75CA76DA77EA72FA780E290E050
S11316909E01285F3F4F820F931F9A83898389811C
S11316A09A81FC0110828FA5823010F48AE08FA702
S11316B08BA59CA5ADA5BEA58B839C83AD83BE8362
S11316C08FA5282F30E040E050E08BA59CA5ADA568
S11316D0BEA5BC01CD010E94A90EDA01C9018BA7E8
S11316E09CA7ADA7BEA79B812BA58FA5289F802D66
S11316F01124F92FF81B8F2F8F8389819A810197E9
S11317009A8389838F818A3024F48F81805D282F86
S113171003C08F81895C282F89819A81FC012083F1
S11317208BA59CA5ADA5BEA50097A105B10509F0A3
S1131730BFCF29813A8189A59AA5B9010E94E909F7
S1131740E3960FB6F894DEBF0FBECDBFDF91CF9105
S113175008951F920F9200905F000F9211248F93AF
S11317609F93AF93BF93CF93DF93CDB7DEB7259706
S1131770DEBFCDBF8091E4029091E502A091E60224
S1131780B091E70289839A83AB83BC838091E8029A
S11317908D8389819A81AB81BC810196A11DB11D84
S11317A089839A83AB83BC838D818D5F8D838D8187
S11317B08D3770F08D818D578D8389819A81AB81AE
S11317C0BC810196A11DB11D89839A83AB83BC831F
S11317D08D818093E80289819A81AB81BC81809359
S11317E0E4029093E502A093E602B093E7028091AD
S11317F0E0029091E102A091E202B091E30201962D
S1131800A11DB11D8093E0029093E102A093E20236
S1131810B093E3020F900F900F900F900F90DF9111
S1131820CF91BF91AF919F918F910F9000925F00E4
S11318300F901F901895CF93DF93CDB7DEB77894B0
S113184084E490E024E430E0F90120812260FC018A
S1131850208384E490E024E430E0F90120812160D5
S1131860FC01208385E490E025E430E0F901208147
S11318702260FC01208385E490E025E430E0F90156
S113188020812160FC0120838EE690E02EE630E08A
S1131890F90120812160FC01208381E890E0FC01B2
S11318A0108281E890E021E830E0F9012081226093
S11318B0FC01208381E890E021E830E0F9012081F7
S11318C02160FC01208380E890E020E830E0F90109
S11318D020812160FC01208381EB90E021EB30E04A
S11318E0F90120812460FC01208380EB90E020EB4F
S11318F030E0F90120812160FC0120838AE790E037
S11319002AE730E0F90120812460FC0120838AE782
S113191090E02AE730E0F90120812260FC01208375
S11319208AE790E02AE730E0F90120812160FC0198
S113193020838AE790E02AE730E0F90120812068DB
S1131940FC01208381EC90E0FC011082DF91CF91B7
S11319500895CF93DF9300D01F92CDB7DEB78B836A
S11319608B818E3018F08B818E508B838CE790E0C6
S113197020910801222F30E0002436952795079402
S1131980369527950794322F202D322F2B812770DF
S1131990232BFC0120838AE790E02AE730E0F90159
S11319A020812064FC01208300008AE790E0FC0190
S11319B08081882F90E0807499270097B1F788E799
S11319C090E0FC018081898389E790E0FC018081BB
S11319D08A838A81882F90E0382F22278981882F53
S11319E090E0822B932B0F900F900F90DF91CF916B
S11319F00895CF93DF93CDB7DEB769970FB6F89408
S1131A00DEBF0FBECDBF888F698F888D882F90E091
S1131A10805B9D4F9A83898389819A81FC0184919B
S1131A208B838B818C83888D882F90E0845C9D4F81
S1131A309E838D838D819E81FC0184918F838F8110
S1131A4088878885882309F494C08885882F90E046
S1131A50880F991F885D9D4F9A87898789859A8504
S1131A60FC0125913491CF013C872B879A87898784
S1131A708B859C859E878D878885882F90E0880F2D
S1131A80991F8E5C9D4F988B8F878F859889FC0159
S1131A9025913491CF013A8B298B988B8F87898933
S1131AA09A899C8B8B8B898D882331F58FE590E007
S1131AB0FC0180818D8BF8948D859E85FC0180814D
S1131AC0982F8C8180958923282F8D859E85FC01F4
S1131AD020838B899C89FC018081982F8C8180953F
S1131AE08923282F8B899C89FC0120838FE590E032
S1131AF02D89FC0120833DC0898D823021F58FE53D
S1131B0090E0FC0180818E8BF8948D859E85FC018C
S1131B108081982F8C8180958923282F8D859E859F
S1131B20FC0120838B899C89FC0190818C81292F65
S1131B30282B8B899C89FC0120838FE590E02E89DA
S1131B40FC01208316C08FE590E0FC0180818F8B1F
S1131B50F8948D859E85FC0190818C81292F282BFA
S1131B608D859E85FC0120838FE590E02F89FC0103
S1131B70208369960FB6F894DEBF0FBECDBFDF9108
S1131B80CF910895CF93DF931F92CDB7DEB78983AA
S1131B908981882F90E083309105A1F084309105EC
S1131BA03CF48130910511F18230910549F146C030
S1131BB08630910579F187309105B1F18430910532
S1131BC059F03CC080E890E020E830E0F901208141
S1131BD02F77FC01208332C080E890E020E830E0D9
S1131BE0F90120812F7DFC01208328C084E490E04A
S1131BF024E430E0F90120812F77FC0120831EC00A
S1131C0084E490E024E430E0F90120812F7DFC019C
S1131C10208314C080EB90E020EB30E0F9012081B8
S1131C202F77FC0120830AC080EB90E020EB30E0AA
S1131C30F90120812F7DFC01208300000F90DF91AA
S1131C40CF910895CF93DF93CDB7DEB765970FB6E5
S1131C50F894DEBF0FBECDBF8C8B6D8B8C89882F23
S1131C6090E08C599D4F9A83898389819A81FC01E4
S1131C7084918B838B818C838C89882F90E0805B0B
S1131C809D4F9E838D838D819E81FC0184918F83E2
S1131C908F8188878C89882F90E0845C9D4F9A87F8
S1131CA0898789859A85FC0184918B878B858C87AC
S1131CB08C85882309F444C08C81882319F08C8195
S1131CC00E94C20D8C85882F90E0880F991F8E5C2E
S1131CD09D4F9E878D878D859E85FC01259134912E
S1131CE0CF01388B2F879E878D878F8598899A8B14
S1131CF0898B8FE590E0FC0180818B8BF8948D8932
S1131D00882371F489899A89FC018081982F8885B8
S1131D1080958923282F89899A89FC0120830BC007
S1131D2089899A89FC0190818885292F282B8989A2
S1131D309A89FC0120838FE590E02B89FC012083A4
S1131D4065960FB6F894DEBF0FBECDBFDF91CF917D
S1131D500895A1E21A2EAA1BBB1BFD010DC0AA1FE8
S1131D60BB1FEE1FFF1FA217B307E407F50720F000
S1131D70A21BB30BE40BF50B661F771F881F991F7B
S1131D801A9469F760957095809590959B01AC01C4
S1131D90BD01CF010895EE0FFF1F0590F491E02DD2
S1131DA00994FC0101900020E9F7809590958E0F2D
S1131DB09F1F0895AEE0B0E0E0EEFEE00C948211C7
S1131DC00D891E8986E08C831A8309838FEF9FE730
S1131DD09E838D83AE01475E5F4F6F89788DCE0100
S1131DE001960E94FC0EEF81F885E00FF11F10822E
S1131DF02E96E4E00C949E11ACE0B0E0E2E0FFE04B
S1131E000C9474117C016B018A01FC011782168207
S1131E10838181FFBDC1CE0101964C01F7019381FD
S1131E20F60193FD859193FF81916F01882309F455
S1131E30ABC1853239F493FD859193FF81916F0194
S1131E40853229F4B70190E00E94E410E7CF512CC9
S1131E50312C20E02032A0F48B3269F030F480324F
S1131E6059F0833269F420612CC08D3239F080330B
S1131E7039F4216026C02260246023C0286021C078
S1131E8027FD27C030ED380F3A3078F426FF06C01E
S1131E90FAE05F9E300D1124532E13C08AE0389E61
S1131EA0300D1124332E20620CC08E3221F426FD15
S1131EB06BC1206406C08C3611F4206802C08836D9
S1131EC041F4F60193FD859193FF81916F01811196
S1131ED0C1CF982F9F7D9554933028F40C5F1F4FEA
S1131EE0FFE3F9830DC0833631F0833771F0833516
S1131EF009F05BC022C0F801808189830E5F1F4F07
S1131F0044244394512C540115C03801F2E06F0E5F
S1131F10711CF801A080B18026FF03C0652D70E01C
S1131F2002C06FEF7FEFC5012C870E94D9102C01EE
S1131F3083012C852F77222E17C03801F2E06F0E13
S1131F40711CF801A080B18026FF03C0652D70E0EC
S1131F5002C06FEF7FEFC5012C870E94CE102C01C9
S1131F602C852068222E830123FC1BC0832D90E046
S1131F7048165906B0F4B70180E290E00E94E410DC
S1131F803A94F4CFF50127FC859127FE81915F01F6
S1131F90B70190E00E94E41031103A94F1E04F1A36
S1131FA051084114510471F7E5C0843611F08936A3
S1131FB039F5F80127FF07C060817181828193811F
S1131FC00C5F1F4F08C060817181882777FD809561
S1131FD0982F0E5F1F4F2F76B22E97FF09C0909552
S1131FE08095709561957F4F8F4F9F4F2068B22EDB
S1131FF02AE030E0A4010E941611A82EA81844C0BB
S1132000853729F42F7EB22E2AE030E025C0F22F46
S1132010F97FBF2E8F36C1F018F4883579F0B4C03B
S1132020803719F0883721F0AFC02F2F2061B22EEE
S1132030B4FE0DC08B2D8460B82E09C024FF0AC0E5
S11320409F2F9660B92E06C028E030E005C020E13D
S113205030E002C020E132E0F801B7FE07C0608141
S11320607181828193810C5F1F4F06C060817181F1
S113207080E090E00E5F1F4FA4010E941611A82E6D
S1132080A818FB2DFF77BF2EB6FE0BC02B2D2E7F7D
S1132090A51450F4B4FE0AC0B2FC08C02B2D2E7E49
S11320A005C07A2C2B2D03C07A2C01C0752C24FF7B
S11320B00DC0FE01EA0DF11D8081803311F4297EEB
S11320C009C022FF06C07394739404C0822F8678DB
S11320D009F0739423FD13C020FF06C05A2C731417
S11320E018F4530C5718732C731468F4B70180E276
S11320F090E02C870E94E41073942C85F5CF731420
S113210010F4371801C0312C24FF12C0B70180E34A
S113211090E02C870E94E4102C8522FF17C021FF39
S113212003C088E590E002C088E790E0B7010CC0E6
S1132130822F867859F021FD02C080E201C08BE233
S113214027FD8DE2B70190E00E94E410A51438F455
S1132150B70180E390E00E94E4105A94F7CFAA9468
S1132160F401EA0DF11D8081B70190E00E94E410B2
S1132170A110F5CF332009F451CEB70180E290E0ED
S11321800E94E4103A94F6CFF7018681978102C049
S11321908FEF9FEF2C96E2E10C949011FC010590D7
S11321A0615070400110D8F7809590958E0F9F1F55
S11321B00895FC016150704001900110D8F780959A
S11321C090958E0F9F1F08950F931F93CF93DF93C6
S11321D0182F092FEB018B8181FD03C08FEF9FEF37
S11321E020C082FF10C04E815F812C813D81421747
S11321F053077CF4E881F9819F012F5F3F4F3983B6
S11322002883108306C0E885F985812F0995892BD9
S113221029F72E813F812F5F3F4F3F832E83812FEC
S1132220902FDF91CF911F910F910895FA01AA2762
S1132230283051F1203181F1E8946F936E7F6E5F05
S11322407F4F8F4F9F4FAF4FB1E03ED0B4E03CD0B3
S1132250670F781F891F9A1FA11D680F791F8A1F96
S1132260911DA11D6A0F711D811D911DA11D20D0FD
S113227009F468943F912AE0269F11243019305DB7
S11322803193DEF6CF010895462F4770405D4193A8
S1132290B3E00FD0C9F7F6CF462F4F70405D4A33F5
S11322A018F0495D31FD4052419302D0A9F7EACFBD
S11322B0B4E0A6959795879577956795BA95C9F7EC
S11322C000976105710508959B01AC010A2E0694DF
S11322D05795479537952795BA95C9F7620F731F98
S11322E0841F951FA01D08952F923F924F925F92D5
S11322F06F927F928F929F92AF92BF92CF92DF9212
S1132300EF92FF920F931F93CF93DF93CDB7DEB776
S1132310CA1BDB0B0FB6F894DEBF0FBECDBF09940A
S11323202A88398848885F846E847D848C849B8461
S1132330AA84B984C884DF80EE80FD800C811B816F
S1132340AA81B981CE0FD11D0FB6F894DEBF0FBE9E
S10D2350CDBFED010895F894FFCF0E
S113235A0000E90220008C00015374617274696EF2
S113236A670A005370656564696E672075702C206E
S113237A63757272656E74207370656564203D209E
S113238A25640A0000000000E2091A0AE209E209C7
S113239AE209E2090000000084035403290331031B
S11323AA4403530300000000DC081A0AF307580820
S10F23BA1908B30800000000E2091A0A28
S9030000FC
