S01200006932635363616E6E65722E737265634A
S11300000C9422010C944A010C944A010C944A0168
S11300100C944A010C944A010C944A010C944A0130
S11300200C944A010C944A010C944A010C944A0120
S11300300C944A010C944A010C944A010C944A0110
S11300400C94F50A0C944A010C94E8040C944605AB
S11300500C944A010C944A010C944A010C944A01F0
S11300600C9441030C944A014D045104510451046D
S113007051045104510451045F03510451045104C7
S113008051045104510451045F03510451045104B7
S1130090510451045104510467035104510451049F
S11300A051045104510451048D0351045104510469
S11300B0510451045104510467035104510451047F
S11300C05104510451045104930351045104510443
S11300D0510451045104510499035104510451042D
S11300E05104510451045104AB035104510451040B
S11300F05104510451045104D503510451045104D1
S113010051045104510451049F03510451045104F6
S11301105104510451045104B903510451045104CC
S11301205104510451045104D8035104510451049D
S11301305104510451045104D8035104510451048D
S11301405104510451045104D8035104510451047D
S11301505104510451045104D8035104510451046D
S11301605104510451045104E10351045104510454
S11301705104510451045104140451045104510410
S11301805104510451045104E10351045104510434
S113019051045104510451041404510451045104F0
S11301A05104510451045104F903510451045104FC
S11301B051045104510451041804510451045104CC
S11301C051045104510451041804510451045104BC
S11301D051045104510451042D0451045104510497
S11301E0510451045104510447045104510451046D
S11301F05104510451045104470400000000250037
S113020028002B000404040404040404020202026F
S113021002020303030303030102040810204080C5
S11302200102040810200102040810200000000745
S113023000020100000304060000000000000000AA
S11302409102180911241FBECFEFD8E0DEBFCDBF45
S113025011E0A0E0B1E0E2E6FBE102C005900D92FE
S1130260A838B107D9F722E0A8E8B1E001C01D928F
S1130270AB3FB207E1F712E0C4E4D2E004C0229736
S1130280FE010E94A20DC034D107C9F70E94BD012E
S11302900C94AF0D0C940000CF93DF9340E855E22B
S11302A060E070E080ED92E00E942F0680ED92E025
S11302B00E94AC088823D1F380ED92E00E94350AB5
S11302C066E071E080ED92E00E94580A88E891E0CF
S11302D00E946502C8E0D0E06C2F88E891E00E949B
S11302E0700288E891E00E948D02811127C060E2CB
S11302F071E080ED92E00E94A4094AE050E06C2F86
S113030080ED92E00E94D90960E371E080ED92E013
S11303100E94A40940E150E06C2F80ED92E00E941D
S1130320D90965E371E080ED92E00E94580ADF5F2D
S113033061E070E080E090E00E94C60BCF5FC837B8
S113034059F667E371E080ED92E00E94580A6DE38C
S113035071E080ED92E00E94A4094AE050E06D2F24
S113036080ED92E00E94D90964E471E080ED92E0AE
S11303700E94580ADF91CF9108950E94090C0E94AF
S11303804C0183E395E0892B19F00E943305FDCFDE
S1130390FFCF8091B80190E02091B901821B9109AF
S11303A008952091B9018091B801281750F4E22FE3
S11303B0F0E0E654FE4F808190E02F5F2093B90176
S11303C008958FEF9FEF0895E091B9018091B801EE
S11303D0E81730F4F0E0E654FE4F808190E0089591
S11303E08FEF9FEF08950895CF92DF92EF92FF92DF
S11303F00F931F93CF93DF938C017B016A0180914C
S11304009401882399F041155105A1F0EB01E40E04
S1130410F51E6991D801ED91FC910190F081E02DD8
S1130420C8010995CE15DF05A1F704C0642FC701E3
S11304300E941103C601DF91CF911F910F91FF908C
S1130440EF90DF90CF900895CF93DF931F92CDB7B5
S1130450DEB76983209194012223E1F02091950174
S1130460203240F021E030E0FC013383228380E03D
S113047090E017C080919601E82FF0E0E956FE4F16
S1130480998190838F5F809396018093950181E099
S113049090E007C061E0CE0101960E94110381E063
S11304A090E00F90DF91CF910895FC0113821282A6
S11304B048EE53E060E070E04483558366837783BD
S11304C084E691E09183808308951092B90110929B
S11304D0B80110929601109295010E949602089517
S11304E081E0809394016093B70110929601109279
S11304F0950108950F93062F21E04091950167E936
S113050071E08091B7010E94B4021092960110929A
S11305109501109294010F91089561E00E947A026E
S1130520089588E891E00E945502089510924702C8
S113053081E0809345021092440261E082E10E94CE
S1130540F70C61E083E10E94F70CE9EBF0E08081B5
S11305508E7F808380818D7F808388E48093B80040
S113056085E48093BC0008950F93413208F050C095
S1130570909147029111FCCF92E09093470200932F
S113058045029FEF9093DA0110921F0240931E02DE
S1130590442369F0FB01A0E2B2E06F5F7F4F41505A
S11305A0640F711D91919D93E617F707D9F7109287
S11305B0460290914602880F892B809346028091CF
S11305C04402813051F41092440280914602809397
S11305D0BB0085EC8093BC0003C085EE8093BC0017
S11305E0222341F080914702823021F48091470216
S11305F08230E1F38091DA018F3F61F08091DA017A
S1130600803251F08091DA01803341F483E007C0F5
S113061081E005C080E003C082E001C084E00F9166
S113062008956132A8F420914702243099F460932C
S1130630FC01662389F0FC01AEEFB1E00196615044
S1130640860F911D21912D93E817F907D9F706C05C
S113065081E0089582E0089580E0089580E008959F
S113066085ED8093BC00ECEBF0E0808184FDFDCF50
S113067010924702089585EC8093BC0010924702C3
S113068008951F920F920FB60F9211242F933F9348
S11306904F935F936F937F938F939F93AF93BF9386
S11306A0EF93FF938091B900887F90E0893C910596
S11306B008F0F7C0FC01EC5CFF4F0C94A00D809196
S11306C046028093BB0085EC8093BC00EAC0909105
S11306D01F0280911E02981780F4E0911F0281E0AE
S11306E08E0F80931F02F0E0E05EFD4F80818093C7
S11306F0BB0085EC8093BC00D4C080914502882364
S113070019F00E943003CDC081E08093440284EA52
S11307108093BC0010924702C4C080E28093DA0147
S11307200E943003BEC080E38093DA010E9430034C
S1130730B8C088E38093DA010E943B03B2C0E09121
S11307401F0281E08E0F80931F028091BB00F0E0B6
S1130750E05EFD4F808390911F0280911E029817E6
S113076020F485EC8093BC009CC085E88093BC0099
S113077098C0E0911F0281E08E0F80931F02809148
S1130780BB00F0E0E05EFD4F80838091450288234A
S113079019F00E94300385C081E08093440284EA0A
S11307A08093BC00109247027CC00E94300379C041
S11307B083E0809347021092DB0185EC8093BC00B8
S11307C070C08091DB01803280F4E091DB0181E034
S11307D08E0F8093DB018091BB00F0E0E452FE4F6A
S11307E0808385EC8093BC005CC085E88093BC006A
S11307F058C08091DB01803230F4E091DB01F0E0FD
S1130800E452FE4F10820E9430036091DB0170E0DD
S1130810E0914002F09141028CED91E00995109233
S1130820DB010E943B033DC085E88093BC0039C0D6
S113083084E0809347021092FD011092FC01E09144
S11308404202F091430209958091FC01811105C097
S113085081E08093FC011092FE01E091FD0181E0B2
S11308608E0F8093FD01F0E0E250FE4F8081809373
S1130870BB009091FD018091FC01981720F485EC58
S11308808093BC000EC085E88093BC000AC085EC50
S11308908093BC001092470204C01092DA010E94B7
S11308A03003FF91EF91BF91AF919F918F917F9111
S11308B06F915F914F913F912F910F900FBE0F90C9
S11308C01F901895CF93DF9300D0CDB7DEB79A83EE
S11308D0898389819A8124E831E0FC013183208372
S11308E089819A81FC01138212820F900F90DF910B
S11308F0CF910895CF93DF9300D0CDB7DEB79A831D
S1130900898389819A810E94620489819A8124E57C
S113091031E0FC013183208329813A8188EE93E020
S1130920A0E0B0E0F90184839583A683B7830F9098
S11309300F90DF91CF910895CF93DF9300D000D033
S11309401F92CDB7DEB78B837D836C838C819D81B1
S1130950805C9F4FFC018081918101968F73992760
S11309609A83898329813A818C819D818E5B9F4FF3
S1130970FC018081918141E02817390709F440E0A6
S11309804423B9F08C819D81805C9F4FFC01808160
S113099091812C813D81820F931F2B81FC01208347
S11309A029813A818C819D81805C9F4FFC01318338
S11309B020830F900F900F900F900F90DF91CF91A5
S11309C00895CF93DF93CDB7DEB7DF91CF9108952C
S11309D01F920F9200905F000F9211242F933F9368
S11309E04F935F936F937F938F939F93AF93BF9333
S11309F0EF93FF93CF93DF9300D0CDB7DEB780ECB6
S1130A0090E0FC018081882F90E08470992721E098
S1130A10009709F020E0222359F086EC90E0FC01D5
S1130A208081898368E472E089810E949C0405C006
S1130A3086EC90E0FC0180818A830F900F90DF9117
S1130A40CF91FF91EF91BF91AF919F918F917F9142
S1130A506F915F914F913F912F910F9000925F00A2
S1130A600F901F901895CF93DF93CDB7DEB780ED2D
S1130A7092E00E943A0721E0009709F420E0222343
S1130A8011F00E94E104DF91CF9108951F920F921B
S1130A9000905F000F9211242F933F934F938F93F5
S1130AA09F93EF93FF93CF93DF931F92CDB7DEB75E
S1130AB02091CC023091CD028091CE029091CF0250
S1130AC041E02817390709F040E0442351F081EC54
S1130AD090E021EC30E0F90120812F7DFC0120839E
S1130AE019C08091CE029091CF0284579D4FFC0192
S1130AF0808189838091CE029091CF0201968F7379
S1130B0099279093CF028093CE0286EC90E02981BE
S1130B10FC0120830F90DF91CF91FF91EF919F9182
S1130B208F914F913F912F910F9000925F000F9002
S1130B301F9018958F929F92AF92BF92CF92DF929F
S1130B40EF92FF920F931F93CF93DF93CDB7DEB74E
S1130B5062970FB6F894DEBF0FBECDBF9A83898328
S1130B607C836B835E834D8338872F831A87098741
S1130B70FC86EB86DE86CD86B88AAF869A8A898A19
S1130B8089819A810E947A0489819A8124E731E0DB
S1130B90FC013183208389819A812B813C81FC0172
S1130BA03587248789819A812D813E81FC0137878D
S1130BB0268789819A812F813885FC01318B208B8E
S1130BC089819A8129853A85FC01338B228B89811D
S1130BD09A812B853C85FC01358B248B89819A81F4
S1130BE02D853E85FC01378B268B89819A812F8543
S1130BF03889FC01318F208F89819A8129893A892A
S1130C00FC01338F228F89819A8129A1FC01248FD1
S1130C1089819A812AA1FC01258F89819A812BA13E
S1130C20FC01268F89819A812CA1FC01278F89815F
S1130C309A812DA1FC0120A362960FB6F894DEBF21
S1130C400FBECDBFDF91CF911F910F91FF90EF9019
S1130C50DF90CF90BF90AF909F908F900895CF93E7
S1130C60DF93CDB7DEB761970FB6F894DEBF0FBE42
S1130C70CDBF9D838C834E835F836887798781E0B2
S1130C808B838E819F81A885B985811521EE92077A
S1130C90A105B10509F41B828B81882361F18C8144
S1130CA09D81FC01848995892C813D81F90120A1D4
S1130CB0422F50E021E030E002C0220F331F4A955A
S1130CC0E2F7FC01208380E099E0ADE3B0E02E81FF
S1130CD03F8148855985BC01CD010E947E0DDA0112
S1130CE0C9010197A109B109B695A795979587956B
S1130CF09A8389831EC08C819D81FC018489958996
S1130D00FC01108280E894E8AEE1B0E02E813F81DE
S1130D1048855985BC01CD010E947E0DDA01C901C7
S1130D200197A109B109B695A795979587959A83D7
S1130D30898389819A818115F0E19F0728F08B814D
S1130D40882311F01B82A8CF8C819D81FC018089AE
S1130D50918929813A81232F3327FC0120838C81B7
S1130D609D81FC01828993892981FC0120838C81E6
S1130D709D81FC0111A28C819D81FC01868997894A
S1130D802C813D81F90126893789F9012081622F5F
S1130D902C813D81F901248D422F50E021E030E087
S1130DA002C0220F331F4A95E2F7262BFC01208351
S1130DB08C819D81FC01868997892C813D81F90173
S1130DC026893789F9012081622F2C813D81F9011F
S1130DD0258D422F50E021E030E002C0220F331F66
S1130DE04A95E2F7262BFC0120838C819D81FC012E
S1130DF0868997892C813D81F90126893789F901F2
S1130E002081622F2C813D81F901268D422F50E0F3
S1130E1021E030E002C0220F331F4A95E2F7262B6F
S1130E20FC0120838C819D81FC01868997892C811A
S1130E303D81F90126893789F9012081622F2C81AE
S1130E403D81F901278D422F50E021E030E0042E4E
S1130E5002C0220F331F0A94E2F720952623FC01D7
S1130E60208361960FB6F894DEBF0FBECDBFDF912D
S1130E70CF910895CF93DF9300D0CDB7DEB79A8397
S1130E80898389819A81FC0184859585805C9F4F43
S1130E90FC012081318189819A81FC0184859585B9
S1130EA08E5B9F4FFC0180819181A901481B590BE6
S1130EB0CA018F7399270F900F90DF91CF910895F6
S1130EC0CF93DF9300D0CDB7DEB79A83898389812E
S1130ED09A81FC0184859585805C9F4FFC0120816B
S1130EE0318189819A81FC01848595858E5B9F4F30
S1130EF0FC018081918141E02817390709F040E025
S1130F00442319F08FEF9FEF15C089819A81FC016A
S1130F102485358589819A81FC01848595858E5B3C
S1130F209F4FFC0180819181820F931FFC0180817E
S1130F30882F90E00F900F90DF91CF910895CF9379
S1130F40DF9300D01F92CDB7DEB79B838A838A815B
S1130F509B81FC0184859585805C9F4FFC012081E9
S1130F6031818A819B81FC01848595858E5B9F4FAD
S1130F70FC018081918141E02817390709F040E0A4
S1130F80442319F08FEF9FEF2FC08A819B81FC01CE
S1130F90248535858A819B81FC01848595858E5BBA
S1130FA09F4FFC0180819181820F931FFC018081FE
S1130FB089838A819B81FC01848595852A813B8173
S1130FC0F901248535852E5B3F4FF901208131815C
S1130FD02F5F3F4F2F7333278E5B9F4FFC0131836D
S1130FE020838981882F90E00F900F900F90DF91DC
S1130FF0CF910895CF93DF9300D0CDB7DEB79A8316
S11310008983000089819A81FC0181A1882379F078
S113101089819A81FC0184899589FC018081882FCA
S113102090E080749927009711F481E001C080E07A
S1131030882341F789819A81FC0111A20F900F90B6
S1131040DF91CF910895CF93DF9300D000D01F920A
S1131050CDB7DEB79C838B836D838B819C81FC0130
S113106086859785805C9F4FFC01808191810196E4
S11310708F7399279A838983000029813A818B8110
S11310809C81FC01868597858E5B9F4FFC01808146
S1131090918141E02817390709F040E0442369F7BA
S11310A08B819C81FC01268537858B819C81FC0189
S11310B086859785805C9F4FFC0180819181820F9A
S11310C0931F2D81FC0120838B819C81FC018685EB
S11310D0978529813A81805C9F4FFC01318320836D
S11310E08B819C81FC01868997892B813C81F90144
S11310F026893789F9012081622F2B813C81F901EE
S1131100278D422F50E021E030E0042E02C0220F50
S1131110331F0A94E2F7262BFC0120838B819C81E8
S113112021E0FC0121A38B819C81FC0184899589A8
S11311302B813C81F90124893589F90120812064BE
S1131140FC01208381E090E00F900F900F900F90AE
S11311500F90DF91CF910895CF93DF9300D0CDB757
S1131160DEB79A83898381E00F900F90DF91CF914E
S113117008958F929F92AF92BF92CF92DF92EF9297
S1131180FF920F931F93CF93DF9300D000D0CDB77E
S1131190DEB79A8389837C836B8389819A818130CA
S11311A09105A9F58B819C818F3F2FEF920779F5EB
S11311B081E08F9385E08F9387E08F9383E08F9313
S11311C084E08F930F2EF6EC8F2E912CF02D0F2EA2
S11311D0F2ECAF2EB12CF02D0F2EF1ECCF2ED12C42
S11311E0F02D0F2EF0ECEF2EF12CF02D04EC10E08E
S11311F025EC30E04CE852E068E472E080ED92E0E7
S11312000E949A050F900F900F900F900F900F90DF
S11312100F900F900F90DF91CF911F910F91FF903E
S1131220EF90DF90CF90BF90AF909F908F900895F4
S1131230CF93DF93CDB7DEB76FEF7FEF81E090E020
S11312400E94B908DF91CF910895CF93DF93CDB772
S1131250DEB7DF91CF9108950F931F93CF93DF9360
S113126000D000D0CDB7DEB79A8389837C836B83AB
S11312708B819C81009719F480E090E015C08981EE
S11312809A81FC01808191810296FC010081118187
S11312908B819C810E94A60DAC012B813C818981AC
S11312A09A81B901F80109950F900F900F900F9052
S11312B0DF91CF911F910F910895CF93DF93CDB715
S11312C0DEB728970FB6F894DEBF0FBECDBF9C8360
S11312D08B837E836D8358874F831A8219821CC047
S11312E08B819C81FC0180819181FC012081318171
S11312F08D819E81AC014F5F5F4F5E834D83FC0106
S113130040818B819C81642FF901099529813A815F
S1131310820F931F9A8389838F8198859C01215022
S1131320310938872F8321E0009709F420E0222334
S1131330B9F689819A8128960FB6F894DEBF0FBE5C
S1131340CDBFDF91CF910895CF93DF9300D000D02C
S1131350CDB7DEB79A8389837C836B832B813C81F1
S113136089819A81B9010E942C090F900F900F90E6
S11313700F90DF91CF910895CF93DF9300D01F9208
S1131380CDB7DEB79A8389836B8389819A81FC0107
S113139080819181FC01208131814B8189819A81F5
S11313A0642FF90109950F900F900F90DF91CF9161
S11313B00895CF93DF9300D000D01F92CDB7DEB74E
S11313C09A8389836B835D834C838B81882F90E020
S11313D0A0E0B0E02C813D81E981FA81AC01BD013E
S11313E0CF010E94FB090F900F900F900F900F9068
S11313F0DF91CF910895CF93DF93CDB7DEB72897D0
S11314000FB6F894DEBF0FBECDBF9A8389834B839A
S11314105C836D837E8338872F838F8198850097C3
S113142079F489819A81FC0180819181FC01208178
S113143031814B8189819A81642FF90109950CC00E
S11314402F818B819C81AD81BE81E981FA81AC01C0
S1131450BD01CF010E94810A28960FB6F894DEBF21
S11314600FBECDBFDF91CF910895CF93DF9300D00E
S113147000D0CDB7DEB79C838B838B819C816DE0DC
S11314800E94BC099A8389838B819C816AE00E94B3
S1131490BC0929813A81820F931F9A8389838981A8
S11314A09A810F900F900F900F90DF91CF91089534
S11314B0CF93DF9300D000D000D0CDB7DEB79C83AC
S11314C08B837E836D832D813E818B819C81B901C9
S11314D00E94A4099A8389838B819C810E94350A86
S11314E029813A81820F931F9A83898389819A8102
S11314F026960FB6F894DEBF0FBECDBFDF91CF9115
S11315000895CF93DF93CDB7DEB7E3970FB6F89482
S1131510DEBF0FBECDBF9AA789A74BA75CA76DA757
S11315207EA72FA780E290E09E01285F3F4F820FA5
S1131530931F9A83898389819A81FC0110828FA5E4
S1131540823010F48AE08FA78BA59CA5ADA5BEA51B
S11315508B839C83AD83BE838FA5282F30E040E02E
S113156050E08BA59CA5ADA5BEA5BC01CD010E94F4
S11315707E0DDA01C9018BA79CA7ADA7BEA79B81ED
S11315802BA58FA5289F802D1124F92FF81B8F2FB1
S11315908F8389819A8101979A8389838F818A3085
S11315A024F48F81805D282F03C08F81895C282FCC
S11315B089819A81FC0120838BA59CA5ADA5BEA53C
S11315C00097A105B10509F0BFCF29813A8189A50A
S11315D09AA5B9010E942C09E3960FB6F894DEBFD0
S11315E00FBECDBFDF91CF9108951F920F9200904F
S11315F05F000F9211248F939F93AF93BF93CF9368
S1131600DF93CDB7DEB72597DEBFCDBF8091F6025D
S11316109091F702A091F802B091F90289839A831C
S1131620AB83BC838091FA028D8389819A81AB81DB
S1131630BC810196A11DB11D89839A83AB83BC83B0
S11316408D818D5F8D838D818D3770F08D818D5768
S11316508D8389819A81AB81BC810196A11DB11DC5
S113166089839A83AB83BC838D818093FA028981B9
S11316709A81AB81BC818093F6029093F702A09388
S1131680F802B093F9028091F2029091F302A091D2
S1131690F402B091F5020196A11DB11D8093F202EE
S11316A09093F302A093F402B093F5020F900F907D
S11316B00F900F900F90DF91CF91BF91AF919F91B9
S11316C08F910F9000925F000F901F901895CF9309
S11316D0DF9300D000D000D0CDB7DEB78FE590E027
S11316E0FC0180818D83F8948091F2029091F30241
S11316F0A091F402B091F50289839A83AB83BC83F1
S113170086E490E0FC0180818E8385E390E0FC0117
S11317108081882F90E081709927009771F08E81E5
S11317208F3F59F089819A81AB81BC810196A11DBB
S1131730B11D89839A83AB83BC838FE590E02D81AF
S1131740FC01208389819A81AB81BC812227382FB7
S1131750492F5A2F8E81882F90E0A0E0B0E0820FAD
S1131760931FA41FB51F880F991FAA1FBB1F880FA3
S1131770991FAA1FBB1FBC01CD0126960FB6F89472
S1131780DEBF0FBECDBFDF91CF910895CF93DF931E
S113179000D000D000D0CDB7DEB76B837C838D83BF
S11317A09E830E94670BDC01CB019A83898320C04E
S11317B00E94670BDC01CB019C0189819A81A901FC
S11317C0481B590BCA01883E53E0950788F08B816A
S11317D09C81AD81BE810197A109B1098B839C8352
S11317E0AD83BE8389819A8188519C4F9A83898372
S11317F08B819C81AD81BE810097A105B105C1F6A5
S113180026960FB6F894DEBF0FBECDBFDF91CF9101
S11318100895CF93DF93CDB7DEB7789484E490E056
S113182024E430E0F90120812260FC01208384E477
S113183090E024E430E0F90120812160FC01208360
S113184085E490E025E430E0F90120812260FC0188
S1131850208385E490E025E430E0F90120812160D3
S1131860FC0120838EE690E02EE630E0F901208131
S11318702160FC01208381E890E0FC01108281E872
S113188090E021E830E0F90120812260FC0120830E
S113189081E890E021E830E0F90120812160FC0139
S11318A0208380E890E020E830E0F9012081216085
S11318B0FC01208381EB90E021EB30E0F9012081F1
S11318C02460FC01208380EB90E020EB30E0F90100
S11318D020812160FC0120838AE790E02AE730E040
S11318E0F90120812460FC0120838AE790E02AE743
S11318F030E0F90120812260FC0120838AE790E036
S11319002AE730E0F90120812160FC0120838AE785
S113191090E02AE730E0F90120812068FC0120836F
S113192081EC90E0FC011082DF91CF910895CF9378
S1131930DF931F92CDB7DEB789838981882F90E02A
S113194083309105A1F0843091053CF481309105F8
S113195011F18230910549F146C08630910579F143
S113196087309105B1F18430910559F03CC080E88D
S113197090E020E830E0F90120812F77FC012083FA
S113198032C080E890E020E830E0F90120812F7D2A
S1131990FC01208328C084E490E024E430E0F901D1
S11319A020812F77FC0120831EC084E490E024E48E
S11319B030E0F90120812F7DFC01208314C080EBED
S11319C090E020EB30E0F90120812F77FC012083A7
S11319D00AC080EB90E020EB30E0F90120812F7DFC
S11319E0FC01208300000F90DF91CF910895CF93E5
S11319F0DF93CDB7DEB765970FB6F894DEBF0FBEA1
S1131A00CDBF8C8B6D8B8C89882F90E0845D9D4F2E
S1131A109A83898389819A81FC0184918B838B8148
S1131A208C838C89882F90E0885E9D4F9E838D8364
S1131A308D819E81FC0184918F838F8188878C891D
S1131A40882F90E08C5F9D4F9A87898789859A8536
S1131A50FC0184918B878B858C878C85882309F482
S1131A6044C08C81882319F08C810E94970C8C854A
S1131A70882F90E0880F991F86509E4F9E878D87F0
S1131A808D859E85FC0125913491CF01388B2F875C
S1131A909E878D878F8598899A8B898B8FE590E0B7
S1131AA0FC0180818B8BF8948D89882371F489895A
S1131AB09A89FC018081982F888580958923282F15
S1131AC089899A89FC0120830BC089899A89FC0140
S1131AD090818885292F282B89899A89FC01208364
S1131AE08FE590E02B89FC01208365960FB6F8946E
S1131AF0DEBF0FBECDBFDF91CF910895A1E21A2EB4
S1131B00AA1BBB1BFD010DC0AA1FBB1FEE1FFF1F9D
S1131B10A217B307E407F50720F0A21BB30BE40BED
S1131B20F50B661F771F881F991F1A9469F7609534
S1131B307095809590959B01AC01BD01CF010895EE
S1131B40EE0FFF1F0590F491E02D0994FC01019024
S1131B500020E9F7809590958E0F9F1F0895F894C3
S1051B60FFCFB1
S1131B620000FB022000493243207363616E6E65FC
S1131B72722E205363616E6E696E67202E2E2E00C4
S1131B82466F756E6420616464726573733A2000F3
S1131B9220283078002900446F6E652E00466F7548
S1131BA26E642000206465766963652873292E00BB
S1131BB20000000025095D092509250925092509D3
S1131BC2000000002402F401C901D101E401F3017F
S1131BD20000000023085D093A079F076007FA071F
S10B1BE20000000025095D0963
S9030000FC
