S01400004D5055363035305F526561642E7372656378
S11300000C94860A0C94C0280C94F6280C94AE0A1E
S11300100C94AE0A0C94AE0A0C94AE0A0C94AE0A7C
S11300200C94AE0A0C94AE0A0C94AE0A0C94AE0A6C
S11300300C94AE0A0C94AE0A0C94AE0A0C94AE0A5C
S11300400C942C290C94AE0A0C94F01E0C944E1FA4
S11300500C94AE0A0C94AE0A0C94AE0A0C94AE0A3C
S11300600C9499120C94AE0AA513A913A913A913FD
S1130070A913A913A913A913B712A913A913A9138F
S1130080A913A913A913A913B712A913A913A9137F
S1130090A913A913A913A913BF12A913A913A91367
S11300A0A913A913A913A913E512A913A913A91331
S11300B0A913A913A913A913BF12A913A913A91347
S11300C0A913A913A913A913EB12A913A913A9130B
S11300D0A913A913A913A913F112A913A913A913F5
S11300E0A913A913A913A9130313A913A913A913D2
S11300F0A913A913A913A9132D13A913A913A91398
S1130100A913A913A913A913F712A913A913A913BE
S1130110A913A913A913A9131113A913A913A91393
S1130120A913A913A913A9133013A913A913A91364
S1130130A913A913A913A9133013A913A913A91354
S1130140A913A913A913A9133013A913A913A91344
S1130150A913A913A913A9133013A913A913A91334
S1130160A913A913A913A9133913A913A913A9131B
S1130170A913A913A913A9136C13A913A913A913D8
S1130180A913A913A913A9133913A913A913A913FB
S1130190A913A913A913A9136C13A913A913A913B8
S11301A0A913A913A913A9135113A913A913A913C3
S11301B0A913A913A913A9137013A913A913A91394
S11301C0A913A913A913A9137013A913A913A91384
S11301D0A913A913A913A9138513A913A913A9135F
S11301E0A913A913A913A9139F13A913A913A91335
S11301F0A913A913A913A9139F134649464F206FA6
S1130200766572666C6F7721002900444D50204951
S11302106E697469616C697A6174696F6E20666174
S1130220696C65642028636F64652000444D502028
S11302307265616479212057616974696E6720660B
S11302406F7220666972737420696E746572727558
S113025070742E2E2E00456E61626C696E67206983
S11302606E74657272757074206465746563746904
S11302706F6E202841726475696E6F2065787465AD
S1130280726E616C20696E74657272757074203060
S1130290292E2E2E00456E61626C696E6720444DD6
S11302A0502E2E2E00496E697469616C697A696EEC
S11302B06720444D502E2E2E000A53656E64206133
S11302C06E792063686172616374657220746F2053
S11302D0626567696E20444D502070726F67726169
S11302E06D6D696E6720616E642064656D6F3A2080
S11302F0004D50553630353020636F6E6E65637433
S1130300696F6E206661696C6564004D50553630C6
S1130310353020636F6E6E656374696F6E2073751C
S1130320636365737366756C0054657374696E6793
S11303302064657669636520636F6E6E65637469B6
S11303406F6E732E2E2E00496E697469616C697A22
S1130350696E672049324320646576696365732E4C
S11303602E2E004552524F522120444D5020636F8F
S1130370646520766572696669636174696F6E206D
S11303806661696C65642E004552524F52212044C7
S11303904D5020636F6E66696775726174696F6E24
S11303A020766572696669636174696F6E2066613F
S11303B0696C65642E00526573657474696E672098
S11303C04649464F20616E6420636C656172696EB4
S11303D06720494E5420737461747573206F6E6581
S11303E0206C6173742074696D652E2E2E00536524
S11303F07474696E6720757020696E7465726E61BD
S11304006C2034322D6279746520286465666175C8
S11304106C742920444D50207061636B65742062B4
S113042075666665722E2E2E0044697361626C696E
S11304306E6720444D502028796F75207475726E54
S1130440206974206F6E206C61746572292E2E2EC3
S113045000444D5020697320676F6F6420746F20CF
S1130460676F212046696E616C6C792E0057726942
S113047074696E672066696E616C206D656D6F725C
S1130480792075706461746520372F37202866756C
S11304906E6374696F6E20756E6B6E6F776E292E46
S11304A02E2E0043757272656E7420696E746572C7
S11304B072757074207374617475733D0052656154
S11304C064696E6720696E746572727570742073E6
S11304D074617475732E2E2E0052656164696E67A3
S11304E0204649464F20646174612E2E2E004375C8
S11304F07272656E74204649464F20636F756E7440
S11305003D0057616974696E6720666F72204649C1
S1130510464F20636F756E74203E20322E2E2E00BF
S113052052656164696E672066696E616C206D65F1
S11305306D6F72792075706461746520362F372071
S11305402866756E6374696F6E20756E6B6E6F7757
S11305506E292E2E2E0043757272656E7420696E9C
S113056074657272757074207374617475733D0070
S113057052656164696E6720696E74657272757024
S113058074207374617475732E2E2E005265616429
S1130590696E67204649464F20646174612E2E2E91
S11305A00043757272656E74204649464F20636F2E
S11305B0756E743D0057616974696E6720666F7269
S11305C0204649464F20636F756E74203E20322EBC
S11305D02E2E0057726974696E672066696E616CAD
S11305E0206D656D6F727920757064617465203556
S11305F02F37202866756E6374696F6E20756E6B75
S11306006E6F776E292E2E2E0057726974696E678D
S11306102066696E616C206D656D6F7279207570EE
S11306206461746520342F37202866756E6374699D
S11306306F6E20756E6B6E6F776E292E2E2E00579F
S1130640726974696E672066696E616C206D656D90
S11306506F72792075706461746520332F37202898
S113066066756E6374696F6E20756E6B6E6F776EF0
S1130670292E2E2E00526573657474696E672044AA
S11306804D502E2E2E00456E61626C696E672044BB
S11306904D502E2E2E00456E61626C696E672046A9
S11306A049464F2E2E2E00526573657474696E6729
S11306B0204649464F2E2E2E0053657474696E678A
S11306C0207A65726F2D6D6F74696F6E2064657426
S11306D0656374696F6E206475726174696F6E20EE
S11306E0746F20302E2E2E0053657474696E67204B
S11306F06D6F74696F6E20646574656374696F6E81
S1130700206475726174696F6E20746F2038302EA6
S11307102E2E0053657474696E67207A65726F2D8E
S11307206D6F74696F6E20646574656374696F6E50
S1130730207468726573686F6C6420746F2031353F
S1130740362E2E2E0053657474696E67206D6F7497
S1130750696F6E20646574656374696F6E20746874
S1130760726573686F6C6420746F20322E2E2E00B5
S113077043757272656E74204649464F20636F75E7
S11307806E743D0052656164696E67204649464F48
S113079020636F756E742E2E2E005265736574740B
S11307A0696E67204649464F2E2E2E005772697493
S11307B0696E672066696E616C206D656D6F727914
S11307C02075706461746520322F37202866756E39
S11307D06374696F6E20756E6B6E6F776E292E2E43
S11307E02E0057726974696E672066696E616C20A9
S11307F06D656D6F72792075706461746520312F39
S113080037202866756E6374696F6E20756E6B6E23
S11308106F776E292E2E2E0053657474696E6720CF
S1130820582F592F5A206779726F206F6666736547
S1130830742054437320746F2070726576696F75E9
S1130840732076616C7565732E2E2E00436C656182
S113085072696E67204F54502042616E6B20666C43
S113086061672E2E2E0053657474696E6720444DA3
S11308705020636F6E66696775726174696F6E206C
S11308806279746573202866756E6374696F6E206F
S1130890756E6B6E6F776E292E2E2E0053657474F1
S11308A0696E67206779726F2073656E7369746906
S11308B07669747920746F202B2F2D2032303030DC
S11308C0206465672F7365632E2E2E005365747440
S11308D0696E6720444C50462062616E6477696497
S11308E0746820746F203432487A2E2E2E0053659B
S11308F07474696E672065787465726E616C2066C5
S113090072616D652073796E6320746F2054454D58
S1130910505F4F55545F4C5B305D2E2E2E00536557
S11309207474696E672073616D706C652072617494
S11309306520746F20323030487A2E2E2E00536595
S11309407474696E6720444D5020616E642046497A
S1130950464F5F4F464C4F5720696E7465727275EF
S113096070747320656E61626C65642E2E2E005364
S1130970657474696E6720636C6F636B20736F7545
S113098072636520746F205A204779726F2E2E2E61
S113099000537563636573732120444D5020636F66
S11309A06E66696775726174696F6E2077726974B7
S11309B074656E20616E642076657269666965642B
S11309C02E0020627974657320696E20636F6E66F1
S11309D0696720646566290057726974696E6720C7
S11309E0444D5020636F6E66696775726174696FF8
S11309F06E20746F204D5055206D656D6F72792097
S1130A0062616E6B73202800537563636573732191
S1130A1020444D5020636F64652077726974746557
S1130A206E20616E642076657269666965642E0065
S1130A30206279746573290057726974696E67203E
S1130A40444D5020636F646520746F204D505520D1
S1130A506D656D6F72792062616E6B732028005230
S1130A606573657474696E6720493243204D617300
S1130A7074657220636F6E74726F6C2E2E2E005329
S1130A80657474696E6720736C61766520302061CB
S1130A9064647265737320746F203078363820284C
S1130AA073656C66292E2E2E0044697361626C692D
S1130AB06E6720493243204D6173746572206D6FF7
S1130AC064652E2E2E0053657474696E6720736CF2
S1130AD06176652030206164647265737320746F7D
S1130AE020307837462E2E2E005A206779726F20D8
S1130AF06F6666736574203D200059206779726FB4
S1130B00206F6666736574203D20005820677972F3
S1130B106F206F6666736574203D200052656164C2
S1130B20696E67206779726F206F666673657420DB
S1130B3054432076616C7565732E2E2E00696E7693
S1130B40616C6964210076616C696421004F5450C2
S1130B502062616E6B206973200052656164696E66
S1130B6067204F54502062616E6B2076616C69641B
S1130B7020666C61672E2E2E00526573657474694D
S1130B806E67206D656D6F72792062616E6B207384
S1130B90656C656374696F6E20746F20302E2E2E21
S1130BA0005265766973696F6E20402075736572B3
S1130BB05B31365D5B365D203D2000436865636BC9
S1130BC0696E672068617264776172652072657608
S1130BD06973696F6E2E2E2E0053656C656374699C
S1130BE06E67206D656D6F72792062797465203649
S1130BF02E2E2E0053656C656374696E67207573C1
S1130C0065722062616E6B2031362E2E2E0044698F
S1130C107361626C696E6720736C656570206D6FBB
S1130C2064652E2E2E000A0A526573657474696E0B
S1130C3067204D5055363035302E2E2E0001B2022D
S1130C40FFFF0190040923A135016A020600016037
S1130C5008000000000000000000600440000000E4
S1130C60016202000000600400400000037B034CAA
S1130C70CD6C03AB0336567600680402CB47A20260
S1130C80180400058BC1010C0400000000037F065A
S1130C900CC92C979797038903264666006C02209B
S1130CA000024004000000000244040000000002AE
S1130CB0480400000000024C04000000000250043C
S1130CC00000000002540400000000025804000068
S1130CD00000025C040000000002BC0400000000EC
S1130CE001EC0400004000037F060CC92C97979781
S1130CF00402030D355D040904872D353D00A3016D
S1130D000000000001078601FE074105F12028309C
S1130D1038077E01300746019A074704F128303826
S1130D20076C04F12830380216020001FB00003E73
S1130D30000B0036000100020003000000650054AF
S1130D40FFEF0000FA80000B128200010002000095
S1130D500000000000000000000000000028000067
S1130D60FFFF4581FFFFFA7200000000000003E866
S1130D700000000100017FFFFFFE8001001B000056
S1130D80000000000000000000000000003E0330EE
S1130D904000000002CAE3093E8000002000000079
S1130DA000000000400000006000000041FF00005F
S1130DB000000B2A0000165500002182FD872650F2
S1130DC0FD800000001F00000005800000000000FE
S1130DD000010000000200000003000040000000C9
S1130DE00000046F0002653200005EC04000000095
S1130DF0000000000000000000000000FB8C6F5D9C
S1130E00FD5D08D9007C733B006C12CC3200139D4D
S1130E103200D0D632000800400001F4FFE68079A9
S1130E20020000000000D0D600002710FB000000E4
S1130E30400000000000000000000000000000016D
S1130E400000000000000100010000000000FA366C
S1130E50FFBC308E0005FBF0FFD95BC8FFD09ABE03
S1130E60000010A9FFF41EB200CEBBF70000000181
S1130E7000000004000200020200000CFFC2800017
S1130E800001800000CF800040000000000000014D
S1130E900000000000000600000000140000000034
S1130EA0000000000000000000000000000000003E
S1130EB0000000000000000000000000000000002E
S1130EC0000000000000000000000000000000001E
S1130ED0033F68B6793528BCC67ED16C800000001B
S1130EE0400000000000B26A0000000000000000A2
S1130EF00000000000003FF000000030000000008F
S1130F0000000000000000000000000000000000DD
S1130F100000000000000000000000000000254D5B
S1130F20002F706D000005AE000C02D00000000020
S1130F3000650054FFEF0000000000000000010005
S1130F400044000000000C0000000100000000004C
S1130F500065000000540000FFEF000000000000E6
S1130F60000000000000000000000000400000003D
S1130F70000000000000000000000000400000002D
S1130F80000000000000000000000000000000015C
S1130F90000000020000000000000000000000004B
S1130FA0000000000000000000000000000000003D
S1130FB0000000000000000000000000001B000012
S1130FC0000000000000000000000000000000001D
S1130FD0000000000000000000000000000000000D
S1130FE0000000000000000040000000001B0000A2
S1130FF000000000000000000000000000000000ED
S113100000000000000000000000000000000000DC
S113101000000000000000000000000000000000CC
S1131020000000000000000000000000D8DCBAA2AC
S1131030F1DEB2B8B4A88191F74A907F916AF3F9CE
S1131040DBA8F9B0BAA080F2CE81F3C2F1C1F2C339
S1131050F3CCA2B280F1C6D880BAA7DFDFDFF2A753
S1131060C3CBC5B6F087A2942448703C954068343D
S1131070589B78A2F183922D557DD8B1B4B8A1D0F4
S11310809180F270F370F27C80A8F101B09887D956
S113109043D886C988BAA1F20EB89780F1A9DFDFD8
S11310A0DFAADFDFDFF2AAC5CDC7A90CC92C979749
S11310B09797F1A989264666B0B4BA80ACDEF2CA25
S11310C0F1B28C02A9B69800890E161EB8A9B4997B
S11310D02C547CB08AA896365676F1B9AFB4B08356
S11310E0C0B8A89711B18F98B9AFF0240844106420
S11310F018F1A329557DAF83B593AFF0002850F1C3
S1131100A3869F61A6DADEDFD9FAA38696DB31A631
S1131110D9F8DFBAA68FC2C5C7B28CC1B8A2DFDFC7
S1131120DFA3DFDFDFD8D8F1B8A8B286B4980D35D5
S11311305DB8AA98B0872D353DB2B6BAAF8C961972
S11311408F9FA70E161EB49AB8AA872C547CB9A3F5
S1131150DEDFDFA3B180F2C4CDC9F1B8A9B49983AD
S11311600D355D89B9A32D557DB593A30E161EA922
S11311702C547CB8B4B0F19783A81184A50998A322
S113118083F0DA240844106418D8F1A529557DA504
S11311908595021A2E3A565A4048F9F3A3D9F8F025
S11311A098832408441064189782A8F111F098A237
S11311B0240844106418DAF3DED883A59401D9A373
S11311C002F1A2C3C5C7D8F18492A24DDA2AD84845
S11311D069D92AD86855DA32D85071D932D8705DB5
S11311E0DA3AD85879D93AD87893A34DDA2AD84834
S11311F069D92AD86855DA32D85071D932D8705D95
S1131200DA3AD85879D93AD878A88A9AF02850780E
S11312109EF38818F19F1D98A8D908D8C89F129EDC
S1131220F315A8DA1210D8F1AFC8978734B5B9947A
S1131230A421F3D922D8F22DF3D92AD8F235F3D93F
S113124032D881A4606061D961D86C6869D969D8E1
S1131250747071D971D8B1A384193D5DA3831A3E0A
S11312605E931030811011B8B0AF8F94F2DA3ED88B
S1131270B49AA88729DAF8D8879A35DAF8D8879AF9
S11312803DDAF8D8B1B9A49885022E56A581000C90
S113129014A397B08AF12DD928D84DD948D86DD93F
S11312A068D8B1840DDA0ED8A32983DA2C0ED8A31A
S11312B0844983DA2C4C0ED8B8B0A88A9AF520AAAF
S11312C0DADFD8A840AAD0DADED8A860AADAD0DF5C
S11312D0D8F19786A8319B069907AB9728889BF08D
S11312E00C201440B8B0B4A88C9CF0042851791D8B
S11312F0301438B282ABD0982C505078789BF11AC5
S1131300B0F08A9CA82951798B2951798A24705983
S11313108B2058718A4469388B3940688A64483113
S11313208B304960A5882009715844681139644993
S11313303019F1AC002C547CF08CA804285078F1BE
S1131340889726A85998AC8C02264666F0899CA8F2
S1131350295179247059446938644831A98809208D
S11313605970AB11384069A8193148608CA83C41C8
S11313705C207C00F187981986A86E767EA99988EE
S11313802D557D9EB9A38A228A6E8A568A5E9FB1A4
S113139083062646660E2E4E6E9DB8AD002C547CF8
S11313A0F2B18CB499B9A32D557D8191AC38AD3A85
S11313B0B58391AC2DD928D84DD948D86DD968D8E2
S11313C08C9DAE29D904AED851D904AED879D904AC
S11313D0D881F39DAD008DAE1981ADD901D8F2AE9F
S11313E0DA26D88E912983A7D9ADADADADF32AD82D
S11313F0D8F1B0AC89913E5E76F3AC2E2EF1B18C6F
S11314005A9CAC2C2828289CAC3018A898812834E5
S11314103C9724A728343C9C24F2B089AC912C4CF2
S11314206C8A9B2DD9D8D851D9D8D879D9D8D8F1A4
S11314309E88A331DAD8D8912DD928D84DD948D847
S11314406DD968D8B18393353D8025DAD8D88569BC
S1131450DAD8D8B49381A328343CF3AB8BF8A391A6
S1131460B609B4D9ABDEFAB0879CB9A3DDF1A3A366
S1131470A3A395F1A3A3A39DF1A3A3A3A3F2A3B450
S11314809080F2A3A3A3A3A3A3A3A3A3A3B2A3A300
S1131490A3A3A3A3B087B599F1A3A3A398F1A3A38E
S11314A0A3A397A3A3A3A3F39BA3A3DCB9A7F126A8
S11314B02626D8D8FF00000000240027002A0000B8
S11314C0000000250028002B000404040404040484
S11314D004020202020202030303030303010204DF
S11314E008102040800102040810200102040810A2
S11314F020000000070002010000030406000000B1
S11315000000000000009B11161C202311241FBEA4
S1131510CFEFD8E0DEBFCDBF11E0A0E0B1E0E6E957
S1131520FEE502C005900D92AA35B107D9F723E074
S1131530AAE5B1E001C01D92A136B207E1F715E1B9
S1131540CCE0D5E104C02297FE010E94FE2CC630F7
S1131550D107C9F70E94041C0C94492F0C94000075
S113156028E6FC0120830895462F69E1FC0180816F
S11315700E94000F08950F93062F23E045E06AE1CF
S1131580FC0180810E9474100F9108950F93062F1F
S113159023E042E06AE1FC0180810E9474100F9113
S11315A008950F93062F22E044E06BE1FC01808153
S11315B00E9474100F9108950F93062F22E044E0C7
S11315C06CE1FC0180810E9474100F910895462FF4
S11315D06FE1FC0180810E94000F0895462F60E2B4
S11315E0FC0180810E94000F0895462F61E2FC01F6
S11315F080810E94000F0895462F62E2FC018081E1
S11316000E94000F0895643040F4262F220F620FC9
S11316106B5DFC0180810E94000F0895462F68E3F2
S1131620FC0180810E94000F0895CF93DF93EC01A9
S113163020915A0130915B01AC014F5F5F4F6AE327
S113164088810E94C80F8981DF91CF910895262F48
S113165046E06AE6FC0180810E9439100895262F35
S113166045E06AE6FC0180810E943910089521E07A
S113167042E06AE6FC0180810E943910089521E06D
S113168041E06AE6FC0180810E943910089521E05E
S113169047E06BE6FC0180810E9439100895262FF3
S11316A046E06BE6FC0180810E94391008950F9397
S11316B0062F23E042E06BE6FC0180810E94741057
S11316C00F910895CF93DF93EC0161E00E94570BD3
S11316D060E0CE010E94D10A60E0CE010E94DC0AE3
S11316E060E0CE010E944F0BDF91CF9108950F93DC
S11316F01F93CF93DF93EC0100915A0110915B018A
S11317009C012F5F3F4F42E062E788810E94100FE7
S1131710898190E0982F88272A81822BDF91CF91AD
S11317201F910F9108950F931F939B0100915A01EC
S113173010915B0164E7FC0180810E94100F1F91EE
S11317400F910895EF92FF920F931F93CF93DF931E
S1131750EC01E0905A01F0905B018C010F5F1F4F88
S113176026E046E065E788810E94F90F8981DF91D0
S1131770CF911F910F91FF90EF9008950E94A20BBB
S113178091E0843309F090E0892F08950F931F931B
S1131790CF93DF93EC0100915A0110915B019C01FE
S11317A02F5F3F4F40E060E088810E94D20F898123
S11317B0DF91CF911F910F910895262F40E060E0B3
S11317C0FC0180810E9439100895EF92FF920F93DB
S11317D01F93CF93DF93EC01E0905A01F0905B01EB
S11317E08C010F5F1F4F26E046E060E088810E9475
S11317F0F90F8981DF91CF911F910F91FF90EF90A5
S113180008950F93062F26E046E060E0FC018081F6
S11318100E9474100F910895EF92FF920F931F93FB
S1131820CF93DF93EC01E0905A01F0905B018C01BF
S11318300F5F1F4F26E046E061E088810E94F90FA8
S11318408981DF91CF911F910F91FF90EF900895BF
S11318500F93062F26E046E061E0FC0180810E94A0
S113186074100F910895EF92FF920F931F93CF93EB
S1131870DF93EC01E0905A01F0905B018C010F5F63
S11318801F4F26E046E062E088810E94F90F8981BB
S1131890DF91CF911F910F91FF90EF9008950F93D7
S11318A0062F26E046E062E0FC0180810E9474106D
S11318B00F910895262F47E06AE6FC0180810E947B
S11318C03910089521E043E06AE6FC0180810E941A
S11318D0391008956F712111606241116064462FBF
S11318E06DE6FC0180810E94000F0895462F6EE68C
S11318F0FC0180810E94000F0895CF93DF93EC01D7
S113190020915A0130915B01AC014F5F5F4F6FE64C
S113191088810E94C80F8981DF91CF9108954F92E9
S11319205F926F927F928F929F92AF92BF92CF926B
S1131930DF92EF92FF920F931F93CF93DF936C018B
S11319405B017A01522E602E20E040E0652D0E945A
S11319506A0C602FC6010E94760CE114F104D9F1DF
S1131960C0E0D0E06894442444F8812C99249394F2
S1131970CE014096E816F90618F47E2C7C1A01C0B4
S1131980742C272D30E0C40186199109821793071E
S113199014F4762C719400915A0110915B01950115
S11319A02C0F3D1F472D6FE6F60180810E94100F1A
S11319B0C70DD11DCE15DF0570F4670C09F45394DF
S11319C020E040E0652DC6010E946A0C662DC60128
S11319D00E94760CCDCFDF91CF911F910F91FF9094
S11319E0EF90DF90CF90BF90AF909F908F907F90BB
S11319F06F905F904F9008952F923F924F925F9215
S1131A006F927F928F929F92AF92BF92CF92DF920A
S1131A10EF92FF920F931F93CF93DF9300D000D0E8
S1131A201F92CDB7DEB74C012B013A012983D02E8A
S1131A30EB82CA8220E040E069810E946A0C602F38
S1131A40C4010E94760CEB80EE2029F080E190E046
S1131A500E94022D1C018A81882329F080E190E0F4
S1131A600E94022D5C016114710409F482C01D827C
S1131A701C82E12CFF24F3948C819D81409668168E
S1131A80790620F4C62C9C81C91A03C06894CC241E
S1131A90C4F82C2D30E0C7018D19910982179307E2
S1131AA014F4CD2CC194EA81EE2389F0CC2099F072
S1131AB0EC81FD81E40DF51D9A2DAA2DBB2D849199
S1131AC08D9331968A2F891B8C15C8F304C0AC8082
S1131AD0BD80A40CB51C95014C2D6FE6F4018081EA
S1131AE00E94D20EFB81FF2359F12114310441F1EC
S1131AF020E040E06981C4010E946A0C6D2DC4019C
S1131B000E94760C00915A0110915B0191014C2DB9
S1131B106FE6F40180810E94100F4C2D50E0B1015A
S1131B20C5010E94F32E892B59F0C1010E949A2D00
S1131B30FA81FF2361F1C5010E949A2D80E02AC039
S1131B408C819D818C0D911D9D838C8386159705B9
S1131B5080F4DC0C19F499819F5F998320E040E0C4
S1131B606981C4010E946A0C6D2DC4010E94760C27
S1131B7083CFEB81EE2319F0C1010E949A2DFA81E3
S1131B80FF2339F0C5010E949A2D81E003C080E053
S1131B9001C081E00F900F900F900F900F90DF9194
S1131BA0CF911F910F91FF90EF90DF90CF90BF9056
S1131BB0AF909F908F907F906F905F904F903F90E9
S1131BC02F900895CF92EF920F93CC24C3940E9448
S1131BD0FC0C0F91EF90CF9008952F923F924F926B
S1131BE05F926F927F928F929F92AF92BF92CF92A9
S1131BF0DF92EF92FF920F931F93CF93DF9300D066
S1131C001F92CDB7DEB71C017B836A833A01298317
S1131C10222309F481C088E090E00E94022D4C0147
S1131C207BC0E12CF12C89818823D1F0EA81FB81EE
S1131C30EE0DFF1DD490F70131968A819B81E80F48
S1131C40F91F0491570193E0A90EB11CF7013296D4
S1131C508A819B81E80FF91F1491111172C03AC057
S1131C60EA81FB81EE0DFF1DD0800181570193E0D5
S1131C70A90EB11C1281111168C035C0612F70E02A
S1131C80C4010E94292E4C01812F90E0009789F015
S1131C90D40120E030E04A815B814A0D5B1DFA01EA
S1131CA0E20FF31FE491ED932F5F3F4F281739079D
S1131CB0B0F3412E512CC12CEE24E3942D2DA2011E
S1131CC0B401C1010E94FC0C7201EA0CFB1C8111DD
S1131CD028C01AC0E4E0EE0EF11CEA81FB81EA0D93
S1131CE0FB1D849108C0F4E0EF0EF11CEA81FB8136
S1131CF0EA0DFB1D8081813039F442E368E3F10190
S1131D0080810E94000F0DC0F981FF23B1F0C4014E
S1131D100E949A2D80E01EC06114710409F081CFE5
S1131D2004C0E614F70408F47ECF8981882339F0CF
S1131D30C4010E949A2D81E00DC080E00BC081E0B7
S1131D4009C0133008F4A0CF99CF8A809B808A0CF5
S1131D509B1CAFCF0F900F900F90DF91CF911F91ED
S1131D600F91FF90EF90DF90CF90BF90AF909F9036
S1131D708F907F906F905F904F903F902F90089539
S1131D8021E00E94ED0D0895462F60E7FC0180815B
S1131D900E94000F0895462F61E7FC0180810E9494
S1131DA0000F0895FF920F931F93CF93DF93C62FD5
S1131DB0042FF22E132F682F8CE591E00E947A11E4
S1131DC06C2F8CE591E00E941D11002359F0CF2D5A
S1131DD0D12F10E069918CE591E00E941D111F5FE5
S1131DE01013F8CF8CE591E00E94971191E08111D6
S1131DF090E0892FDF91CF911F910F91FF9008956B
S1131E00CF93DF931F92CDB7DEB749839E012F5F37
S1131E103F4F41E00E94D20E0F90DF91CF91089581
S1131E202F923F924F925F926F927F928F929F92E6
S1131E30AF92BF92CF92DF92EF92FF920F931F93D4
S1131E40CF93DF9300D000D000D0CDB7DEB7982E6B
S1131E506983842E59010E949E296B017C0188208C
S1131E6009F45FC0212C312C882D90E09B838A8358
S1131E702801612C712C8C82692D8CE591E00E94E3
S1131E807A1169818CE591E00E941D118CE591E045
S1131E900E949711692D8CE591E00E947A114A8184
S1131EA05B81421951094132510514F040E250E07E
S1131EB0692D8CE591E00E9476110FC0F501E30DC8
S1131EC0F11D37FCFA95FE83ED838CE591E00E94C9
S1131ED0CA10ED81FE81808333948CE591E00E94E9
S1131EE0C210892B81F00115110541F30E949E292E
S1131EF0DC01CB018C199D09AE09BF098415950538
S1131F00A605B705D8F28CE591E00E9497118C8163
S1131F10F0E2F81508F480E2280E281408F4ACCF97
S1131F2001C0312C01151105C9F00E949E29DC0164
S1131F30CB018C199D09AE09BF0920E030E0801760
S1131F409107A207B30750F0912C832D992787FDA1
S1131F5090958815990514F433243A94832D269684
S1131F600FB6F894DEBF0FBECDBFDF91CF911F91A6
S1131F700F91FF90EF90DF90CF90BF90AF909F9024
S1131F808F907F906F905F904F903F902F90089527
S1131F900F931F9389019A0141E00E94100F1F9132
S1131FA00F910895DF92EF92FF920F931F93CF93B7
S1131FB0DF931F92CDB7DEB7D42E79019801AE011D
S1131FC04F5F5F4F0E94C80F21E030E0A90102C0BB
S1131FD0440F551FDA94E2F799814923F7014083AE
S1131FE00F90DF91CF911F910F91FF90EF90DF90B1
S1131FF00895CF92DF92EF92FF920F931F93CF93A6
S1132000DF931F92CDB7DEB7C42ED22E9701AE0157
S11320104F5F5F4F0E94C80F882309F14C2D50E099
S11320204D1951094F5F5F4F61E070E09B0102C0A1
S1132030220F331FDA94E2F721503109042E02C033
S1132040220F331F0A94E2F79981292330E0B90162
S113205002C0759567954A95E2F7F80160830F9081
S1132060DF91CF911F910F91FF90EF90DF90CF9070
S11320700895EF92FF920F931F93CF93DF931F92D4
S1132080CDB7DEB7182F062FF42EE22E20915A0179
S113209030915B01AE014F5F5F4F0E94C80FEE208D
S11320A059F021E030E0A90102C0440F551FFA9411
S11320B0E2F78981482B0BC021E030E0A90102C07E
S11320C0440F551FFA94E2F74095898148234983C8
S11320D0602F812F0E94000F0F90DF91CF911F91ED
S11320E00F91FF90EF900895DF92EF92FF920F937C
S11320F01F93CF93DF931F92CDB7DEB7F82EE62E52
S1132100D42E122F20915A0130915B01AE014F5F02
S11321105F4F0E94C80F882359F14D2D50E0411B99
S113212051094F5F5F4F81E090E09C0102C0220F94
S1132130331F1A95E2F721503109042E02C0220FF1
S1132140331F0A94E2F710E0C80102C0880F991FF8
S11321504A95E2F7AC01922F909589818923242333
S1132160482F422B49836E2D8F2D0E94000F01C0F2
S113217080E00F90DF91CF911F910F91FF90EF902E
S1132180DF90089580918C0190E020918D01821B55
S11321909109089520918D0180918C01281750F4A4
S11321A0E22FF0E0E257FE4F808190E02F5F209312
S11321B08D0108958FEF9FEF0895E0918D01809137
S11321C08C01E81730F4F0E0E257FE4F808190E094
S11321D008958FEF9FEF08950895CF92DF92EF92C5
S11321E0FF920F931F93CF93DF938C017B016A01BE
S11321F080916801882399F041155105A1F0EB0104
S1132200E40EF51E6991D801ED91FC910190F081E5
S1132210E02DC8010995CE15DF05A1F704C0642F90
S1132220C7010E946912C601DF91CF911F910F91DE
S1132230FF90EF90DF90CF900895CF93DF931F929C
S1132240CDB7DEB76983209168012223E1F02091A4
S11322506901203240F021E030E0FC013383228325
S113226080E090E017C080916A01E82FF0E0E55922
S1132270FE4F998190838F5F80936A0180936901F7
S113228081E090E007C061E0CE0101960E946912EE
S113229081E090E00F90DF91CF910895FC011382CB
S11322A0128248EE53E060E070E044835583668315
S11322B0778388E291E091838083089510928D0161
S11322C010928C0110926A01109269010E94A0116F
S11322D00895862F413208F040E26EE871E00E94D2
S11322E0BE1110928D0180938C01089521E00E940B
S11322F06911089581E08093680160938B011092C5
S11323006A011092690108950F93062F21E040910C
S113231069016BE671E080918B010E940C121092AE
S11323206A0110926901109268010F91089561E0A9
S11323300E94841108958CE591E00E944E11089545
S113234010921B0281E0809319021092180261E03E
S113235082E10E94232C61E083E10E94232CE9EBBB
S1132360F0E080818E7F808380818D7F808388E40C
S11323708093B80085E48093BC000895413208F04E
S113238045C090911B029111FCCF91E090931B02E8
S1132390209319022FEF2093AE011092F301240F22
S11323A02093F20190931A0290911A02880F892BBC
S11323B080931A0280911802813051F4109218020D
S11323C080911A028093BB0085EC8093BC0003C00B
S11323D085EE8093BC0080911B028130E1F38091F3
S11323E0F301841710F44091F301442389F0E4EFDE
S11323F0F1E0A62FB72F2FEF240F30E02B503E4FE4
S113240091919D93E217F307D9F704C080E00895F2
S1132410842F0895842F08950F93413208F050C0FB
S113242090911B029111FCCF92E090931B020093B8
S113243019029FEF9093AE011092F3014093F201C1
S1132440442369F0FB01A4EFB1E06F5F7F4F41507B
S1132450640F711D91919D93E617F707D9F71092B8
S11324601A0290911A02880F892B80931A02809184
S11324701802813051F41092180280911A0280934C
S1132480BB0085EC8093BC0003C085EE8093BC0048
S1132490222341F080911B02823021F480911B029F
S11324A08230E1F38091AE018F3F61F08091AE0103
S11324B0803251F08091AE01803341F483E007C053
S11324C081E005C080E003C082E001C084E00F9198
S11324D008956132A8F420911B02243099F460938A
S11324E0D001662389F0FC01A2EDB1E001966150B0
S11324F0860F911D21912D93E817F907D9F706C08E
S113250081E0089582E0089580E0089580E00895D0
S113251085ED8093BC00ECEBF0E0808184FDFDCF81
S113252010921B02089585EC8093BC0010921B024C
S113253008951F920F920FB60F9211242F933F9379
S11325404F935F936F937F938F939F93AF93BF93B7
S1132550EF93FF938091B900887F90E0893C9105C7
S113256008F0F7C0FC01EC5CFF4F0C94FC2C80914C
S11325701A028093BB0085EC8093BC00EAC0909162
S1132580F3018091F201981780F4E091F30181E066
S11325908E0F8093F301F0E0EC50FE4F8081809326
S11325A0BB0085EC8093BC00D4C0809119028823C1
S11325B019F00E948812CDC081E08093180284EA49
S11325C08093BC0010921B02C4C080E28093AE01D1
S11325D00E948812BEC080E38093AE010E948812DC
S11325E0B8C088E38093AE010E949312B2C0E09118
S11325F0F30181E08E0F8093F3018091BB00F0E042
S1132600EC50FE4F80839091F3018091F201981772
S113261020F485EC8093BC009CC085E88093BC00CA
S113262098C0E091F30181E08E0F8093F3018091D3
S1132630BB00F0E0EC50FE4F8083809119028823A8
S113264019F00E94881285C081E08093180284EA00
S11326508093BC0010921B027CC00E94881279C037
S113266083E080931B021092AF0185EC8093BC0041
S113267070C08091AF01803280F4E091AF0181E0BD
S11326808E0F8093AF018091BB00F0E0E055FE4FC8
S1132690808385EC8093BC005CC085E88093BC009B
S11326A058C08091AF01803230F4E091AF01F0E086
S11326B0E055FE4F10820E9488126091AF0170E0D5
S11326C0E0911402F091150280EB91E009951092CB
S11326D0AF010E9493123DC085E88093BC0039C0CD
S11326E084E080931B021092D1011092D001E091FA
S11326F01602F091170209958091D001811105C04D
S113270081E08093D0011092D201E091D10181E067
S11327108E0F8093D101F0E0EE52FE4F80818093C2
S1132720BB009091D1018091D001981720F485ECE1
S11327308093BC000EC085E88093BC000AC085EC81
S11327408093BC0010921B0204C01092AE010E9440
S11327508812FF91EF91BF91AF919F918F917F91DB
S11327606F915F914F913F912F910F900FBE0F90FA
S11327701F90189581E080931C0208956F927F92B8
S11327808F929F92AF92BF92CF92EF920F931F932B
S1132790CF93DF93CDB7DEB7C059D1090FB6F89404
S11327A0DEBF0FBECDBF3C0166E27CE08EE293E06B
S11327B00E946E25C3010E94470B6EE170E080E029
S11327C090E00E94292A6EE07CE08EE293E00E9471
S11327D06E2560E0C3010E944F0B64EF7BE08EE244
S11327E093E00E946E2521E041E060E1C3010E9474
S11327F06A0C69ED7BE08EE293E00E946E2566E050
S1132800C3010E94760C6BEB7BE08EE293E00E94A6
S11328106E25C3010E947D0C182F61EA7BE08EE2D5
S113282093E00E94AC2340E150E0612F8EE293E0FC
S11328300E94BA2569E77BE08EE293E00E946E2550
S113284020E040E060E0C3010E946A0C6AE57BE09E
S11328508EE293E00E946E25C3010E94C60B182FDE
S11328606DE47BE08EE293E00E94AC23112319F027
S113287066E47BE002C06DE37BE08EE293E00E94BD
S11328806E256CE17BE08EE293E00E946E25C3012D
S11328900E94E50BA82EC3010E940C0CB82EC301A4
S11328A00E94330C182F6BE07BE08EE293E00E94D1
S11328B0AC236A2D772767FD70954AE050E08EE2DD
S11328C093E00E94E8256AEF7AE08EE293E00E94AA
S11328D0AC236B2D772767FD70954AE050E08EE2BC
S11328E093E00E94E82569EE7AE08EE293E00E948C
S11328F0AC23612F772767FD70954AE050E08EE2A4
S113290093E00E94E82566EC7AE08EE293E00E9470
S11329106E254FE760E0C3010E94030B69EA7AE089
S11329208EE293E00E946E2560E0C3010E942F0BAB
S11329306FE77AE08EE293E00E946E2548E660E05D
S1132940C3010E94030B6FE57AE08EE293E00E94DC
S11329506E25C3010E943F0B64E170E080E090E0CB
S11329600E94292A68E37AE08EE293E00E94AC2375
S11329704AE050E069E877E08EE293E00E944A245E
S113298060E37AE08EE293E00E946E25EE24E39405
S113299000E020E049E857E06CE27DE0C3010E94DA
S11329A0E20D882309F45AC368E07AE08EE293E0EA
S11329B00E946E2568ED79E08EE293E00E94AC23DC
S11329C04AE050E060EC70E08EE293E00E944A241A
S11329D062EC79E08EE293E00E946E2540EC50E0D8
S11329E06CE67CE0C3010E94C00E882309F42EC368
S11329F061E979E08EE293E00E946E256FE679E06A
S1132A008EE293E00E946E2563E0C3010E94570B9F
S1132A106EE379E08EE293E00E946E2562E1C301E9
S1132A200E940E0B6EE179E08EE293E00E946E2527
S1132A3064E0C3010E94B40A6EEE78E08EE293E093
S1132A400E946E2561E0C3010E94BB0A6CEC78E031
S1132A508EE293E00E946E2563E0C3010E94C60AE1
S1132A606CE978E08EE293E00E946E2563E0C30196
S1132A700E94D10A66E678E08EE293E00E946E2519
S1132A8063E0C3010E94C40E60E0C3010E94CB0E48
S1132A906CE478E08EE293E00E946E2560E0C3016E
S1132AA00E94DD0B68E178E08EE293E00E946E25DF
S1132AB06A2DC3010E94010C6B2DC3010E94280CD6
S1132AC0612FC3010E944F0C62EE77E08EE293E027
S1132AD00E946E25A12CB12C8DE39CE04C01F501E4
S1132AE0E35CF34FE491A1E8B0E0AC0FBD1FAA0D85
S1132AF0B11DEC9361E06A0D2FEFA21AB20AE3E074
S1132B00EA1560F7CD57DF4F4881C358D04070E0D5
S1132B10242F30E02D5F3F4F62177307FCF250E023
S1132B2061E870E06C0F7D1F6D5F7F4FC12CEE2458
S1132B30E394CE57DF4F0881C258D040CF57DF4FC0
S1132B402881C158D040C3010E94FC0C6CEA77E094
S1132B508EE293E00E946E2550E0F401EA0DFB1D25
S1132B608491E1E8F0E0EC0FFD1FE50FF11D808397
S1132B705F5FFFEFAF1ABF0A543078F3CD57DF4FD2
S1132B804881C358D040252F30E0842F90E003962D
S1132B902817390714F350E061E870E06C0F7D1FCB
S1132BA06D5F7F4FC12CEE24E394CE57DF4F088135
S1132BB0C258D040CF57DF4F2881C158D040C301FD
S1132BC00E94FC0C6AE977E08EE293E00E946E2595
S1132BD0C3010E94370B64E877E08EE293E00E9421
S1132BE06E25C3010E94770B182F092F60E777E049
S1132BF08EE293E00E94AC234AE050E0612F702FF4
S1132C008EE293E00E941826412FBE016F5F7F4F32
S1132C10C3010E94930B65E477E08EE293E00E9487
S1132C206E2562E0C3010E94E70A63E177E08EE269
S1132C3093E00E946E256CE9C3010E94F50A68EED8
S1132C4076E08EE293E00E946E2560E5C3010E9467
S1132C50EE0A69EB76E08EE293E00E946E2560E076
S1132C60C3010E94FC0A67EA76E08EE293E00E94C8
S1132C706E25C3010E94370B66E976E08EE293E08D
S1132C800E946E2561E0C3010E94270B66E876E08E
S1132C908EE293E00E946E2561E0C3010E945A0C0B
S1132CA065E776E08EE293E00E946E25C3010E9400
S1132CB0620C6FE376E08EE293E00E946E2550E0B2
S1132CC0F401EA0DFB1D8491E1E8F0E0EC0FFD1F37
S1132CD0E50FF11D80835F5F2FEFA21AB20A543013
S1132CE078F3CD57DF4F4881C358D040252F30E0CB
S1132CF0842F90E003962817390714F350E061E815
S1132D0070E06C0F7D1F6D5F7F4FC12CEE24E39448
S1132D10CE57DF4F0881C258D040CF57DF4F2881AC
S1132D20C158D040C3010E94FC0C69E076E08EE2F9
S1132D3093E00E946E2550E0F401EA0DFB1D84919E
S1132D40E1E8F0E0EC0FFD1FE50FF11D80835F5F0C
S1132D508FEFA81AB80A543078F3CD57DF4F488163
S1132D60C358D040252F30E0842F90E003962817D5
S1132D70390714F350E061E870E06C0F7D1F6D5F5C
S1132D807F4FC12CEE24E394CE57DF4F0881C25805
S1132D90D040CF57DF4F2881C158D040C3010E9493
S1132DA0FC0C63ED75E08EE293E00E946E2550E02A
S1132DB0F401EA0DFB1D8491E1E8F0E0EC0FFD1F46
S1132DC0E50FF11D80835F5FEFEFAE1ABE0A54304A
S1132DD078F3CD57DF4F4881C358D040252F30E0DA
S1132DE0842F90E003962817390714F350E061E824
S1132DF070E06C0F7D1F6D5F7F4FC12CEE24E39458
S1132E00CE57DF4F0881C258D040CF57DF4F2881BB
S1132E10C158D040C3010E94FC0C65EB75E08EE202
S1132E2093E00E946E25C3010E94770B8C018330CE
S1132E309105C8F361EA75E08EE293E00E94AC2349
S1132E404AE050E0B8018EE293E00E9418266CE854
S1132E5075E08EE293E00E946E25402FBE016F5F05
S1132E607F4FC3010E94930B60E775E08EE293E00D
S1132E700E946E25C3010E94150B182F66E575E0AC
S1132E808EE293E00E94AC2340E150E0612F8EE299
S1132E9093E00E94BA2560E275E08EE293E00E941E
S1132EA06E2550E0F401EA0DFB1D8491E1E8F0E0A9
S1132EB0EC0FFD1FE50FF11D80835F5FFFEFAF1A7D
S1132EC0BF0A543078F3CD57DF4F4881C358D04000
S1132ED0252F30E0842F90E003962817390714F348
S1132EE050E061E870E06C0F7D1F6D5F7F4FCE573F
S1132EF0DF4F0881C258D040CF57DF4F2881C158D7
S1132F00D040C3010E948F0C62E075E08EE293E032
S1132F100E946E25C3010E94770B4C0183309105FA
S1132F20C8F36EEE74E08EE293E00E94AC234AE0B4
S1132F3050E0B4018EE293E00E94182669ED74E03B
S1132F408EE293E00E946E25482DBE016F5F7F4F95
S1132F50C3010E94930B6DEB74E08EE293E00E9438
S1132F606E25C3010E94150B182F63EA74E08EE2EC
S1132F7093E00E94AC2340E150E0612F8EE293E0A5
S1132F800E94BA256DE674E08EE293E00E946E25FD
S1132F90F501E35CF34F50E001C031968491A1E860
S1132FA0B0E0AC0FBD1FA50FB11D8C935F5F543013
S1132FB0A0F3CD57DF4F4881C358D040252F30E0D0
S1132FC0842F90E00396281739073CF350E061E81A
S1132FD070E06C0F7D1F6D5F7F4FC12CEE24E39476
S1132FE0CE57DF4F0881C258D040CF57DF4F2881DA
S1132FF0C158D040C3010E94FC0C61E574E08EE22C
S113300093E00E946E2569E274E08EE293E00E94F0
S11330106E2560E0C3010E945A0C6EEE73E08EE2EE
S113302093E00E946E258AE290E0F3019383828309
S113303066EB73E08EE293E00E946E25C3010E946A
S1133040370BC3010E94150B80E00FC068E873E0E2
S11330508EE293E00E946E2582E007C063E673E08F
S11330608EE293E00E946E2581E0C057DF4F0FB6D9
S1133070F894DEBF0FBECDBFDF91CF911F910F91AA
S1133080EF90CF90BF90AF909F908F907F906F9074
S11330900895CF93DF93DB01FA01309719F4EC0123
S11330A0E881F981848D90E0982F8827258D820FFF
S11330B0911D11969C938E9380A190E0982F882760
S11330C021A1820F911D13969C938E93129784A134
S11330D090E0982F882725A1820F911D15969C9327
S11330E08E93149780E0DF91CF910895CF93DF936F
S11330F0DB01FA01309719F4EC01E881F981808150
S113310090E0982F88272181820F911D11969C931E
S11331108E93848190E0982F88272581820F911DBA
S113312013969C938E931297808590E0982F88270E
S11331302185820F911D15969C938E9314978485F7
S113314090E0982F88272585820F911D17969C93D0
S11331508E93169780E0DF91CF910895FF920F939D
S11331601F93CF93DF93CDB7DEB728970FB6F894AC
S1133170DEBF0FBECDBF8B01BE016F5F7F4F0E94CC
S11331807618F82E81114CC069817A81882777FDE1
S11331908095982F0E947B1D20E030E040E858E3A2
S11331A00E94071EF80160837183828393836B817D
S11331B07C81882777FD8095982F0E947B1D20E0D5
S11331C030E040E858E30E94071EF80164837583E9
S11331D0868397836D817E81882777FD8095982FDC
S11331E00E947B1D20E030E040E858E30E94071E67
S11331F0F80160877187828793876F817885882734
S113320077FD8095982F0E947B1D20E030E040E8F8
S113321058E30E94071EF80164877587868797879D
S11332208F2D28960FB6F894DEBF0FBECDBFDF9169
S1133230CF911F910F91FF900895AF92BF92CF92BB
S1133240DF92EF92FF920F931F93CF93DF93EB01E3
S11332505A018901FA0160817181882777FD80957F
S1133260982F0E947B1D6B017C0120E030E040E040
S113327056E4F80160817181828193810E94071E66
S11332809B01AC01C701B6010E947B1C0E94481D32
S113329079836883F50162817381882777FD80953E
S11332A0982F0E947B1D6B017C0120E030E040E000
S11332B056E4F80164817581868197810E94071E16
S11332C09B01AC01C701B6010E947B1C0E94481DF2
S11332D07B836A83F50164817581882777FD8095F6
S11332E0982F0E947B1D6B017C0120E030E040E0C0
S11332F056E4F80160857185828593850E94071ED6
S11333009B01AC01C701B6010E947B1C0E94481DB1
S11333107D836C8380E0DF91CF911F910F91FF90AB
S1133320EF90DF90CF90BF90AF9008954F925F924F
S11333306F927F928F929F92AF92BF92CF92DF92C1
S1133340EF92FF920F931F93CF93DF9300D000D09F
S1133350CDB7DEB78B013A01FA0124853585468560
S1133360578564817581868197810E94071E6B0150
S11333707C01F3012085318542855385608171810B
S1133380828193810E94071E9B01AC01C701B60193
S11333900E947B1C9B01AC010E947C1CF801608391
S11333A0718382839383F30124813581468157811C
S11333B060817181828193810E94071E6B017C016F
S11333C0F301248535854685578560857185828519
S11333D093850E94071E9B01AC01C701B6010E94A0
S11333E07C1C9B01AC010E947C1CF80164837583E6
S11333F086839783F30160817181828193818480C4
S11334009580A680B780C084D184E284F384448408
S11334105584668477849B01AC010E94071E6983EE
S11334207A838B839C83A5019401C501B4010E9416
S1133430071E9B01AC0169817A818B819C810E946A
S11334407B1C4B015C01A7019601C701B6010E94D8
S1133450071E9B01AC01C501B4010E947B1C6B01DA
S11334607C01A3019201C301B2010E94071E9B01CA
S1133470AC01C701B6010E947C1CF801608771870A
S11334808287938780E00F900F900F900F90DF91C9
S1133490CF911F910F91FF90EF90DF90CF90BF904D
S11334A0AF909F908F907F906F905F904F90089512
S11334B08CE591E00E945E1188E18093B80040E0C1
S11334C052EC61E070E08EE293E00E9437208EE2DD
S11334D093E00E94B4228823D1F367E473E08EE280
S11334E093E00E946E2583E992E00E94620B69E2F8
S11334F073E08EE293E00E946E2583E992E00E94DD
S1133500BE0B882319F06BE073E002C061EF72E038
S11335108EE293E00E946E2569EB72E08EE293E006
S11335200E946E2565EA72E08EE293E00E946E25A9
S113353083E992E00E94BE1380938F02811130C010
S113354065E972E08EE293E00E946E2561E083E912
S113355092E00E945A0C66E572E08EE293E00E94CB
S11335606E2543E050E06AEB73E180E00E945F283F
S113357083E992E00E94150B809390026CE272E062
S11335808EE293E00E946E2581E080939102809107
S113359095029091960290938E0280938D0214C0AE
S11335A06BE072E08EE293E00E94AC234AE050E0CC
S11335B060918F028EE293E00E94282469E072E019
S11335C08EE293E00E946E2561E08DE00E94FA2A6B
S11335D0089580919102882309F415C120918B02EA
S11335E030918C0280918D0290918E0240911C0248
S11335F04111F4C02817390708F0F0C0F7CF81153E
S113360034E0930759F483E992E00E94370B6AEFA0
S113361071E08EE293E00E946E25089521FFF3C0CD
S113362040918D0250918E028417950778F483E9B6
S113363092E00E94770B90938C0280938B024091CE
S11336408D0250918E028417950788F36BE472E023
S113365083E992E00E94930B80918B0290918C02FB
S113366020918D0230918E02821B930B90938C02D9
S113367080938B024BE452E06BE372E083E992E0C7
S11336800E94AE1864E371E08EE293E00E94F3239B
S113369040913B0250913C0260913D0270913E0288
S11336A022E030E08EE293E00E9447256FE371E070
S11336B08EE293E00E94F32340913F025091400236
S11336C0609141027091420222E030E08EE293E088
S11336D00E9447256FE371E08EE293E00E94F3239A
S11336E04091430250914402609145027091460218
S11336F022E030E08EE293E00E9447256FE371E020
S11337008EE293E00E94F3234091470250914802D5
S11337106091490270914A0222E030E08EE293E027
S11337200E9448264BE452E06BE372E083E992E0A6
S11337300E94AE184BE452E065E372E083E992E044
S11337400E9449184BE352E06DE172E083E992E094
S11337500E9496192DE132E045E352E06FE272E0F7
S113376083E992E00E941D196AE371E08EE293E01E
S11337700E94F32360912F02709130024AE050E0DE
S11337808EE293E00E944A246FE371E08EE293E0BC
S11337900E94F32360913102709132024AE050E0BA
S11337A08EE293E00E944A246FE371E08EE293E09C
S11337B00E94F32360913302709134024AE050E096
S11337C08EE293E00E94E8256091920281E06827EE
S11337D0609392028DE00E94232C089510921C02A3
S11337E083E992E00E94150B8093900283E992E0B2
S11337F00E94770B90938C0280938B02209190020D
S113380024FFFDCE00CF08950E946C2A0E94581A0E
S11338100E94E91A8BE39FE1892B29F00E943B1F48
S11338200E94E91AFBCF0E94E91AFDCF83E992E0D6
S11338300E94B00A80E090E0A0E8BFE380933B02DE
S113384090933C02A0933D02B0933E0210923F023B
S113385010924002109241021092420210924302CE
S113386010924402109245021092460210924702AE
S1133870109248021092490210924A0210923602A3
S113388010923502109238021092370210923A02C6
S1133890109239021092300210922F0210923202CA
S11338A010923102109234021092330210922A02C2
S11338B01092290210922C0210922B0210922E02C6
S11338C010922D0210921D0210921E0210921F02DD
S11338D010922002109221021092220210922302CE
S11338E010922402109225021092260210922702AE
S11338F01092280208955058BB27AA270ED04DC114
S11339003ED130F043D120F031F49F3F11F41EF446
S113391033C10EF4E095E7FB29C1E92F4FD180F3C1
S1133920BA17620773078407950718F071F49EF5B8
S113393067C10EF4E0950B2EBA2FA02D0B01B9012F
S113394090010C01CA01A0011124FF27591B99F011
S1133950593F50F4503E68F11A16F040A22F232F1D
S1133960342F4427585FF3CF469537952795A7956D
S1133970F0405395C9F77EF41F16BA0B620B730B14
S1133980840BBAF09150A1F0FF0FBB1F661F771F85
S1133990881FC2F70EC0BA0F621F731F841F48F43A
S11339A0879577956795B795F7959E3F08F0B3CFC0
S11339B09395880F08F09927EE0F979587950895AA
S11339C00CD0EBC0E3D040F0DAD030F021F45F3F0C
S11339D019F0CCC0511115C1CFC0F0D098F3992380
S11339E0C9F35523B1F3951B550BBB27AA276217BF
S11339F07307840738F09F5F5F4F220F331F441F04
S1133A00AA1FA9F333D00E2E3AF0E0E830D091503B
S1133A105040E695001CCAF729D0FE2F27D0660F28
S1133A20771F881FBB1F261737074807AB07B0E867
S1133A3009F0BB0B802DBF01FF2793585F4F2AF07D
S1133A409E3F510568F092C0DCC05F3FECF3983EA6
S1133A50DCF3869577956795B795F7959F5FC9F7DA
S1133A60880F911D9695879597F90895E1E0660F63
S1133A70771F881FBB1F621773078407BA0720F0DC
S1133A80621B730B840BBA0BEE1F88F7E095089545
S1133A9004D06894B111B5C0089598D088F09F57A8
S1133AA090F0B92F9927B751A0F0D1F0660F771F86
S1133AB0881F991F1AF0BA95C9F712C0B13081F066
S1133AC09FD0B1E008959CC0672F782F8827B85FF6
S1133AD039F0B93FCCF3869577956795B395D9F7C7
S1133AE03EF490958095709561957F4F8F4F9F4FD1
S1133AF00895E89409C097FB3EF4909580957095DD
S1133B0061957F4F8F4F9F4F9923A9F0F92F96E925
S1133B10BB279395F695879577956795B795F1119A
S1133B20F8CFFAF4BB0F11F460FF1BC06F5F7F4F37
S1133B308F4F9F4F16C0882311F096E911C0772349
S1133B4021F09EE8872F762F05C0662371F096E852
S1133B50862F70E060E02AF09A95660F771F881F21
S1133B60DAF7880F9695879597F9089597F99F67DF
S1133B7080E870E060E008959FEF80EC08950024F1
S1133B800A941616170618060906089500240A94BE
S1133B9012161306140605060895092E0394000C44
S1133BA011F4882352F0BB0F40F4BF2B11F460FFD3
S1133BB004C06F5F7F4F8F4F9F4F089557FD9058FC
S1133BC0440F551F59F05F3F71F04795880F97FBDD
S1133BD0991F61F09F3F79F0879508951216130697
S1133BE01406551FF2CF4695F1DF08C016161706C6
S1133BF01806991FF1CF86957105610508940895FB
S1133C00E894BB2766277727CB0197F908950BD053
S1133C10C4CFB5DF28F0BADF18F0952309F0A6CF9A
S1133C20ABCF1124EECFCADFA0F3959FD1F3950F4C
S1133C3050E0551F629FF001729FBB27F00DB11D2C
S1133C40639FAA27F00DB11DAA1F649F6627B00DBC
S1133C50A11D661F829F2227B00DA11D621F739FA5
S1133C60B00DA11D621F839FA00D611D221F749FB3
S1133C703327A00D611D231F849F600D211D822FFA
S1133C80762F6A2F11249F5750408AF0E1F0882341
S1133C904AF0EE0FFF1FBB1F661F771F881F91504E
S1133CA05040A9F79E3F510570F060CFAACF5F3F07
S1133CB0ECF3983EDCF3869577956795B795F79581
S1133CC0E7959F5FC1F7FE2B880F911D9695879509
S1133CD097F90895CF93DF9300D0CDB7DEB79A83D9
S1133CE0898389819A8125E531E0FC013183208330
S1133CF089819A81FC01138212820F900F90DF91C7
S1133D00CF910895CF93DF9300D0CDB7DEB79A83D8
S1133D10898389819A810E946A1E89819A8128E116
S1133D2031E0FC013183208329813A8188EE93E0DC
S1133D30A0E0B0E0F90184839583A683B7830F9054
S1133D400F90DF91CF910895CF93DF9300D000D0EF
S1133D501F92CDB7DEB78B837D836C838C819D816D
S1133D60805C9F4FFC018081918101968F7399271C
S1133D709A83898329813A818C819D818E5B9F4FAF
S1133D80FC018081918141E02817390709F440E062
S1133D904423B9F08C819D81805C9F4FFC0180811C
S1133DA091812C813D81820F931F2B81FC01208303
S1133DB029813A818C819D81805C9F4FFC013183F4
S1133DC020830F900F900F900F900F90DF91CF9161
S1133DD00895CF93DF93CDB7DEB7DF91CF910895E8
S1133DE01F920F9200905F000F9211242F933F9324
S1133DF04F935F936F937F938F939F93AF93BF93EF
S1133E00EF93FF93CF93DF9300D0CDB7DEB780EC71
S1133E1090E0FC018081882F90E08470992721E054
S1133E20009709F020E0222359F086EC90E0FC0191
S1133E308081898366EA72E089810E94A41E05C09C
S1133E4086EC90E0FC0180818A830F900F90DF91D3
S1133E50CF91FF91EF91BF91AF919F918F917F91FE
S1133E606F915F914F913F912F910F9000925F005E
S1133E700F901F901895CF93DF93CDB7DEB78EE2E6
S1133E8093E00E94422121E0009709F420E02223DC
S1133E9011F00E94E91EDF91CF9108951F920F92B5
S1133EA000905F000F9211242F933F934F938F93B1
S1133EB09F93EF93FF93CF93DF931F92CDB7DEB71A
S1133EC020912A0330912B0380912C0390912D0390
S1133ED041E02817390709F040E0442351F081EC10
S1133EE090E021EC30E0F90120812F7DFC0120835A
S1133EF019C080912C0390912D0386519D4FFC0194
S1133F008081898380912C0390912D0301968F7376
S1133F10992790932D0380932C0386EC90E02981BC
S1133F20FC0120830F90DF91CF91FF91EF919F913E
S1133F308F914F913F912F910F9000925F000F90BE
S1133F401F9018958F929F92AF92BF92CF92DF925B
S1133F50EF92FF920F931F93CF93DF93CDB7DEB70A
S1133F6062970FB6F894DEBF0FBECDBF9A838983E4
S1133F707C836B835E834D8338872F831A870987FD
S1133F80FC86EB86DE86CD86B88AAF869A8A898AD5
S1133F9089819A810E94821E89819A8125E431E077
S1133FA0FC013183208389819A812B813C81FC012E
S1133FB03587248789819A812D813E81FC01378749
S1133FC0268789819A812F813885FC01318B208B4A
S1133FD089819A8129853A85FC01338B228B8981D9
S1133FE09A812B853C85FC01358B248B89819A81B0
S1133FF02D853E85FC01378B268B89819A812F85FF
S11340003889FC01318F208F89819A8129893A89E5
S1134010FC01338F228F89819A8129A1FC01248F8D
S113402089819A812AA1FC01258F89819A812BA1FA
S1134030FC01268F89819A812CA1FC01278F89811B
S11340409A812DA1FC0120A362960FB6F894DEBFDD
S11340500FBECDBFDF91CF911F910F91FF90EF90D5
S1134060DF90CF90BF90AF909F908F900895CF93A3
S1134070DF93CDB7DEB761970FB6F894DEBF0FBEFE
S1134080CDBF9D838C834E835F836887798781E06E
S11340908B838E819F81A885B985811521EE920736
S11340A0A105B10509F41B828B81882361F18C8100
S11340B09D81FC01848995892C813D81F90120A190
S11340C0422F50E021E030E002C0220F331F4A9516
S11340D0E2F7FC01208380E099E0ADE3B0E02E81BB
S11340E03F8148855985BC01CD010E94DA2CDA0153
S11340F0C9010197A109B109B695A7959795879527
S11341009A8389831EC08C819D81FC018489958951
S1134110FC01108280E894E8AEE1B0E02E813F819A
S113412048855985BC01CD010E94DA2CDA01C90108
S11341300197A109B109B695A795979587959A8393
S1134140898389819A818115F0E19F0728F08B8109
S1134150882311F01B82A8CF8C819D81FC0180896A
S1134160918929813A81232F3327FC0120838C8173
S11341709D81FC01828993892981FC0120838C81A2
S11341809D81FC0111A28C819D81FC018689978906
S11341902C813D81F90126893789F9012081622F1B
S11341A02C813D81F901248D422F50E021E030E043
S11341B002C0220F331F4A95E2F7262BFC0120830D
S11341C08C819D81FC01868997892C813D81F9012F
S11341D026893789F9012081622F2C813D81F901DB
S11341E0258D422F50E021E030E002C0220F331F22
S11341F04A95E2F7262BFC0120838C819D81FC01EA
S1134200868997892C813D81F90126893789F901AD
S11342102081622F2C813D81F901268D422F50E0AF
S113422021E030E002C0220F331F4A95E2F7262B2B
S1134230FC0120838C819D81FC01868997892C81D6
S11342403D81F90126893789F9012081622F2C816A
S11342503D81F901278D422F50E021E030E0042E0A
S113426002C0220F331F0A94E2F720952623FC0193
S1134270208361960FB6F894DEBF0FBECDBFDF91E9
S1134280CF910895CF93DF9300D0CDB7DEB79A8353
S1134290898389819A81FC0184859585805C9F4FFF
S11342A0FC012081318189819A81FC018485958575
S11342B08E5B9F4FFC0180819181A901481B590BA2
S11342C0CA018F7399270F900F90DF91CF910895B2
S11342D0CF93DF9300D0CDB7DEB79A8389838981EA
S11342E09A81FC0184859585805C9F4FFC01208127
S11342F0318189819A81FC01848595858E5B9F4FEC
S1134300FC018081918141E02817390709F040E0E0
S1134310442319F08FEF9FEF15C089819A81FC0126
S11343202485358589819A81FC01848595858E5BF8
S11343309F4FFC0180819181820F931FFC0180813A
S1134340882F90E00F900F90DF91CF910895CF9335
S1134350DF9300D01F92CDB7DEB79B838A838A8117
S11343609B81FC0184859585805C9F4FFC012081A5
S113437031818A819B81FC01848595858E5B9F4F69
S1134380FC018081918141E02817390709F040E060
S1134390442319F08FEF9FEF2FC08A819B81FC018A
S11343A0248535858A819B81FC01848595858E5B76
S11343B09F4FFC0180819181820F931FFC018081BA
S11343C089838A819B81FC01848595852A813B812F
S11343D0F901248535852E5B3F4FF9012081318118
S11343E02F5F3F4F2F7333278E5B9F4FFC01318329
S11343F020838981882F90E00F900F900F90DF9198
S1134400CF910895CF93DF9300D0CDB7DEB79A83D1
S11344108983000089819A81FC0181A1882379F034
S113442089819A81FC0184899589FC018081882F86
S113443090E080749927009711F481E001C080E036
S1134440882341F789819A81FC0111A20F900F9072
S1134450DF91CF910895CF93DF9300D000D01F92C6
S1134460CDB7DEB79C838B836D838B819C81FC01EC
S113447086859785805C9F4FFC01808191810196A0
S11344808F7399279A838983000029813A818B81CC
S11344909C81FC01868597858E5B9F4FFC01808102
S11344A0918141E02817390709F040E0442369F776
S11344B08B819C81FC01268537858B819C81FC0145
S11344C086859785805C9F4FFC0180819181820F56
S11344D0931F2D81FC0120838B819C81FC018685A7
S11344E0978529813A81805C9F4FFC013183208329
S11344F08B819C81FC01868997892B813C81F90100
S113450026893789F9012081622F2B813C81F901A9
S1134510278D422F50E021E030E0042E02C0220F0C
S1134520331F0A94E2F7262BFC0120838B819C81A4
S113453021E0FC0121A38B819C81FC018489958964
S11345402B813C81F90124893589F901208120647A
S1134550FC01208381E090E00F900F900F900F906A
S11345600F90DF91CF910895CF93DF9300D0CDB713
S1134570DEB79A83898381E00F900F90DF91CF910A
S113458008958F929F92AF92BF92CF92DF92EF9253
S1134590FF920F931F93CF93DF9300D000D0CDB73A
S11345A0DEB79A8389837C836B8389819A81813086
S11345B09105A9F58B819C818F3F2FEF920779F5A7
S11345C081E08F9385E08F9387E08F9383E08F93CF
S11345D084E08F930F2EF6EC8F2E912CF02D0F2E5E
S11345E0F2ECAF2EB12CF02D0F2EF1ECCF2ED12CFE
S11345F0F02D0F2EF0ECEF2EF12CF02D04EC10E04A
S113460025EC30E04AEE52E066EA72E08EE293E096
S11346100E94A21F0F900F900F900F900F900F9079
S11346200F900F900F90DF91CF911F910F91FF90FA
S1134630EF90DF90CF90BF90AF909F908F900895B0
S1134640CF93DF93CDB7DEB76FEF7FEF81E090E0DC
S11346500E94C122DF91CF910895CF93DF93CDB70C
S1134660DEB7DF91CF9108950F931F93CF93DF931C
S113467000D000D0CDB7DEB79A8389837C836B8367
S11346808B819C81009719F480E090E015C08981AA
S11346909A81FC01808191810296FC010081118143
S11346A08B819C810E94092FAC012B813C818981E3
S11346B09A81B901F80109950F900F900F900F900E
S11346C0DF91CF911F910F910895CF93DF93CDB7D1
S11346D0DEB728970FB6F894DEBF0FBECDBF9C831C
S11346E08B837E836D8358874F831A8219821CC003
S11346F08B819C81FC0180819181FC01208131812D
S11347008D819E81AC014F5F5F4F5E834D83FC01C1
S113471040818B819C81642FF901099529813A811B
S1134720820F931F9A8389838F8198859C012150DE
S1134730310938872F8321E0009709F420E02223F0
S1134740B9F689819A8128960FB6F894DEBF0FBE18
S1134750CDBFDF91CF910895CF93DF93CDB7DEB76F
S11347602C970FB6F894DEBF0FBECDBF9A8789870A
S11347707C876B878B859C859A8389831C821B82AB
S113478089819A819C012F5F3F4F3A8329839E83BD
S11347908D838D819E81FC0184918F838F81888795
S11347A08885882309F414C089859A85FC01808151
S11347B09181FC012081318189859A856885F9017F
S11347C009952B813C81820F931F9C838B83D8CFC7
S11347D08B819C812C960FB6F894DEBF0FBECDBFA3
S11347E0DF91CF910895CF93DF9300D000D0CDB760
S11347F0DEB79A8389837C836B832B813C81898197
S11348009A81B9010E9434230F900F900F900F905A
S1134810DF91CF910895CF93DF9300D01F92CDB74E
S1134820DEB79A8389836B8389819A81FC018081B5
S11348309181FC01208131814B8189819A81642F8E
S1134840F90109950F900F900F90DF91CF91089582
S1134850CF93DF9300D000D01F92CDB7DEB79A83F9
S113486089836B835D834C838B81882F90E0A0E0E8
S1134870B0E02C813D81E981FA81AC01BD01CF0119
S11348800E940D250F900F900F900F900F90DF91C5
S1134890CF910895CF93DF9300D000D000D0CDB74F
S11348A0DEB79A8389837C836B835E834D838B819C
S11348B09C81AA2797FDA095BA2F2D813E81E9817D
S11348C0FA81AC01BD01CF010E94932426960FB654
S11348D0F894DEBF0FBECDBFDF91CF910895CF9383
S11348E0DF9300D000D000D0CDB7DEB79A838983A0
S11348F07C836B835E834D838B819C81CC01A0E0A0
S1134900B0E02D813E81E981FA81AC01BD01CF0186
S11349100E940D2526960FB6F894DEBF0FBECDBFBC
S1134920DF91CF910895CF93DF93CDB7DEB72A9768
S11349300FB6F894DEBF0FBECDBF9C838B834D832F
S11349405E836F8378873A87298789859A8500975C
S113495079F48B819C81FC0180819181FC0120810F
S113496031814D818B819C81642FF90109954CC063
S113497089859A858A309105D9F58D819E81AF818B
S1134980B885BB2344F58B819C816DE20E940B2486
S11349909A8389838D819E81AF81B885B095A095D6
S11349A0909581959F4FAF4FBF4F8D839E83AF836B
S11349B0B8878D819E81AF81B885EB81FC812AE027
S11349C0AC01BD01CF010E947E269C0189819A81A0
S11349D0820F931F19C08D819E81AF81B885EB81B1
S11349E0FC812AE0AC01BD01CF010E947E260CC0EF
S11349F029858D819E81AF81B885EB81FC81AC01D5
S1134A00BD01CF010E947E262A960FB6F894DEBF20
S1134A100FBECDBFDF91CF910895CF93DF93CDB774
S1134A20DEB728970FB6F894DEBF0FBECDBF9A83CA
S1134A3089834B835C836D837E8338872F838F8147
S1134A409885009779F489819A81FC01808191810C
S1134A50FC01208131814B8189819A81642FF90184
S1134A6009950CC02F818B819C81AD81BE81E98128
S1134A70FA81AC01BD01CF010E947E2628960FB6B3
S1134A80F894DEBF0FBECDBFDF91CF910895CF93D1
S1134A90DF93CDB7DEB728970FB6F894DEBF0FBE0D
S1134AA0CDBF9A8389834B835C836D837E833887F0
S1134AB02F832F818B819C81AD81BE81E981FA8115
S1134AC0AC01BD01CF010E94F22628960FB6F894DE
S1134AD0DEBF0FBECDBFDF91CF910895CF93DF939B
S1134AE000D000D000D0CDB7DEB79C838B837E830B
S1134AF06D832D813E818B819C81B9010E94AC2301
S1134B009A8389838B819C810E94972529813A818C
S1134B10820F931F9A83898389819A8126960FB67F
S1134B20F894DEBF0FBECDBFDF91CF910895CF9330
S1134B30DF9300D000D0CDB7DEB79C838B838B810D
S1134B409C816DE00E940B249A8389838B819C81D4
S1134B506AE00E940B2429813A81820F931F9A8371
S1134B60898389819A810F900F900F900F90DF9124
S1134B70CF910895CF93DF93CDB7DEB727970FB6C4
S1134B80F894DEBF0FBECDBF9C838B836D835F83A0
S1134B904E832E813F818B819C81A9016D810E946E
S1134BA028249A8389838B819C810E94972529815B
S1134BB03A81820F931F9A83898389819A812796E8
S1134BC00FB6F894DEBF0FBECDBFDF91CF9108952D
S1134BD0CF93DF93CDB7DEB728970FB6F894DEBF37
S1134BE00FBECDBF9C838B837E836D8358874F8399
S1134BF04F8158852D813E818B819C81B9010E9412
S1134C004A249A8389838B819C810E9497252981D8
S1134C103A81820F931F9A83898389819A81289686
S1134C200FB6F894DEBF0FBECDBFDF91CF910895CC
S1134C30CF93DF93CDB7DEB728970FB6F894DEBFD6
S1134C400FBECDBF9C838B837E836D8358874F8338
S1134C504F8158852D813E818B819C81B9010E94B1
S1134C606F249A8389838B819C810E949725298153
S1134C703A81820F931F9A83898389819A81289626
S1134C800FB6F894DEBF0FBECDBFDF91CF9108956C
S1134C90CF93DF93CDB7DEB72A970FB6F894DEBF74
S1134CA00FBECDBF9C838B834D835E836F837887D8
S1134CB03A87298729853A858D819E81AF81B88578
S1134CC0EB81FC81AC01BD01CF010E9447259A8391
S1134CD089838B819C810E94972529813A81820F47
S1134CE0931F9A83898389819A812A960FB6F894AF
S1134CF0DEBF0FBECDBFDF91CF910895CF93DF9379
S1134D00CDB7DEB7E3970FB6F894DEBF0FBECDBFC5
S1134D109AA789A74BA75CA76DA77EA72FA780E2B8
S1134D2090E09E01285F3F4F820F931F9A838983EF
S1134D3089819A81FC0110828FA5823010F48AE067
S1134D408FA78BA59CA5ADA5BEA58B839C83AD83A6
S1134D50BE838FA5282F30E040E050E08BA59CA5B2
S1134D60ADA5BEA5BC01CD010E94DA2CDA01C901B2
S1134D708BA79CA7ADA7BEA79B812BA58FA5289F1A
S1134D80802D1124F92FF81B8F2F8F8389819A810D
S1134D9001979A8389838F818A3024F48F81805D7F
S1134DA0282F03C08F81895C282F89819A81FC0177
S1134DB020838BA59CA5ADA5BEA50097A105B10533
S1134DC009F0BFCF29813A8189A59AA5B9010E942A
S1134DD03423E3960FB6F894DEBF0FBECDBFDF9148
S1134DE0CF910895CF92DF92EF92FF921F93CF93CA
S1134DF0DF93CDB7DEB768970FB6F894DEBF0FBE6A
S1134E00CDBF9B8B8A8B4C8B5D8B6E8B7F8B288F5E
S1134E101A8219822C893D894E895F896C897D8922
S1134E208E899F890E94D62C882339F08A899B8990
S1134E3066E071E00E94F32334C18C899D89AE89B8
S1134E40BF896C017D01E894F7F811E02FEF3FEF83
S1134E504FE75FE7C701B6010E94D62C882359F4B7
S1134E602FEF3FEF4FE75FE7C701B6010E94AA2C7F
S1134E7018160CF410E081E08127882339F08A8920
S1134E809B896AE071E00E94F3230BC12FEF3FEF8F
S1134E904FE75FE46C897D898E899F890E94D22CBB
S1134EA018163CF48A899B896EE071E00E94F32312
S1134EB0F8C02FEF3FEF4FE75FEC6C897D898E8957
S1134EC09F890E94AA2C88233CF48A899B896EE0DE
S1134ED071E00E94F323E5C020E030E0A9016C8971
S1134EE07D898E899F890E94AA2C8823A4F48A89AB
S1134EF09B896DE20E940B2429813A81820F931FC2
S1134F009A8389838C899D89AE89BF89B0588C8B9B
S1134F109D8BAE8BBF8B80E090E0A0E0BFE38B83E2
S1134F209C83AD83BE831F8213C020E030E040E247
S1134F3051E46B817C818D819E810E94E01CDC01A7
S1134F40CB018B839C83AD83BE838F818F5F8F83E3
S1134F509F81888D981748F32B813C814D815E8118
S1134F606C897D898E899F890E947C1CDC01CB0120
S1134F708C8B9D8BAE8BBF8B6C897D898E899F8931
S1134F800E944D1DDC01CB018C879D87AE87BF87B6
S1134F906C857D858E859F850E94791DDC01CB0102
S1134FA09C01AD016C897D898E899F890E947B1C3F
S1134FB0DC01CB0188879987AA87BB878C859D856F
S1134FC0AE85BF85EA89FB892AE030E0AC01BD01EA
S1134FD0CF010E940D2529813A81820F931F9A8364
S1134FE08983888D882361F08A899B8962E171E0D5
S1134FF00E94F32329813A81820F931F9A83898324
S113500043C020E030E040E251E4688579858A8538
S11350109B850E94071EDC01CB0188879987AA879C
S1135020BB87688579858A859B850E94481DDC013C
S1135030CB01998B888B288939898A899B894AE095
S113504050E0B9010E944A2429813A81820F931FBA
S11350509A83898388899989AA2797FDA095BA2F6D
S1135060BC01CD010E947B1DDC01CB019C01AD0183
S1135070688579858A859B850E947B1CDC01CB0130
S113508088879987AA87BB87988D8FEF890F888F28
S113509081E0992309F480E0882309F0B2CF898163
S11350A09A8168960FB6F894DEBF0FBECDBFDF912C
S11350B0CF911F91FF90EF90DF90CF900895CF9301
S11350C0DF9300D000D01F92CDB7DEB789837B83F6
S11350D06A835D834C838981823008F049C0898169
S11350E0882F90E0880F991F805B9C4F2A813B8119
S11350F0FC01318320838981882F90E081309105E0
S1135100D9F08230910599F1009791F589E690E004
S113511029E630E0F9012081322F3C7F2C81232BBA
S1135120FC0120838DE390E02DE330E0F901208140
S11351302160FC0120831CC089E690E029E630E070
S1135140F9012081422F437F2C813D81220F331F9F
S1135150220F331F242BFC0120838DE390E02DE3E9
S113516030E0F90120812260FC01208301C00000AD
S11351700F900F900F900F900F90DF91CF910895A3
S11351801F920F9200905F000F9211242F933F9370
S11351904F935F936F937F938F939F93AF93BF933B
S11351A0EF93FF93CF93DF93CDB7DEB78091500396
S11351B090915103009731F08091500390915103E5
S11351C0FC010995DF91CF91FF91EF91BF91AF91D0
S11351D09F918F917F916F915F914F913F912F910B
S11351E00F9000925F000F901F9018951F920F92DE
S11351F000905F000F9211242F933F934F935F937E
S11352006F937F938F939F93AF93BF93EF93FF938A
S1135210CF93DF93CDB7DEB78091520390915303C0
S1135220009731F08091520390915303FC0109954A
S1135230DF91CF91FF91EF91BF91AF919F918F91AA
S11352407F916F915F914F913F912F910F900092B9
S11352505F000F901F9018951F920F9200905F00AF
S11352600F9211248F939F93AF93BF93CF93DF93A8
S1135270CDB7DEB72597DEBFCDBF8091580390919F
S11352805903A0915A03B0915B0389839A83AB833A
S1135290BC8380915C038D8389819A81AB81BC81BD
S11352A00196A11DB11D89839A83AB83BC838D8133
S11352B08D5F8D838D818D3770F08D818D578D83BA
S11352C089819A81AB81BC810196A11DB11D89831D
S11352D09A83AB83BC838D8180935C0389819A819B
S11352E0AB81BC818093580390935903A0935A03D4
S11352F0B0935B038091540390915503A09156039E
S1135300B09157030196A11DB11D8093540390934E
S11353105503A0935603B09357030F900F900F902B
S11353200F900F90DF91CF91BF91AF919F918F918B
S11353300F9000925F000F901F901895CF93DF930A
S113534000D000D01F92CDB7DEB78FE590E0FC010E
S113535080818983F8948091580390915903A09196
S11353605A03B0915B038A839B83AC83BD838FE52F
S113537090E02981FC0120838A819B81AC81BD81DD
S1135380BC01CD010F900F900F900F900F90DF9103
S1135390CF910895CF93DF9300D000D000D0CDB744
S11353A0DEB78FE590E0FC0180818D83F8948091D5
S11353B0540390915503A0915603B09157038983E8
S11353C09A83AB83BC8386E490E0FC0180818E8366
S11353D085E390E0FC018081882F90E0817099271B
S11353E0009771F08E818F3F59F089819A81AB814A
S11353F0BC810196A11DB11D89839A83AB83BC83B3
S11354008FE590E02D81FC01208389819A81AB8115
S1135410BC812227382F492F5A2F8E81882F90E064
S1135420A0E0B0E0820F931FA41FB51F880F991F3F
S1135430AA1FBB1F880F991FAA1FBB1FBC01CD0148
S113544026960FB6F894DEBF0FBECDBFDF91CF9185
S11354500895CF93DF9300D000D000D0CDB7DEB74E
S11354606B837C838D839E830E94CA29DC01CB01DC
S11354709A83898320C00E94CA29DC01CB019C0144
S113548089819A81A901481B590BCA01883E53E0BE
S1135490950788F08B819C81AD81BE810197A1091C
S11354A0B1098B839C83AD83BE8389819A818851A2
S11354B09C4F9A8389838B819C81AD81BE810097A7
S11354C0A105B105C1F626960FB6F894DEBF0FBE4E
S11354D0CDBFDF91CF910895CF93DF93CDB7DEB7E2
S11354E0789484E490E024E430E0F901208122609F
S11354F0FC01208384E490E024E430E0F90120817D
S11355002160FC01208385E490E025E430E0F9018A
S113551020812260FC01208385E490E025E430E0D2
S1135520F90120812160FC0120838EE690E02EE6C3
S113553030E0F90120812160FC01208381E890E0C2
S1135540FC01108281E890E021E830E0F90120813B
S11355502260FC01208381E890E021E830E0F90139
S113556020812160FC01208380E890E020E830E085
S1135570F90120812160FC01208381EB90E021EB83
S113558030E0F90120812460FC01208380EB90E06D
S113559020EB30E0F90120812160FC0120838AE7BF
S11355A090E02AE730E0F90120812460FC012083A7
S11355B08AE790E02AE730E0F90120812260FC01CB
S11355C020838AE790E02AE730E0F9012081216016
S11355D0FC0120838AE790E02AE730E0F90120818A
S11355E02068FC01208381EC90E0FC011082DF91B3
S11355F0CF910895CF93DF93CDB7DEB769970FB6F8
S1135600F894DEBF0FBECDBF888F698F888D882F39
S113561090E083529B4E9A83898389819A81FC010D
S113562084918B838B818C83888D882F90E0875322
S11356309B4E9E838D838D819E81FC0184918F83FB
S11356408F8188878885882309F494C08885882F6A
S113565090E0880F991F8B549B4E9A878987898580
S11356609A85FC0125913491CF013C872B879A8739
S113567089878B859C859E878D878885882F90E078
S1135680880F991F81549B4E988B8F878F8598899B
S1135690FC0125913491CF013A8B298B988B8F870C
S11356A089899A899C8B8B8B898D882331F58FE529
S11356B090E0FC0180818D8BF8948D859E85FC01A2
S11356C08081982F8C8180958923282F8D859E85B4
S11356D0FC0120838B899C89FC018081982F8C811B
S11356E080958923282F8B899C89FC0120838FE551
S11356F090E02D89FC0120833DC0898D823021F505
S11357008FE590E0FC0180818E8BF8948D859E85D9
S1135710FC018081982F8C8180958923282F8D8589
S11357209E85FC0120838B899C89FC0190818C815E
S1135730292F282B8B899C89FC0120838FE590E0FD
S11357402E89FC01208316C08FE590E0FC01808146
S11357508F8BF8948D859E85FC0190818C81292FF7
S1135760282B8D859E85FC0120838FE590E02F8971
S1135770FC01208369960FB6F894DEBF0FBECDBF3F
S1135780DF91CF910895CF93DF931F92CDB7DEB70A
S113579089838981882F90E083309105A1F084303A
S11357A091053CF48130910511F18230910549F164
S11357B046C08630910579F187309105B1F1843086
S11357C0910559F03CC080E890E020E830E0F90110
S11357D020812F77FC01208332C080E890E020E80C
S11357E030E0F90120812F7DFC01208328C084E46E
S11357F090E024E430E0F90120812F77FC0120833C
S11358001EC084E490E024E430E0F90120812F7D7F
S1135810FC01208314C080EB90E020EB30E0F90120
S113582020812F77FC0120830AC080EB90E020EBDD
S113583030E0F90120812F7DFC01208300000F90CE
S1135840DF91CF910895CF93DF93CDB7DEB76597FE
S11358500FB6F894DEBF0FBECDBF8C8B6D8B8C89D9
S1135860882F90E08F509B4E9A83898389819A81F7
S1135870FC0184918B838B818C838C89882F90E0AD
S113588083529B4E9E838D838D819E81FC018491E6
S11358908F838F8188878C89882F90E087539B4ED4
S11358A09A87898789859A85FC0184918B878B8562
S11358B08C878C85882309F444C08C81882319F053
S11358C08C810E94C32B8C85882F90E0880F991FB0
S11358D081549B4E9E878D878D859E85FC012591E5
S11358E03491CF01388B2F879E878D878F85988938
S11358F09A8B898B8FE590E0FC0180818B8BF894E7
S11359008D89882371F489899A89FC018081982F73
S1135910888580958923282F89899A89FC01208389
S11359200BC089899A89FC0190818885292F282BAD
S113593089899A89FC0120838FE590E02B89FC01F9
S1135940208365960FB6F894DEBF0FBECDBFDF91FE
S1135950CF91089503D008F481E00895990F0008C9
S1135960550FAA0BE0E8FEEF16161706E807F9072D
S1135970C0F012161306E407F50798F0621B730BC8
S1135980840B950B39F40A2661F0232B242B252B49
S113599021F408950A2609F4A140A6958FEF811DEC
S11359A0811D0895DBDF08F48FEF0895D7DF880B9E
S11359B0990B0895A1E21A2EAA1BBB1BFD010DC071
S11359C0AA1FBB1FEE1FFF1FA217B307E407F507AB
S11359D020F0A21BB30BE40BF50B661F771F881F87
S11359E0991F1A9469F760957095809590959B011D
S11359F0AC01BD01CF010895EE0FFF1F0590F49196
S1135A00E02D0994CF93DF938230910510F482E066
S1135A1090E0E0915F03F091600320E030E0A0E0CB
S1135A20B0E0309739F14081518148175907B8F0F7
S1135A304817590771F482819381109729F01396BE
S1135A409C938E9312972CC09093600380935F0372
S1135A5027C02115310531F04217530718F0A90169
S1135A60DB0101C0EF019A01BD01DF010280F38176
S1135A70E02DD7CF21153105F9F0281B390B24303F
S1135A80310580F48A819B816115710521F0FB0148
S1135A909383828304C09093600380935F03FE0129
S1135AA0329644C0FE01E20FF31F8193919322507A
S1135AB03109398328833AC020915D0330915E0314
S1135AC0232B41F4209102013091030130935E03B2
S1135AD020935D03209100013091010121153105CE
S1135AE041F42DB73EB74091040150910501241BA8
S1135AF0350BE0915D03F0915E03E217F307A0F428
S1135B002E1B3F0B2817390778F0AC014E5F5F4F0F
S1135B102417350748F04E0F5F1F50935E034093E0
S1135B205D038193919302C0E0E0F0E0CF01DF9147
S1135B30CF910895CF93DF93009709F487C0FC01B8
S1135B40329713821282C0915F03D0916003209731
S1135B5081F420813181280F391F80915D03909158
S1135B605E038217930779F5F0935E03E0935D0378
S1135B706DC0DE0120E030E0AE17BF0750F412968E
S1135B804D915C9113979D014115510509F1DA017D
S1135B90F3CFB383A28340815181840F951F8A1769
S1135BA09B0771F48D919C911197840F951F029618
S1135BB09183808312968D919C9113979383828312
S1135BC02115310529F4F0936003E0935F033EC08F
S1135BD0D9011396FC93EE9312974D915D91A40F06
S1135BE0B51FEA17FB0779F480819181840F951F13
S1135BF00296D90111969C938E9382819381139678
S1135C009C938E931297E0E0F0E08A819B81009749
S1135C1019F0FE01EC01F9CFCE01029628813981F9
S1135C20820F931F20915D0330915E03281739077B
S1135C3069F4309729F41092600310925F0302C054
S1135C4013821282D0935E03C0935D03DF91CF91E0
S1135C500895A0E0B0E0EFE2FEE20C94162FEC0110
S1135C60CB01209719F40E94022DB8C0FE01E60F63
S1135C70F71F9E0122503109E217F30708F4ACC064
S1135C80D9010D911C91119706171707B8F005302B
S1135C90110508F49FC0A80144505109461757073D
S1135CA008F498C002501109061B170B01931193B5
S1135CB06D937C93CF010E949A2D8CC05B01A01A36
S1135CC0B10A4E01800E911EA0915F03B091600352
S1135CD0612C712C60E070E0109709F449C0A8159C
S1135CE0B905C9F5ED90FC901197670142E0C40E27
